:100000000C9464130C9495130C9495130C94951301
:100010000C9495130C9495130C9495130C949513C0
:100020000C9495130C9495130C9495130C949513B0
:100030000C9495130C94964E0C9495130C94951364
:100040000C9495130C94AFA60C9495130C949513E3
:100050000C9495130C9495130C9492890C94414E26
:100060000C9495130C94EC900C94E2900C949513D2
:100070000C9495130C9495130C9495130C94951360
:100080000C9495130C9495130C9495130C94951350
:100090000C9495130C9495130C9495130C94951340
:1000A0000C9495130C9495130C9495130C94951330
:1000B0000C9495130C9495130C9495130C94951320
:1000C0000C9495130C9495130C9495130C94951310
:1000D0000C9495130C9495130C94FC8E0C94C78E71
:1000E0000C9495132B2B452B612B8A2B912B392CA0
:1000F000542C572C742C8F2CCD2CD82C142D312D06
:100100009C2DAB2DC52DDC2DE228DF2D2F8F3F8FB1
:10011000508F5B8F638F7A8F678F7A8F6B8F6F8F24
:100120007A8F758F1F912F9140914B9153916A91C6
:1001300057916A915B915F916A916591F6B6F9B6B4
:10014000E8B6ECB6F2B630B7FDB601B707B70BB7F5
:100150000FB715B719B71DB730B723B727B72BB7E8
:10016000B5BCBABCBFBCC9BCD3BC4CBDDDBCE5BCD6
:10017000EDBCF7BC01BD0BBD1ABD24BD4CBD2EBDF1
:1001800038BD42BD084AD73B3BCE016E84BCBFFDA3
:10019000C12F3D6C74319ABD56833DDA3D00C77F57
:1001A00011BED9E4BB4C3E916BAAAABE00000080F0
:1001B0003F05A84CCDB2D44EB93836A9020C50B97F
:1001C000918688083CA6AAAA2ABE000000803F00AB
:1001D0000C948A2B0C94ECB60C9457E40C94FDB65A
:1001E0000C942F910C942EBD0C942F8F0C940BB764
:1001F0000C94452B0C94E5BC0C94542C0C94742C4E
:100200000C94E2280C9424BD0C94F6B60C9427B7F9
:100210000C94142D0C945F910C94BABC0C946F8FB9
:100220000C942BB70C94DF2D0C9407B70C9401B7EA
:100230000C942B2B0C9465910C94F9B60C948F2C88
:100240000C945B910C94C52D0C94DDBC0C944CBDAE
:100250000C94B5BC0C9440910C94612B0C94F2B6A8
:100260000C941F910C941ABD0C94678F0C941DB7BD
:100270000C94CD2C0C946A910C9430B70C94D82C1F
:100280000C94508F0C9438BD0C94F7BC0C9423B78D
:100290000C94392C0C9453910C94D3BC0C94DC2DFD
:1002A0000C94572C0C940FB70C9415B70C94312D5B
:1002B0000C9401BD0C94912B0C944B910C94638F76
:1002C0000C943F8F0C94E8B60C94758F0C9439E421
:1002D0000C947A8F0C94C9BC0C949C2D0C94AB2D6F
:1002E0000C945B8F0C94BFBC0C9442BD0C940BBD62
:1002F0000C94EDBC0C946B8F0C9419B70C94579123
:100300004E414E494E495459494E46CDCCCC3D0AFA
:10031000D7233C17B7D13877CC2B329595E6241FDD
:10032000B14F0A000020410000C84200401C462096
:10033000BCBE4CCA1B0E5AAEC59D7400407A10F369
:100340005A00A0724E18090010A5D4E80000E87603
:1003500048170000E40B54020000CA9A3B0000005A
:10036000E1F505000080969800000040420F000073
:1003700000A08601000000102700000000E8030034
:100380000000006400000000000A000000000001FE
:1003900000000000002C76D888DC674F0823DFC1FE
:1003A000DFAE59E1B1B796E5E3E453C63AE65199B9
:1003B0007696E8E6C28426EB898C9B62ED407C6FE2
:1003C000FCEFBC9C9F40F2BAA56FA5F490055A2A99
:1003D000F75C936B6CF9676DC11BFCE0E40D47FEA5
:1003E000F520E6B500D0ED902E030094357705009A
:1003F00080841E080000204E0A000000C80C333321
:1004000033330F986E12831141EF8D2114893BE62F
:100410005516CFFEE6DB18D1844B381BF77C1D90B8
:100420001DA4BBE424203284725E228100C9F12421
:10043000ECA1E53D27434F4D4D554E4943415449AD
:100440004F4E0044525952554E004552524F52534E
:1004500000494E464F004543484F00536C65657058
:100460002E2E2E004D65736820706F696E74206F9C
:100470007574206F662072616E67650A00436C694F
:10048000636B20746F20526573756D652E2E2E0080
:100490004E6F204D6F76652E00456E642066696C48
:1004A00065206C6973740A00426567696E2066692D
:1004B0006C65206C6973740A004E6F206D65646909
:1004C000610A00286E6F2066696C652900437572A9
:1004D00072656E742066696C653A20005344207022
:1004E00072696E74696E67206279746520004E6F60
:1004F00074205344207072696E74696E670A0050EC
:1005000072696E742074696D653A2000496E766177
:100510006C69642050696E204D6F64650A000A534F
:10052000746174733A2046696C616D656E742075F0
:100530007365643A20002C204C6F6E6765737420DD
:100540006A6F623A2000546F74616C2074696D6543
:100550003A20002C204661696C65643A20002C200A
:1005600046696E69736865643A20005072696E74FA
:10057000733A200053746174733A20004520255368
:10058000006F66660044454255473A004D313133AD
:100590002053003344205072696E746572204F46B8
:1005A000462E002F2F2000416363656C65726174D5
:1005B000696F6E3A20500046523A0020466C6F77C1
:1005C0003A200050726F7465637465642050696EE0
:1005D0000A0020643A0020693A0020703A00496E0F
:1005E00076616C69642065787472756465720A005E
:1005F0006469730043290A0061626C656420286D98
:10060000696E2074656D702000436F6C642065789E
:1006100074727564657320617265200046696C614F
:100620006D656E742072756E6F757420004D343276
:100630003120696E636F72726563742070617261DC
:100640006D657465722075736167650A004F666633
:1006500073657473204170706C69656400457272D3
:100660003A20546F6F206661722100546F6F2066CC
:1006700061722066726F6D207265666572656E6369
:100680006520706F696E740A00454550524F4D20C9
:100690004F4B0A00205A323A004475616C20456E77
:1006A0006473746F702041646A7573746D656E74E1
:1006B00020286D6D293A20002028302D3130290066
:1006C0002076616C7565206F7574206F662072618D
:1006D0006E676500416476616E6365204B3D005036
:1006E0006F7765722D6C6F7373207265636F7665BB
:1006F000727920004D383458594500446F6E65209A
:100700007072696E74696E672066696C650A004D67
:100710003737004D333100560451044A0443043541
:10072000044A3132004A3034004A303200205A3A0A
:10073000200020593A20004A3039004A303700451D
:10074000787472756465722074656D702061626E74
:100750006F726D616C21203A20004A3130004D35B6
:1007600030310A4D3432302053310041333156207C
:10077000004D3530300A004D3530310A4D343230BD
:100780002053310A004732380A473239004A32369C
:10079000004A32340041323956200043616E6E6F98
:1007A0007420656E746572207375626469723A2094
:1007B000004A3231004A3230004D323520500A4D65
:1007C0003234004D38330A473120452D353020462C
:1007D000313230300A4D3832004D38330A4731203B
:1007E00045353020463730300A4D383200473238F0
:1007F0000A00473238205A0A0047323820590A0086
:1008000047323820580A004132305620004D3130EE
:1008100030300A004D3130303020430A004A303544
:1008200000322E302E37004A33332000204D002076
:100830004820004137562000413656202D2D2D00EE
:10084000413656200041355620583A200041345652
:1008500020004133562000413256200041315620BD
:1008600000413056200020746F6F206C6F6E67203F
:10087000657874727573696F6E2070726576656ED7
:100880007465640A0020636F6C6420657874727507
:1008900073696F6E2070726576656E7465640A00A8
:1008A000DB0FC93F45BCDA3F8FB30240FCF0274065
:1008B00056946140FE4B9B4084A5D840E0231841EC
:1008C000346A5641E859974164DBD5416E27174297
:1008D000B4B75542CE1A9742C8AED542B5885A43EE
:1008E000D40684BFA65FA7BF7443E0BF10B11AC08F
:1008F0001C2C58C0E8F697C0B849D6C04E4E17C158
:1009000024D355C1802497C1A0B5D5C1121A17C2EE
:1009100044AE55C2781797C26CACD5C267885AC32B
:10092000000020C100000000000000000000CD43D6
:100930000000CD430000E14353657474696E677332
:100940002053746F7265640053657474696E6773C5
:100950002053746F726564202800667265736800A6
:10096000646F696E67004E6F7720004D343230201F
:100970005331205631004A3137002020506C616ECF
:100980006E657242756666657242797465733A2067
:10099000002046726565204D656D6F72793A2000C2
:1009A000436F6D70696C65643A204F637420203426
:1009B00020323032300A00204C617374205570644C
:1009C000617465643A20323032302D30392D32393D
:1009D000207C20417574686F723A20284E69636BE1
:1009E0002057656C6C732C20436869726F6E2054BD
:1009F0004D4332323039205374616E64616C6F6ED6
:100A000065290A00322E302E370A004D61726C695A
:100A10006E0020536F66747761726520526573654E
:100A2000740A00205761746368646F6720526573AD
:100A300065740A002042726F776E206F75742052C1
:100A4000657365740A002045787465726E616C2068
:100A500052657365740A00506F77657255700A00AD
:100A60006175746F25632E67004D3130303100653C
:100A700072726F722077726974696E6720746F206A
:100A800066696C650A00446F6E6520736176696EF5
:100A9000672066696C652E0A004D32390020503A95
:100AA00000656E6473746F7073206869743A200017
:100AB0001000C90210012C0140012201700118012F
:100AC000B0010E01F00104015002FA00B002F00082
:100AD0003003E600D003DC009004D2007005C800AB
:100AE000A006BE000008B400B009AA00D00BA00008
:100AF000600E960060118C000015820020197800AD
:100B0000C01D6E00A0226400B0275A00902C500037
:100B100000314600E0343C0010383200903A2800A2
:100B2000603C1E00A03D1400803E0A00203F0000F3
:100B30006563686F3A004572726F723A0042696C81
:100B4000696E656172204C6576656C696E672047D9
:100B50007269643A0A0053656E64204D3130382062
:100B6000746F20726573756D650A0053656E64203D
:100B70004D31303820746F2068656174206E6F7A53
:100B80007A6C650A00486F74656E6420746F6F201C
:100B9000636F6C640A004C6F61642046696C616D20
:100BA000656E7400496E736572742066696C616D60
:100BB000656E7420616E642073656E64204D313003
:100BC000380A007C3C3E5E2B3D3F2F5B5D3B2C2A70
:100BD000225C004265642048656174696E672E2E50
:100BE0002E005072696E7420506175736564004AFE
:100BF000313800526568656174696E672E2E2E006B
:100C00004A3038004A303600452048656174696EC4
:100C1000672E2E2E004A3136005072696E742041C4
:100C2000626F72746564004731205A353020463552
:100C300030300050726F62696E67204661696C6582
:100C400064004A3235004D3530300A4732370033C0
:100C500044205072696E7465722052656164792E09
:100C600000010210202008081020401020408002BF
:100C700001020108040201010204081020408080E2
:100C80004020100804020180040201804020100866
:100C9000040201080402010102040810204080013E
:100CA0000204081020408000002200250028002BAC
:100CB000002E003100340002010000050108010B84
:100CC0000105050505070508080808020202020AD1
:100CD0000A080804040404010101010101010103DF
:100CE00003030303030303040707070C0C0C0C0C9A
:100CF0000C0C0C0202020206060606060606060B8D
:100D00000B0B0B0B0B0B0B0253544F505045442E47
:100D100020005072696E7465722073746F70706514
:100D2000642064756520746F206572726F72732E13
:100D30002046697820746865206572726F72206140
:100D40006E6420757365204D39393920746F2072B7
:100D50006573746172742E202854656D70657261BC
:100D6000747572652069732072657365742E2053E3
:100D7000657420697420616674657220726573748D
:100D8000617274696E67290A004E6F20436865635B
:100D90006B73756D2077697468206C696E65206E61
:100DA000756D6265722C204C617374204C696E65A0
:100DB0003A2000636865636B73756D206D69736DB0
:100DC000617463682C204C617374204C696E653AC1
:100DD00020004C696E65204E756D626572206973E6
:100DE000206E6F74204C617374204C696E65204EC8
:100DF000756D6265722B312C204C617374204C69C7
:100E00006E653A20004D31313000534420726561E7
:100E100064206572726F720A002121204B494C4C8C
:100E20002063617573656420627920746F6F206D33
:100E300075636820696E6163746976652074696D95
:100E400065202D2063757272656E7420636F6D6D01
:100E5000616E643A2000486F74656E642049646C6A
:100E6000652054696D656F757400486F74656E64B4
:100E70002049646C652054696D656F75740A006261
:100E80007573793A2070617573656420666F72209E
:100E9000696E7075740A00627573793A20706175B5
:100EA00073656420666F7220757365720A006275DF
:100EB00073793A2070726F63657373696E670A00A5
:100EC0004D6564696120496E736572746564004A9A
:100ED0003031004A3030004D656469612052656DE3
:100EE0006F766564004D313030305300506F776558
:100EF00072204F7574616765004A3233004A31359C
:100F0000004D363030004A3131005072696E7465E0
:100F1000722068616C7465642E206B696C6C282982
:100F20002063616C6C6564210A004F46460A0046E6
:100F300061646520486569676874200042656420C3
:100F40004C6576656C696E6720004661696C656406
:100F500020746F20656E61626C6520426564204C70
:100F60006576656C696E670A00496E76616C6964C6
:100F7000206D6573682E0A004732372F6E20473187
:100F80002059302046353030300050726F62696E23
:100F90006720506F696E740025532025692F2569DD
:100FA0000050726F62696E67206D65736820706FA4
:100FB000696E742000202844525952554E2900472A
:100FC0003239204175746F20426564204C65766526
:100FD0006C696E67003F20284C2C522C462C42290D
:100FE000206F7574206F6620626F756E64732E0AB1
:100FF000003F2856296572626F7365206C657665BF
:101000006C20696D706C61757369626C6520283045
:101010002D34292E0A00426164205A2076616C75B5
:10102000650A004E6F2062696C696E6561722067A7
:101030007269640A003F4A206F7574206F662072DF
:10104000616E67652028302E303120746F20302E7D
:1010500033290A00204D393220580020204D617874
:101060003A200020204D696E3A2000536F667420AC
:10107000656E6473746F70733A20004732380053A2
:10108000656C6563742053442066696C65207468E0
:10109000656E20707265737320726573756D650A75
:1010A00000526573756D696E672066726F6D207092
:1010B0006F776572206F75746167652E2E2E0A003A
:1010C0004D32342053256C642054256C640047391C
:1010D000322E3920452573004731204625640047CC
:1010E00031205A25732046323030004731205825B0
:1010F0007320592573204633303030004731204566
:1011000025642046323030004D343230205325697A
:10111000205A2573004D3130362050256920532543
:1011200069004D31303920532569004D3139302067
:10113000532569004D32303020442573004731205B
:1011400046353030205A2573004732385230004738
:1011500039322E39204530205A300A47315A25730A
:10116000004D343230205330205A300020496E7602
:10117000616C696420657874727564657220002002
:101180002D20496E76616C6964206578747275648F
:101190006572206E756D62657220210A00544845A3
:1011A000524D414C2052554E4157415900546865AB
:1011B000726D616C2052756E617761790045727253
:1011C0003A204D415854454D50004D415854454DDD
:1011D0005020747269676765726564004572723A7F
:1011E000204D494E54454D50004D494E54454D50AB
:1011F0002074726967676572656400202F00204261
:10120000403A0020403A0020573A0070012C0190EB
:10121000012701B0012201C0011D01F001180110D8
:1012200002130130020E016002090190020401C0A4
:1012300002FF000003FA004003F5008003F000D035
:1012400003EB002004E6007004E100E004DC004051
:1012500005D700C005D2004006CD00D006C80080EA
:1012600007C3003008BE00F008B900C009B400B0E0
:101270000AAF00B00BAA00D00CA500000EA00050D1
:101280000F9B00C01096005012910000148C00C0FB
:10129000158700B0178200B0197D00D01B780000C0
:1012A0001E730040206E0090226900F0246400400C
:1012B000275F0090295A00E02B5500102E50002087
:1012C000304B0010324600E033410090353C0010B6
:1012D00037370070383200A0392D00B03A2800A00E
:1012E0003B2300603C1E00103D1900903D1400108F
:1012F0003E0F00703E0A00C03E0500003F00004067
:101300003FFBFF803FF6FFC03FF1FF4572726F72F7
:101310002077726974696E6720746F20454550525A
:101320004F4D210A00363726032B3C3D382A2E30FC
:101330003E1224221E021A1C180A2C432D09072CC7
:101340002D44000100008C4200008C4200008040CF
:101350000202040000A0400000A040000000400085
:1013600000D2430000CD430000E143FFFFFF57617F
:10137000726E696E673A20486F6D696E67204275BC
:101380006D702044697669736F72203C20310A00C9
:101390003F5A206F7574206F662072616E676520FA
:1013A00028003F59206F7574206F662072616E6748
:1013B0006520282D0020746F20003F58206F757421
:1013C000206F662072616E676520282D0050726F55
:1013D0006265204F6666736574205800656E71758E
:1013E000657565696E672022006F6B0052657365D5
:1013F0006E643A2000256979202569642025696892
:101400002025696D202569730042656420436F6F54
:101410006C696E672E2E2E0023646566696E6520EA
:1014200044454641554C545F004B6420004B6920B5
:10143000004B702000504944204175746F74756EE4
:10144000652066696E697368656421205075742033
:10145000746865206C617374204B702C204B69207C
:10146000616E64204B6420636F6E7374616E74737D
:101470002066726F6D2062656C6F7720696E746F85
:1014800020436F6E66696775726174696F6E2E684E
:101490000A00504944204175746F74756E6520666A
:1014A00061696C6564212074696D656F75740A00EB
:1014B0000A20436C617373696320504944200A0019
:1014C000204B643A2000204B693A2000204B703AB0
:1014D00020000A204E6F206F76657273686F6F74FC
:1014E0000A002054753A2000204B753A2000206DE8
:1014F00061783A2000206D696E3A200020643A201D
:101500000020626961733A2000504944204175749B
:101510006F74756E652073746172740A005049446B
:10152000204175746F74756E65206661696C6564C1
:10153000212054656D706572617475726520746FD9
:101540006F20686967680A00504944204175746FCC
:1015500074756E6500504944204175746F74756EE2
:1015600065206661696C656421204261642065784C
:10157000747275646572206E756D6265720A0024FE
:10158000F4D43050C38E20C2A24017828B70111247
:101590007A910D816CD90AA861E108C75866076184
:1015A0005143061E4B5D05C145A7041A41110409AC
:1015B0003D9803713931034036DB0265339102D423
:1015C000305402802E1D02632CEE01752AC501B035
:1015D00028A001102781018F2564012B244B01E0F5
:1015E000223401AC211F018D200D01801FFC0084DD
:1015F0001EED00971DDF00B81CD200E61BC60020C0
:101600001BBC00641AB200B219A8000A19A0006A33
:10161000189900D117910040178B00B5168400313E
:10162000167E00B31579003A157300C7146F005881
:10163000146A00EE1366008813630025135E00C76A
:10164000125B006C12570015125400C1115100704A
:10165000114F0021114B00D61049008D1047004654
:1016600010440002104200C00F4000800F3E0042B4
:101670000F3C00060F3B00CB0E3800930E37005C8A
:101680000E3500270E3400F30D3200C10D310090ED
:101690000D3000600D2E00320D2D00050D2C00D9EF
:1016A0000C2B00AE0C2900850C29005C0C270035A2
:1016B0000C27000E0C2600E80B2400C40B2400A00D
:1016C0000B23007D0B23005A0B2100390B2100183E
:1016D0000B2000F80A1F00D90A1E00BB0A1E009D3D
:1016E0000A1D00800A1D00630A1C00470A1B002C0B
:1016F0000A1B00110A1A00F7091A00DD091900C4B3
:10170000091900AB091900920917007B0918006339
:101710000917004C09160036091600200916000AA0
:10172000091500F5081500E0081400CC081400B8ED
:10173000081400A4081400900813007D0812006B20
:10174000081300580812004608120034081100233C
:101750000811001208110001081100F0071000E044
:10176000071000D0071000C0071000B0070F00A13D
:1017700007100091070E0083070F0074070F006524
:10178000070E0057070E0049070E003B070D002EFD
:10179000070E0020070D0013070D0006070D00F9C6
:1017A000060C00ED060D00E0060C00D4060C00C887
:1017B000060C00BC060C00B0060C00A4060B009939
:1017C000060C008D060B0082060B0077060B006CE2
:1017D000060B0061060A0057060B004C060A004281
:1017E000060A0038060A002E060A0024060A001A15
:1017F000060A001006090007060A00FD050900F4A4
:10180000050900EB050900E2050900D9050900D02A
:10181000050900C7050900BE050900B5050800ADAA
:10182000050800A50509009C050800940508008C22
:10183000050800840508007C050800740508006C94
:10184000050700650508005D050700560508004E00
:101850000507004705070040050800380507003167
:101860000507002A050700230507001C05060016CA
:101870000507000F0507000805060002050700FB25
:10188000040600F5040700EE040600E8040600E282
:10189000040700DB040600D5040600CF040600C9D7
:1018A000040600C3040600BD040600B7040600B128
:1018B000040500AC040600A6040600A00405009B75
:1018C00004060095040500900406008A04050085BE
:1018D000040500800406007A040500750405007004
:1018E0000405006B04050066040500610405005C46
:1018F00004050057040500520405004D0405004886
:10190000040500430405003E0404003A04050035C4
:10191000040500300404002C0405002704040023FF
:101920000405001E0404001A040400160405001136
:101930000404000D0404000904050004040400006C
:10194000040400FC030400F8030400F4030400F0A2
:10195000030400EC030400E8030400E4030400E0D3
:10196000030400DC030400D8030400D4030400D003
:10197000030400CC030400C8030300C503030024D0
:10198000F404D9201BC40C5C0E9804C4095F0265E2
:10199000077101F405F900FB04B30048048700C196
:1019A0000369005803550003034500BE023A008452
:1019B00002310053022A002902250004022000E41B
:1019C000011C00C8011900AF011700980114008420
:1019D000011300710110006101100051010E00435C
:1019E000010D0036010B002B010B0020010B00152F
:1019F0000109000C01090003010800FB000800F3C5
:101A0000000800EB000700E4000600DE000600D836
:101A1000000600D2000600CC000500C7000500C289
:101A2000000500BD000400B9000400B5000400B1C9
:101A3000000400AD000400A9000400A5000300A2FA
:101A40000003009F0004009B000300980003009522
:101A500000020093000300900003008D0002008B41
:101A60000003008800020086000200840003008159
:101A70000002007F0002007D0002007B000200796E
:101A8000000200770001007600020074000200727C
:101A9000000100710002006F0002006D0001006C87
:101AA0000002006A00010069000200670001006690
:101AB0000001006500010064000200620001006195
:101AC000000100600001005F0002005D0001005C99
:101AD0000001005B0001005A00010059000100589C
:101AE000000100570001005600010055000100549C
:101AF000000100530000005300010052000100519A
:101B0000000100500001004F0001004E0000004E97
:101B10000001004D0001004C0001004B0000004B93
:101B20000001004A0001004900010048000000488F
:101B3000000100470001004600000046000100458A
:101B40000000004500010044000100430000004384
:101B5000000100420000004200010041000000417D
:101B6000000100400001003F0000003F0001003E76
:101B70000000003E0001003D0000003D0001003C6F
:101B80000000003C0000003C0001003B0000003B66
:101B90000001003A0000003A00010039000000395D
:101BA0000001003800000038000000380001003754
:101BB000000000370001003600000036000000364B
:101BC0000001003500000035000000350001003440
:101BD0000000003400000034000100330000003336
:101BE000000000330001003200000032000000322B
:101BF0000001003100000031000000310001003020
:101C000000000030000000300001002F0000002F15
:101C10000000002F0000002F0001002E0000002E09
:101C20000000002E0001002D0000002D0000002DFE
:101C30000000002D0001002C0000002C0000002CF2
:101C40000000002C0001002B0000002B0000002BE6
:101C50000000002B0001002A0000002A0000002ADA
:101C60000000002A000100290000002900000029CE
:101C700000000029000000290001002800000028C1
:101C800000000028000000280000002800010027B4
:101C900000000027000000270000002700000027A8
:101CA000000100260000002600000026000000269B
:101CB000000000260001002500000025000000258E
:101CC0000000002500000025000000250001002480
:101CD0000000002400000024000000240000002474
:101CE0000001002300000023000000230000002367
:101CF0000000002300000023000000230001002258
:101D0000000000220000002200000022000000224B
:101D1000000000220001002100000021000000213D
:101D2000000000210000002100000021000000212F
:101D30000001002000000020000000200000002022
:101D40000000002000000020000000200000002013
:101D50000001001F0000001F0000001F0000001F06
:101D60000000001F0000001F0000001F0001001EF7
:101D70000000001E0000001E0000001E000000C247
:101D80003100001C260000F4190000D80F0000EB01
:101D9000080000C00400007502000040010000209F
:101DA00053697A653A200043616E6E6F74206F70DC
:101DB000656E207375626469722000534420496E19
:101DC0006974204661696C00534420636172642029
:101DD0006F6B0A006F70656E526F6F742066616979
:101DE0006C65640A00766F6C756D652E696E69743A
:101DF000206661696C65640A004E6F20534420635D
:101E00006172640A004D32332025730046696C65A7
:101E10002073656C65637465640A0046696C6520AF
:101E20006F70656E65643A2000454E4420535542FC
:101E3000524F5554494E450A002220706F730022BC
:101E400020706172656E743A2200535542524F55AC
:101E500054494E452043414C4C207461726765746F
:101E60003A220053756263616C6C204F766572662E
:101E70006C6F77004578636565646564206D617893
:101E800020535542524F5554494E45206465707455
:101E9000683A310A0044656C6574696F6E2066614A
:101EA000696C65642C2046696C653A200046696C53
:101EB000652064656C657465643A006F70656E20BA
:101EC0006661696C65642C2046696C653A20005730
:101ED000726974696E6720746F2066696C653A2058
:101EE0000042656420583A200046696C616D656E59
:101EF000742050757267696E672E2E2E00526568C9
:101F00006561742066696E69736865642E00486552
:101F1000617465722054696D656F7574004E6F7AD7
:101F20007A6C65205061726B65640050726F6269F3
:101F30006E67204661696C65640A00486F6D6520B4
:101F400025732573257320466972737400220A0075
:101F5000556E6B6E6F776E20636F6D6D616E643A58
:101F600020220020453A00205A3A0020593A000029
:101F7000002100240027002A002D0030003300013A
:101F8000010000040107010A0100002000230026CF
:101F90000029002C002F0032000001000003010680
:101FA00001090100000A0B02090C0D0E08070304C9
:101FB0000100000000000000000000000000000020
:101FC00000000000000000000000000000000012FF
:101FD00011100000000000000000000000000000E0
:101FE0000000000000000000002062797465733B6F
:101FF0002063726320004E6F20454550524F4D2E96
:102000000A00454550524F4D206461746173697AEE
:1020100065206572726F722E0A00454550524F4D11
:102020002056657273696F6E204572726F7200453B
:102030004550524F4D20496E646578204572726F4D
:102040007200454550524F4D204352432045727215
:102050006F72002073746F726564207365747469A5
:102060006E677320726574726965766564202800F6
:10207000202863616C63756C6174656429210A00B2
:1020800020213D2000454550524F4D2043524320D2
:102090006D69736D61746368202D202873746F728D
:1020A0006564292000496E6465783A2000204D61FE
:1020B000726C696E3D563831290A00454550524FC1
:1020C0004D2076657273696F6E206D69736D6174F2
:1020D00063682028454550524F4D3D00486F6D695B
:1020E0006E67204661696C6564006F70656E0054B0
:1020F00052494747455245440066696C616D656EBB
:1021000074007A5F70726F6265007A325F6D696E1B
:10211000007A5F6D696E00795F6D696E00785F6D42
:10212000696E005265706F7274696E6720656E64C7
:1021300073746F70207374617475730A00436170F7
:102140003A004348414D4245525F54454D50455237
:10215000415455524500424142595354455050490B
:102160004E470041524353004D4F54494F4E5F4D2F
:102170004F44455300544845524D414C5F50524FD7
:1021800054454354494F4E004C4F4E475F46494CCF
:10219000454E414D45004155544F5245504F5254C4
:1021A0005F53445F53544154555300534443415289
:1021B000440050524F4D50545F535550504F52545D
:1021C00000454D455247454E43595F504152534596
:1021D0005200434153455F4C494748545F4252497E
:1021E0004748544E45535300544F47474C455F4C66
:1021F000494748545300534F4654574152455F5046
:102200004F574552004255494C445F504552434553
:102210004E54004C4556454C494E475F444154414D
:10222000005A5F50524F42450052554E4F55540090
:102230004155544F4C4556454C005052494E545F01
:102240004A4F420050524F47524553530041555454
:102250004F5245504F52545F54454D5000564F4CCD
:10226000554D455452494300454550524F4D00424B
:10227000494E4152595F46494C455F5452414E5375
:102280004645520053455249414C5F584F4E5F58A6
:102290004F4646004649524D574152455F4E414DCB
:1022A000453A4D61726C696E20322E302E372028EF
:1022B0004F637420203420323032302031353A31AF
:1022C000353A30382920534F555243455F434F44E8
:1022D000455F55524C3A68747470733A2F2F676992
:1022E000746875622E636F6D2F4D61726C696E46F6
:1022F00069726D776172652F4D61726C696E2050E5
:10230000524F544F434F4C5F56455253494F4E3AEC
:10231000312E30204D414348494E455F5459504578
:102320003A3344205072696E746572204558545295
:10233000554445525F434F554E543A312055554907
:10234000443A63656465326132662D343161322D01
:10235000343734382D396231322D633535633632B6
:102360006633363766660A0047322F47332062618C
:102370006420706172616D65746572730A00204338
:102380006F756E7420583A004265640045310062F2
:102390006564002C2073797374656D2073746F709D
:1023A00070656421204865617465725F49443A2014
:1023B0000048656174696E67204661696C656400F8
:1023C00048656174696E67206661696C6564004D7B
:1023D0003131322053687574646F776E000020527B
:1023E0000048617264636F6465642044656661756A
:1023F0006C742053657474696E6773204C6F6164EC
:1024000065640A003B200020204D36303320002038
:10241000204D34313220530046696C616D656E7415
:102420002072756E6F75742073656E736F723A00EB
:1024300020550046696C616D656E74206C6F616437
:102440002F756E6C6F6164206C656E677468733A8B
:102450000020204D393030204B004C696E65617290
:1024600020416476616E63653A0020204D38353135
:102470002058005A2D50726F6265204F6666736552
:10248000740020204D343133205300506F77657233
:102490002D4C6F7373205265636F766572793A00C5
:1024A00020204D33303420500020204D3330312057
:1024B00050005049442073657474696E67733A0024
:1024C00020204D36363600456E6473746F7020617F
:1024D000646A7573746D656E743A002020473239F2
:1024E000205720490020204D3432302053004175C0
:1024F000746F20426564204C6576656C696E673A3E
:102500000020204D323036205800486F6D65206F16
:1025100066667365743A00204A0020204D323035DB
:10252000204200416476616E6365643A20423C6DEE
:10253000696E5F7365676D656E745F74696D655F05
:1025400075733E20533C6D696E5F666565647261AC
:1025500074653E20543C6D696E5F74726176656C83
:102560005F66656564726174653E204A3C6A756E9B
:10257000635F6465763E0020540020204D32303485
:10258000205000416363656C65726174696F6E20F1
:1025900028756E6974732F7332293A20503C70721B
:1025A000696E745F616363656C3E20523C72657452
:1025B000726163745F616363656C3E20543C747246
:1025C0006176656C5F616363656C3E0020204D320F
:1025D00030312058004D6178696D756D204163631D
:1025E000656C65726174696F6E2028756E697473AD
:1025F0002F7332293A00204500205A00205900202C
:10260000204D3230332058004D6178696D756D2052
:102610006665656472617465732028756E6974738C
:102620002F73293A0053746570732070657220759A
:102630006E69743A0020440020204D32303020531F
:10264000002044697361626C65640A0046696C61CC
:102650006D656E742073657474696E67733A0020DB
:10266000286D6D29002020473231202020203B207A
:10267000556E69747320696E206D6D0000004843CB
:10268000000048430000C8410000C8410000A042CB
:102690000000C8420000C8430080CA43B80B0000D5
:1026A000B80B000064000000102700005072696E33
:1026B00074696E672E2E2E004A313400454E440058
:1026C000464E200057E439E411241FBECFEFD1E27B
:1026D000DEBFCDBF00E00CBF13E0A0E0B2E0E8EB4E
:1026E000F9EE01E00BBF02C007900D92A03BB107CD
:1026F000D9F727E1A0EBB3E001C01D92AE30B207DD
:10270000E1F713E1C3E6D3E100E006C02197010938
:10271000802FFE010E9427F1C236D10780E0080712
:10272000A9F70E94CEDE0C94CAF40C9400002F92FC
:102730003F924F925F926F927F928F929F92AF9251
:10274000BF92CF92DF92EF92FF920F931F93CF939E
:10275000DF93CDB7DEB7E5970FB6F894DEBF0FBEB7
:10276000CDBF8CAB2091B90328AB81E08093B90336
:10277000809126168D3409F440C3843511F40C94ED
:102780006F25873411F00C949425209124163091F4
:1027900025162B31310509F48DC09CF42430310508
:1027A00034F422303105CCF537FF2BC022C324305E
:1027B000310509F440C02531310511F40C949625FA
:1027C00018C32A32310509F4EDC15CF42D3131050D
:1027D00009F49AC00CF488C02E31310509F4B2C056
:1027E00008C32B35310509F427C12C35310509F40F
:1027F00028C12A35310509F0FCC21092760F0C94DD
:1028000096258091190D813011F00C9496250E9427
:10281000317C0E94BF970C9496258091190D8130D0
:1028200011F00C9496252230310509F080E00E94C9
:10283000BDCA0C94962580E50E948676882329F0EF
:102840000E9444726B017C0103C0C12CD12C760123
:1028500083E50E948676882361F00E94387420E028
:1028600030E04AE754E40E94A8EA0E94B5F26B0106
:102870007C010E94C39180919115811105C060E097
:102880008BE594E00E9414C80E948FBDC60ED71E2F
:10289000E81EF91E0E948FBDDC01CB018C199D0939
:1028A000AE09BF09B7FD02C00C94962580E00E94D6
:1028B000A46BF0CF0E9401B981110C9496258CE095
:1028C000E1E8F2E0DE01119601900D928A95E1F7C0
:1028D00060E070E080E50E947182BE016F5F7F4F13
:1028E0000E94CBC60C9496258091CB0387708730CD
:1028F00011F00C949F2560E08FE40E94B276811164
:102900000C9496250C949F250E948FBD6093901384
:102910007093911380939213909393130E9401B933
:1029200081110C94962580917B0F882311F40C94CF
:10293000E02660E08FE40E94B27681110C94962527
:102940000C94E0262091BE033091BF034091C00358
:102950005091C10360913B0270913C0280913D0215
:1029600090913E020E9442F1AB01BC0188E50E94B9
:10297000E89B69837A838B839C832091C203309187
:10298000C3034091C4035091C50360913F0270910D
:10299000400280914102909142020E9442F1AB01BB
:1029A000BC0189E50E94E89B6D837E838F839887B5
:1029B000BE016B5F7F4FCE0101960E945472882347
:1029C00011F40C94962580E00E94E0510E94979AA1
:1029D00061E085E40E94B27621E0482FBE016B5F82
:1029E0007F4FCE0101960E94D4B96B017C019B01FF
:1029F000AC010E9434F4811119C049815A816B8164
:102A00007C8181EE9EE10E94BD554D815E816F818A
:102A1000788582E397E00E94BD55B701A6018DE25B
:102A200097E00E94BD558AE00E94B68F0E947E9A70
:102A30000E9416C50C9496258FE08093760F0C9417
:102A4000962580912316882349F1893009F0A6C084
:102A50008DE8A82E82E0B82E9BE3E92E92E0F92EB5
:102A6000D12C00E010E0D5018D915D010E948676A9
:102A7000882369F00E943874F70160837183828330
:102A80009383133011F401E002C0DD24D3941F5F5F
:102A9000F4E0EF0EF11C143031F775C0BDE82B2EB9
:102AA000B2E03B2E1AE9E12E1FE0F12E2BE332E0DB
:102AB00039A728A70DEDC02E05E1D02E00E010E0CB
:102AC000D1018D911D010E948676882309F44BC0A7
:102AD0000E9438742B013C01133049F0F60120812B
:102AE0003181428153810E9441F12B013C01A8A513
:102AF000B9A52D913D914D915C91C301B2010E9408
:102B000041F14B015C012DEB37E346E855EB0E94A8
:102B1000A2F387FD0AC02DEB37E346E855E3C50174
:102B2000B4010E9442EA1816F4F4133051F44092B2
:102B30004702509248026092490270924A0201E0B4
:102B400012C0A5019401F701608171818281938196
:102B50000E9442F1D7016D937D938D939C931397BF
:102B6000812F0E94B0951F5FB4E0EB0EF11CE8A529
:102B7000F9A53496F9A7E8A7F4E0CF0ED11C1430DC
:102B800009F09ECF05C0DD2019F00E9414C506C0D3
:102B9000002321F087E492E00E94BC4C0E9416C5FD
:102BA0000C9496258091190D813011F00C94962586
:102BB00089E40E948676E82E882321F00E9404741E
:102BC000062F01C000E08AE40E948676F82E882352
:102BD00021F00E940474162F01C010E0EE2011F0C5
:102BE000053020F4FF2041F0153030F084E694E009
:102BF0000E94F9540C94962580E1EBE3F2E0A3E205
:102C0000B4E101900D928A95E1F7EE2019F1602F61
:102C1000000F770B880B990B0E9449EA20917A16D6
:102C200030917B1640917C1650917D160E94A8EA47
:102C30002091E9153091EA154091EB155091EC1572
:102C40000E9442F1609323147093241480932514FE
:102C500090932614FF2019F1612F110F770B880B29
:102C6000990B0E9449EA20917E1630917F1640917F
:102C70008016509181160E94A8EA2091ED1530919E
:102C8000EE154091EF155091F0150E9442F16093BE
:102C90002714709328148093291490932A1460E0C9
:102CA00080E50E94B2768823C1F1EE20D1F0209118
:102CB000BE033091BF034091C0035091C1036091A6
:102CC00023147091241480912514909126140E944D
:102CD00041F16093231470932414809325149093EE
:102CE0002614FF20D1F02091C2033091C3034091FC
:102CF000C4035091C50360912714709128148091EA
:102D0000291490912A140E9441F160932714709322
:102D100028148093291490932A1440E050E0BA01BB
:102D200086E40E94E89B6B017C0120E030E0A90171
:102D30000E94A2F318165CF420E030E040E752E471
:102D4000C701B6010E943CF26B017C0103C0C12C9B
:102D5000D12C76018090370290903802A0903902F1
:102D6000B0903A0220E030E0A901C701B6010E940C
:102D700042EA882341F0C0923702D0923802E092B2
:102D80003902F0923A02009105021091060284E69F
:102D900090E09093060280930502C0901102D090BB
:102DA0001202E0901302F090140280E090E0A0E89C
:102DB000BFE38093110290931202A0931302B09389
:102DC00014020E94BF978092370290923802A0921C
:102DD0003902B0923A021093060200930502C092A3
:102DE0001102D0921202E0921302F09214020C949B
:102DF00096250E9498B80C9496250091241610915F
:102E000025160937110509F4A7C70CF035C10E3492
:102E1000110509F43CC40CF0A1C00A31110509F4F4
:102E20005BC3DCF50431110509F4ACC28CF401314B
:102E3000110509F493C234F40230110508F45AC2A2
:102E40000C946C250231110509F448C60C946C25CC
:102E50000731110509F4CBC29CF40531110509F4C1
:102E6000C2C20631110511F00C946C250E94C2B04B
:102E700080912511877F8062809325110C9496257F
:102E80000831110509F4CAC20931110511F00C9479
:102E90006C250E94A8810C9496250032110509F436
:102EA00093C30CF03FC00D31110509F476C38CF4C7
:102EB0000B31110509F41EC30C31110511F00C94EE
:102EC0006C2580912116909122160E94C2B40C9418
:102ED00096250E31110509F467C30F31110511F064
:102EE0000C946C250E946CC66C8F7D8F8E8F9F8F8B
:102EF000BE016F5F7F4FCE014C960E947EA360E0C3
:102F0000CE0101960E9453C80E94F255BE016F5F28
:102F10007F4F8FEF94E00E94DB558AE00E94B68FCE
:102F20000C9496250B34110509F4A3C354F40A320A
:102F3000110509F472C30934110509F487C30C940F
:102F40006C250C34110509F498C30D34110511F0EA
:102F50000C946C250E94504A0C9496250C36110551
:102F600011F40C9496250CF047C00535110509F4B1
:102F7000EEC54CF50235110509F4A0C5D4F40135B0
:102F8000110511F00C946C250E94E78A0E94504AAA
:102F90000E94D4910E94D48C68EE73E080E090E0AF
:102FA0000E94495460E083E995E00E9414C80C94A3
:102FB00096250335110509F489C50435110509F471
:102FC0008DC50C946C250936110509F464C454F4BC
:102FD0000C35110509F4DFC50836110509F4E9C3FC
:102FE0000C946C250A36110509F469C40B361105D9
:102FF00009F48FC40C946C250237110509F455C6E9
:10300000D4F40F36110509F4A6C454F40D36110595
:1030100009F4EFC30E36110509F48AC40C946C252B
:103020000037110511F40C9496250137110509F4A8
:10303000D7C40C946C250637110509F450C654F416
:103040000337110509F438C60537110509F437C6E9
:103050000C946C250737110509F47BC60837110558
:1030600011F00C946C2581E08093520B8093510BEE
:103070000E9435C60C949625023921E0120711F4FE
:103080000C9459220CF08EC0033D110509F49FC722
:10309000F4F5083C110509F466C6DCF40C3811059A
:1030A00009F4C3C44CF40D37110511F00C946C25D0
:1030B0000E94A8810C9496250B39110509F4D6C4F9
:1030C0000E3B110511F00C946C250E94A1A10C94EB
:1030D00096250C3C110509F429C754F4093C110547
:1030E00009F488C60B3C110509F401C70C946C2542
:1030F0000D3C110509F44EC70E3C110511F00C945E
:103100006C2556EAE52E5FE0F52E10E046C70D323D
:1031100081E0180711F40C941F21E4F4023E11051C
:1031200009F4D5C754F40C3D110509F453C70D3DFE
:10313000110509F476C70C946C250232A1E01A0738
:1031400011F40C94B3200C32114011F40C940A21A8
:103150000C946C250033E1E01E0711F40C949F21C0
:103160007CF40E3221E0120711F40C9412220F327B
:10317000114011F00C946C250E94FF9B0C94962535
:10318000003981E0180711F40C94562201391140DE
:1031900011F00C946C2581E00E946F490E9416C5C5
:1031A0000C9496250C30A2E01A0711F40C945B23C2
:1031B0000CF04BC00C3AE1E01E0711F40C94DD2238
:1031C0000CF50D3921E0120711F40C9431256CF443
:1031D0000A3981E0180711F40C9496250C39114036
:1031E00011F40C945F220C946C25043AA1E01A07A8
:1031F00011F40C946522053A114011F40C946822E4
:103200000C946C25063FE1E01E0711F40C943E235C
:103210007CF4043F21E0120711F40C943B23053F9A
:10322000114011F00C946C250E941FD80C94962527
:10323000073F81E0180711F40C944123083F114027
:1032400011F40C944A230C946C250335A3E01A075F
:1032500011F40C94B7240CF50A39E2E01E0711F4BE
:103260000C94E4236CF4083522E0120711F40C945A
:1032700068230B35124011F40C946B230C946C25CD
:103280000D3B82E0180711F40C94FD230E3B124015
:1032900011F40C9400240C946C25073EA3E01A074B
:1032A00011F40C942325CCF40438E3E01E0711F448
:1032B0000C94BA24003A134011F00C946C25209120
:1032C000211630912216909125119260909325112C
:1032D000C9010E94C2B40C949625083E23E012074F
:1032E00011F40C944825093E134011F40C944B251D
:1032F0000C946C2580E50E948676882329F00E9434
:1033000044726B017C0103C0C12CD12C760183E592
:103310000E948676882361F00E94387420E030E0B5
:103320004AE754E40E94A8EA0E94B5F26B017C01CE
:103330000E94C3918091211690912216009719F056
:103340000E94A6B804C08DE794E00E9485C840E0C2
:10335000C701B6010E94888C0C94962580913D147B
:1033600084FF02C00C94E32680913F1487FF02C0C3
:103370000C94E32680914014837011F00C94E326A2
:103380000C9400278091251183FF25C088EA94E0E2
:103390000E94F9548091251183FF17C081E491E1C7
:1033A0000E942A608BE1E1E4F1E1DE0111960190D7
:1033B0000D928A95E1F760E070E0CE0101960E94DF
:1033C000E7B5CE0101960E94C17B89E994E00E9495
:1033D000F9540C9496250E94F25589EB94E00E94D2
:1033E000F9540C9496250E9477B10C949625E0919F
:1033F0002116F09122168081882329F0803209F469
:1034000010823196F8CF60E08091211690912216BB
:103410000E940CB5109275040C94962583E50E94C9
:103420008676882321F00E9404740E945DA484E5BE
:103430000E9486768823A9F00E9404746B017C01A7
:103440000E94A0C6C092240BD092250BE092260BBE
:10345000F092270BCD28CE28CF2819F081E0809359
:10346000901680918F168823F9F080E090E0A8E410
:10347000B2E488A399A3AAA3BBA31C8E1D8E1E8EA3
:103480001F8E19821A821B821C8200E010E020E04D
:10349000AE01405E5F4FBE01645E7F4FCE0101967C
:1034A0000E94B4580C9496250E94C68C882381F003
:1034B0000E94D3B00E94E14982EF9FE00E9478B061
:1034C000109241141092421410924314109244141A
:1034D0000E944BDD0C9496258091251183FD02C03E
:1034E0000C94962583E50E94867681110C940F2713
:1034F0000C94962583E40E946B74882319F18DEC5B
:1035000094E00E94F95480918812882391F0BE01C2
:103510006F5F7F4F85E892E10E94F65F8E010F5F3B
:103520001F4FD8018D918D01882339F00E94B68FED
:10353000F8CF83EC94E00E94F9548AE00E94B68FA1
:103540000C9496258091251182FF21C08CED94E08A
:103550000E94F954609121117091221180912311E0
:10356000909124114AE00E94BD8F8FE20E94B68F95
:1035700060911D1170911E1180911F119091201169
:103580004AE00E94BD8F0E94BB900C9496258EEE5F
:1035900094E00E94F9540C949625809125118E7F19
:1035A000809325110C9496258091251183FD02C0EE
:1035B0000C9496250E947EB8809121169091221637
:1035C0000E942BB40C9496258091251182FD0E94B7
:1035D000C3918091251183FD02C00C94962560E073
:1035E00080E50E94B276182F682F80912116909165
:1035F00022160E940CB583E50E948676882321F06E
:103600000E9404740E945DA40E94D3B011110C9416
:1036100096250E94E1490C9496256DE070E080E5C6
:103620000E9493768C0197FF02C00C949625E82E99
:1036300060E089E40E94B27681110C941427802FF7
:103640000E9434E5811160C50C94142780E50E9426
:103650006B74882311F40C9496250E94147490E0E6
:103660008536910510F084E690E0809375040C9403
:1036700096250E94E1490C94962580919016813000
:1036800011F00C9496250E9452C60C94962560E089
:1036900070E083E50E9493768E34910531F40E94A8
:1036A000C34A0E944BDD0C94962584E795E00E9466
:1036B000F9546091410B7091420B8BE695E00E94AA
:1036C000B0556091430B7091440B8EE595E00E94DC
:1036D000B0556091410B7091420B8091430B9091DA
:1036E000440B681B790B80919016815021E030E0EB
:1036F000823010F020E030E0621B730B83E595E030
:103700000E94B0558AE00E94B68F84E795E00E943F
:10371000F9548091450B9091460BA091470BB091C5
:10372000480B8C8F9D8FAE8FBF8FBE016F5F7F4F19
:10373000CE014C960E947EA3BE016F5F7F4F86E450
:1037400095E00E94DB558091490B90914A0BA09126
:103750004B0BB0914C0B8C8F9D8FAE8FBF8FBE01EA
:103760006F5F7F4FCE014C960E947EA3BE016F5FBC
:103770007F4F86E395E00E94DB5520E030E04AE78A
:1037800054E460914D0B70914E0B80914F0B9091D2
:10379000500B0E943CF2AB01BC018EE195E00E940F
:1037A000BD558DE60E94B68F8AE00E94B68F0C94BC
:1037B00096258091750F83FF02C00C9496250E9478
:1037C0000E7D87FF02C00C94962583E50E948676C5
:1037D000882359F00E9438740E94AEF2CB010E94F7
:1037E000A68561E080E00E94CA890E948FDE0C9469
:1037F00096258091750F83FF02C00C9496250E9438
:103800000E7DF82E87FF02C00C94962583E50E945A
:103810008676182F811107C082E50E948676811175
:1038200002C000E02CC00E9438740E94AEF2CB01AE
:103830000E94A68561E081E00E94CA8960917A10A9
:1038400070917B10072E000C880B990B0E9449EA9F
:103850004B015C014090761050907710609078108A
:1038600070907910A30192010E94A2F3181614F42B
:103870000C946B27112311F40C94512701E00E9442
:103880008FDE002311F40C949625612F8F2D0E945A
:1038900028860C9496250E940E7D182F87FD0AC05D
:1038A00089EE93E10E94F954812F0E94B6858AE047
:1038B0000E94B68FF8A9F093B9030C94872860E0B2
:1038C00080E50E94A676F82E21E0281710F40C94CB
:1038D000962581E40E946B74882321F060917C0F0F
:1038E000062F02C00FEF10E083E50E948676882342
:1038F00049F00E9404748B016F3F710519F010F0BC
:103900000FEF10E0EF2DF0E0E458F04F00830C943F
:10391000962560E080E50E94A676823010F00C9437
:103920009625E82FF0E0E458F04F10820C9496258D
:103930008EE40E948676882311F40C9496250E94CA
:1039400004746093C9147093CA148093CB14909339
:10395000CC140C94962583E50E946B74882331F077
:1039600060E083E50E94A6768093750F0E94F25571
:1039700085E895E00E94F9548091750F882369F1DC
:10398000A7E1EA2EA7E0FA2E00E010E020E0809107
:10399000750F90E0A0E0B0E0002E04C0B695A795AA
:1039A000979587950A94D2F780FF0EC0DD24D394B3
:1039B000D20E222319F08CE20E94B68FF701859176
:1039C00094910E94F9542D2D0F5F1F4F32E0E30EAA
:1039D000F11C05301105D9F6B0CD81E895E0ABCDED
:1039E00083E50E948676882381F00E941474282F34
:1039F00030E02D33310524F4809300020C94962599
:103A00008CE3809300020C9496250E94F25540911D
:103A1000000250E060E070E08CE895E00E949F5565
:103A20008AE00E94B68F0C9496258091750F83FFD3
:103A300002C00C94962583E50E948676882311F4B3
:103A40000C9496250E9438740E94AEF26C38710571
:103A50000CF48B011093870F0093860F0E94AF8A9E
:103A600061E080E00E94CA890C94962583E50E945B
:103A70008676882311F40C9496250E941474182FCE
:103A800090E0CD970CF01CE31093B4030E948FBD1F
:103A90006B017C01212F30E0A8EEB3E00E94E4F03E
:103AA000C60ED71EE81EF91EC092B003D092B10315
:103AB000E092B203F092B3030C9496258091760FB6
:103AC0008F7D80618093760F0C9496258091760F80
:103AD0008F7E80628093760F0C94962583E50E94FA
:103AE00086768823F1F00E948FBD609390137093C7
:103AF000911380939213909393130E94387420E053
:103B000030E04AE754E40E94A8EA0E94B5F26093CC
:103B100001027093020280930302909304020C94BA
:103B2000962580913D1484FF02C00C946E278091ED
:103B30003F1487FF02C00C946E278091401483705D
:103B400011F00C946E270E94D4910C94962583E575
:103B50000E946B74882311F40C9496250E948FBDEB
:103B60006093901370939113809392139093931397
:103B70000E94387420E030E04AE754E40E94A8EA4A
:103B80000E94B5F26093B5037093B6038093B703B8
:103B90009093B803CBC70E940E7D87FDC7C7909155
:103BA0003D1494FD04C090913F1497FF0AC0EDE8C6
:103BB000CE2EE2E0DE2EFEEAEF2EFAE0FF2E10E03F
:103BC00009C090914014937091F7682F81E00E9492
:103BD0007383ACC7D6018D916D010E9486768823D0
:103BE00009F459C0133009F04FC00E9438744B01DA
:103BF0005C0120E030E040EA51E40E9442EA87FFA5
:103C00003AC0A50194016091CE0A7091CF0A8091CB
:103C1000D00A9091D10A0E943CF22B013C019B01F9
:103C2000AC016091DE0A7091DF0A8091E00A909108
:103C3000E10A0E94A8EA6093DE0A7093DF0A80938B
:103C4000E00A9093E10A60911C0570911D05809136
:103C50001E0590911F050E9447EAA30192010E9450
:103C6000A8EA0E94B5F260931C0570931D0580932D
:103C70001E0590931F058092CE0A9092CF0AA092C3
:103C8000D00AB092D10A07C00E943874F701648B41
:103C9000758B868B978B1F5FF4E0EF0EF11C143051
:103CA00009F098CF0E949C4B41C70E949CB787EEB9
:103CB00090E10E942BD63AC70E94E1CF37C780918E
:103CC000211690912216009709F402CCDC012C9168
:103CD000222309F4FDCB60E00E9453C827C700915E
:103CE00021161091221694E0F12C40E0915021F120
:103CF000F8018081282F2B7F213421F42181213369
:103D0000D9F407C08035C1F4818180538A3048F0EE
:103D100013C0813421F0853421F441E002C0FF2436
:103D2000F39498012E5F3F4F89012F5F3F4FF801B9
:103D300080818032C9F3DACF41110E94F255FF2011
:103D400021F083EA95E00E94F954C8010E94C190D5
:103D5000EDC60E94F5C5EAC61092520B1092510BA7
:103D60000E9435C6E3C60E940E7D182F87FDDEC671
:103D70000091990F84E40E948676882311F40C94B4
:103D80009A270E9438746B017C0120E030E0A90181
:103D90000E9442EA882341F124E01202F00111243A
:103DA000EB56F04FC082D182E282F38220E030E015
:103DB000A9016091950F7091960F8091970F909146
:103DC000980F0E9442EA81110CC080E090E0A0EEC2
:103DD000BFE38093950F9093960FA093970FB093A6
:103DE000980F01E00C949A2780E08093990F0E942D
:103DF0001D929CC60E940E7D87FD98C686E40E9497
:103E00008676882311F10E941474853608F084E6C2
:103E1000809310028823C9F0682F880F770B880BD6
:103E2000990B0E9449EA9B01AC0160E074E284E7CF
:103E300099E40E943CF20E94AFF360930C027093ED
:103E40000D0280930E0290930F0287E40E94867603
:103E5000882371F10E94387420E030E040E85FE38D
:103E60000E9442EA87FD13C00E94387420E030E0CF
:103E700048EC52E40E94A2F3181674F00E943874C1
:103E800020E030E048EC52E40E943CF209C06AE0D5
:103E900077ED83E29CE304C060E070E080E89FE39C
:103EA000609308027093090280930A0290930B02B8
:103EB0007DE8E72E72E0F72E0EEA1AE0D7018D9129
:103EC0007D010E946B74882359F00E9438740E940F
:103ED000B5F2F80160837183828393830E94254B3E
:103EE0000C5F1F4FFAE00E3B1F0741F71FC60E94F1
:103EF0000E7D87FD1BC66DE8E62E62E0F62E0EEA0B
:103F00001AE0D7018D917D010E946B74882339F0EE
:103F10000E943874F80164A375A386A397A30C5F6D
:103F20001F4FFAE00E3B1F0761F700C680913E1459
:103F300087FF02C00C94A02780913F148E7011F06F
:103F40000C94A0274091E20A5091E30A6091E40AA0
:103F50007091E50A87EA95E00E94BD554091E60A16
:103F60005091E70A6091E80A7091E90A8EED93E2B8
:103F70000E94BD554091EA0A5091EB0A6091EC0A0B
:103F80007091ED0A87E795E20E94BD558AE00E9494
:103F9000B68FCCC50E94AE83C9C588E5810F0E944B
:103FA0006B74882359F00E943874D7016D937D9308
:103FB0008D939C931397812F0E94B0951F5FB4E05F
:103FC000EB0EF11C133049F70E9416C5AFC50E94D5
:103FD0008482ACC583E50E948676882331F00E94F6
:103FE0000474709306026093050280913D149091D1
:103FF0003E14A0913F14B0914014892B8A2B8B2B37
:1040000009F094C5609105027091060287EB95E076
:104010000E94CE5585E20E94B68F8AE00E94B68F3C
:1040200085C50E940E7DF82E87FD80C583E50E9420
:1040300086760F2D0F2C000C110B882369F10E943E
:104040000474F801EE0FFF1FEC5AFD4F718360837B
:10405000000F111F000F111FF801EF5EFD4F7F01D0
:10406000072E000C880B990B0E9449EA2AE037EDD5
:1040700043E25CE30E94A8EAF801ED5CFB4E20817C
:104080003181428153810E94A8EAD7016D937D93CB
:104090008D939C9313974AC50E94F25585E40E9424
:1040A000B68F80E38F0D0E94B68F000F111FF801AD
:1040B000EC5AFD4F608171818BEB95E00E94CE55EB
:1040C00085E20E94B68F8AE00E94B68F2FC580E5F8
:1040D0000E946B74882309F429C560E070E080E5D4
:1040E0000E949376F82E6FEF7FEF83E50E94937620
:1040F0008C010196039708F019C5F7FC17C58F2DA1
:104100000E9434E5882339F00E94EE5583EC95E057
:104110000E94F9540BC50E94C39160E08F2D0E944C
:1041200050BC0F3FBFEF1B0731F00130110571F09C
:1041300000E010E00DC08F2D0E9459E531E020E035
:10414000892B09F030E0032F122F02C001E010E0AC
:104150008F2D0E9459E58017910709F4E7C480E08C
:104160000E94A46BF5CF8AE50E948676811106C075
:1041700083E50E948676882309F440C00E94387443
:1041800020E030E040E050EC0E9442EA87FD24C786
:104190000E94387420E030E040E050E40E94A2F336
:1041A00018160CF413C70E9438746B017C0184E06C
:1041B0000E940B97811122C02091CA0A3091CB0A2C
:1041C0004091CC0A5091CD0AC701B6010E94A8EADD
:1041D0000E94AEF22091BC033091BD03260F371F21
:1041E0003093BD032093BC032091BA033091BB03ED
:1041F000620F731F7093BB036093BA0380913F14E7
:1042000087FDF0C680914014837009F0EBC60E94D0
:10421000F2558CC464E071E083E50E9471828C01E8
:1042200068EE73E080E50E9471828938E3E19E07C1
:1042300010F088E893E1B8010E94E7C777C460E016
:1042400085E40E94A676811173C080E50E946B749C
:10425000882351F00E94387460937D1070937E1013
:1042600080937F109093801089E40E946B74882360
:1042700081F00E9438742CEA35EC47E25EE30E943C
:10428000A8EA6093811070938210809383109093BA
:10429000841084E40E946B74882381F00E94387437
:1042A0002CEA35EC47E25EE30E943CF26093851015
:1042B0007093861080938710909388100E94F25517
:1042C00040917D1050917E1060917F107091801010
:1042D0008AED95E00E94BD552CEA35EC47E25EE39D
:1042E0006091811070918210809183109091841060
:1042F0000E943CF2AB01BC0186ED95E00E94BD55E9
:104300002CEA35EC47E25EE36091851070918610EF
:1043100080918710909188100E94A8EAAB01BC019F
:1043200082ED95E00E94BD558AE00E94B68FFEC3E3
:104330000E94EE558EED95E00E94F954F7C380E59A
:104340000E946B74882351F00E9438746093890F27
:1043500070938A0F80938B0F90938C0F89E40E9447
:104360006B74882381F00E9438742CEA35EC47E2A4
:104370005EE30E94A8EA60938D0F70938E0F809386
:104380008F0F9093900F84E40E946B74882381F0C8
:104390000E9438742CEA35EC47E25EE30E943CF25E
:1043A0006093910F7093920F8093930F9093940F5B
:1043B0000E94F2554091890F50918A0F60918B0FA6
:1043C00070918C0F8AED95E00E94BD552CEA35EC7A
:1043D00047E25EE360918D0F70918E0F80918F0F99
:1043E0009091900F0E943CF2AB01BC0186ED95E0EC
:1043F0000E94BD552CEA35EC47E25EE36091910FD7
:104400007091920F8091930F9091940F0E94A8EA5F
:10441000AB01BC0182ED95E00E94BD558AE00E948F
:10442000B68F84C383E50E946B74182F882371F0C4
:104430000E9438740E94AEF27093160260931502C7
:1044400021E0672B09F020E02093740F80E50E94A3
:104450006B74882359F02091150230911602232B9A
:1044600011F00E9428748093740F60C311115EC311
:104470000E94F25589E096E00E94F9548091740FF1
:10448000882319F08CEE90E202C080EF95E00E9444
:10449000F954609115027091160288EF95E00E9420
:1044A000CE5584EF95E00E94F95440C30E94C39119
:1044B0003DC380E00E946F490E9416C537C38091BA
:1044C0003F14867009F094C5AAC50E94B4742EC327
:1044D0006FEF7FEF89E40E949376082F6FEF7FEFF5
:1044E0008AE40E949376182F8AE50E9486768111CD
:1044F00008C081E50E948676D82E882309F49AC5E3
:1045000001C0D12CC02E81E0800F863008F04EC053
:10451000912E81E0810F863008F048C00E943874E7
:104520002B013C01F02E07FDF12C07FF02C004E037
:10453000C02E812E17FD812C17FF02C014E0912E92
:10454000B5E03B2ECF1408F4F1C2E82C3F9C50019B
:1045500011249E1448F10E2D10E0DD2071F0F501BC
:10456000E00FF11FEE0FFF1FEE0FFF1FE453FC4F94
:10457000208131814281538103C020E030E0A901D4
:104580000A0D1B1D000F111F000F111F04531C4F9C
:10459000C301B2010E9442F1D8016D937D938D93C6
:1045A0009C931397E394D5CFF394CCCF0E94EE5510
:1045B00084E694E00E94F954B9C20E9401B98111C5
:1045C000B5C200E219E0EBE3F2E0F9A7E8A79E012B
:1045D0002F5F3F4F19017BE6C72E73E1D72E79017C
:1045E000F8016591759185919491A8A5B9A58D90D3
:1045F0009D90AD90BD90B9A7A8A7A50194010E9478
:1046000041F12B013C01F701608371838283938325
:1046100020E030E040EA51EC0E94A2F387FD0AC09E
:1046200020E030E040EA51E4C301B2010E9442EAD6
:1046300018162CF4F601849118160CF402C5D70153
:104640008D909D90AD90BD907D0120E030E040EADE
:1046500051ECC501B4010E94A2F387FDFDC420E026
:1046600030E040EA51E4C501B4010E9442EA181664
:104670000CF004C5F1C40E94CA4458C20E94AFD6CF
:1046800055C261E083E50E94B27691E089270E94DD
:104690002DD84CC281E0809375160E949BBD10926C
:1046A0007516882309F442C20E94F25589E896E003
:1046B0000E94F9543BC28091251182FF04C080649E
:1046C0008093251133C283FF31C20E947EB82EC26F
:1046D0000E949D802BC20E940E7D082F87FD26C25E
:1046E00085E50E946B748823B1F1E02E002E000C4A
:1046F000FF080E9438744B015C0120E030E0A90102
:104700000E94A2F387FF04C0B7FAB094B7F8B09440
:10471000C70153E0880F991F5A95E1F79C012E5766
:10472000394E7901D9018D929D92AD92BC92139729
:1047300020E030E04FE254E4C501B4010E94A2F34E
:1047400018164CF480E090E0AFE2B4E4F701808307
:104750009183A283B3838CE40E946B74882309F451
:10476000E5C1002E000C110B0E9438746B017C0116
:1047700020E030E0A9010E94A2F387FF04C0F7FA0D
:10478000F094F7F8F09420E030E04FE254E4C701F1
:10479000B6010E94A2F3980143E0220F331F4A950D
:1047A000E1F7F901EE57F94E18162CF0C482D582C4
:1047B000E682F782BBC180E090E0AFE2B4E484839C
:1047C0009583A683B783B2C18AE50E948676882343
:1047D00051F00E94387460938B1670938C168093FE
:1047E0008D1690938E1680913F1487FD9FC1809106
:1047F0004014837009F09AC176C40E94857F96C1E7
:104800000E940E7D182F87FD91C18AE50E94867651
:10481000882381F040E050E0BA018AE50E94E89BDD
:104820004B015C0120E030E0A9010E94A2F31816C0
:10483000B4F506C0812C912C90EAA92E90E4B92EF3
:1048400080E090E0A0EAB0E489839A83AB83BC83E4
:10485000209143023091440240914502509146021A
:10486000C501B4010E9442F16B017C0120E030E0FF
:1048700041EE53E40E9442EA87FD06C0C12CD12CD0
:1048800081EEE82E83E4F82ECC8EDD8EEE8EFF8E48
:10489000BE016F5F7F4FCE014C960E94999B85E5CC
:1048A0000E946B74882329F00E9438746B017C018C
:1048B0000AC028E01202F0011124EE57F94EC08020
:1048C000D180E280F38020E030E0A901C701B60189
:1048D0000E94A2F387FF04C0F7FAF094F7F8F0946F
:1048E000F7FAF094F7F8F094C982DA82EB82FC824E
:1048F00080E00E94DA56882321F0CE0101960E94C2
:104900006D5420E030E0A901C501B4010E94A2F37A
:1049100018160CF00BC180E090E0A0EAB0E48983A7
:104920009A83AB83BC83A50194016091430270918B
:10493000440280914502909146020E9441F16B0130
:104940007C0120E030E0A9010E94A2F318161CF0BF
:10495000C12CD12C7601CC8EDD8EEE8EFF8EBE0169
:104960006F5F7F4FCE014C960E94999BDFC00E94E3
:104970006BA5DCC0A0903805B0903905C0903A0511
:10498000D0903B058BE40E948676882339F10E9403
:1049900038747B018C0120E030E0A9010E94A2F371
:1049A00087FD0AC020E030E040E251E4B701C801D1
:1049B0000E9442EA1816A4F48FE30E94B68F8BE49B
:1049C0000E94B68F80EC96E00E94F95488EB96E046
:1049D0000E94F95483E190E10E94F9547501860127
:1049E0009701A801B501C6010E9442EA882361F03F
:1049F0000E94C391C701D80180933805909339056F
:104A0000A0933A05B0933B0580913D1490913E14DC
:104A1000A0913F14B0914014892B8A2B8B2B09F065
:104A200085C00E94F255409138055091390560913A
:104A30003A0570913B0584ED96E00E94BD558AE0F1
:104A40000E94B68F73C081E08093190D1092D1152A
:104A500060E083E50E94B276811168C00E94B6A42E
:104A600065C083E50E946B74882339F00E94287426
:104A700080938A160E94AF7B59C00E94F2558FED39
:104A800096E00E94F95480918A160E9493554EC078
:104A90000E94377D4BC00E946CC66D337105810545
:104AA000910520F083E197E00E9492D08FE097E09B
:104AB0000E9492D084EE809375040E94A77B0E948E
:104AC0008B4E8BEF96E00E94F95484EF96E0909322
:104AD0006F0F80936E0F2AC00E9498B827C0009174
:104AE0002416109125160E948FBD60939013709329
:104AF000911380939213909393130023B9F00E9423
:104B0000F25584E50E94B68FB8017727072E000C76
:104B1000880B990B0E942A9080E20E94B68F8EED3E
:104B200095E00E94F95402C00E9498B83CA9311146
:104B300002C00E94A6A488A98093B903E8C20E947B
:104B4000C39190917B0F9BAB80E00E94E0510E944B
:104B50008FBD6093901370939113809392139093F1
:104B600093130E94979A81E08093520B0E9435C65E
:104B70008AE50E946B74082F88E50E946B74182FD9
:104B800089E50E946B74181319C1011711F0312EB9
:104B900004C03324339411E001E082E50E9486765C
:104BA000882319F00E94387404C060E070E080EA45
:104BB00090E46CA37DA38EA39FA320E030E0A90125
:104BC0000E9442EA882349F0111103C0332009F4FE
:104BD000E2C0CE0184960E9458B9112309F4D6C0D0
:104BE000332009F4D0C010923B0210923C02109284
:104BF0003D0210923E0210923F021092400210922B
:104C00004102109242020E9414C5EBE6F3E1349196
:104C10003DABEFE5F3E1C590D590E590F490E3E688
:104C2000F3E185909590A590B490A7019601C501F8
:104C3000B4010E9442EA87FF05C0A7019601C501A1
:104C4000B40104C0A5019401C701B6010E943CF261
:104C50002B013C01E8E4F3E185919591A591B49194
:104C600088A799A7AAA7BBA7E4E4F3E1859195914A
:104C7000A591B4918CA79DA7AEA7BFA79C01AD013C
:104C800068A579A58AA59BA50E94A2F318163CF4F5
:104C90002CA49DA599ABAEA5AAAB1FA506C028A4C0
:104CA000B9A5B9ABEAA5EAAB1BA5A3019201C30163
:104CB000B2010E94A8EA20E030E040E85FE30E94F1
:104CC00042F10E94F0F3222D39A94AA9512F0E94E6
:104CD000A8EA68A379A38AA39BA3ECE6F3E1149165
:104CE00020E030E040EC5FE3C501B4010E94A8EA97
:104CF0004B015C01612F110F770B880B990B0E9400
:104D000049EA9B01AC01C501B4010E94A8EA69838C
:104D10007A838B839C8320E030E040EC5FE3C70123
:104D2000B6010E94A8EA6B017C01FDA96F2FFF0F5D
:104D3000770B880B990B0E9449EA9B01AC01C701D4
:104D4000B6010E94A8EA6C8F7D8F8E8F9F8FAE0177
:104D5000405E5F4FBE016F5F7F4FCE014C960E9459
:104D6000779B0E9444C610923B0210923C02109224
:104D70003D0210923E0210923F02109240021092A9
:104D800041021092420280E00E94D095332019F037
:104D900081E00E94D095002319F082E00E94D09516
:104DA0000E9414C58091510B8093520B8BA90E94D5
:104DB000E0510E947E9A0E9416C5B8CE382EEDCEE4
:104DC0000E94C776B3CE88E50E946B7481115F980C
:104DD00089E50E946B7481118A988AE50E946B7440
:104DE000882331F0809108018170809306014798F3
:104DF00085E40E946B74882309F498CE129896CEAD
:104E000060E080E994E00E9414C85F988A988091DD
:104E100008018170809306014798129887CE0E94FE
:104E200004740E945DA482CE8DE40E94867688235D
:104E3000A9F00E941474813039F020F0823049F4D6
:104E400062E003C060E001C061E0802F0E9450BCBE
:104E500005C08CE095E00E94F95468CE83E50E947D
:104E60008676882309F462CE0E941474F82EB7E087
:104E7000EB1631F0E9E0EE1206C080937C0F56CEBF
:104E800080937D0F53CE61E0802F0E9450BC6F2D28
:104E9000802F0E9421BC6F2D70E0802F0E948CBC5F
:104EA00045CEA3019201C501B4010E94A2F31816D8
:104EB00094F08DE094E19F938F938CE795E09F931E
:104EC0008F931F920E94BAB90F900F900F900F907E
:104ED0000F900C943E1C8AE09CE0EDCF0E94C391A1
:104EE00088E50E946B74882321F05F9A80E00E941D
:104EF000F99689E50E946B74882321F08A9A81E0F3
:104F00000E94F9968AE50E946B74882351F0809183
:104F100008018095817080930601479A82E00E9483
:104F2000F99685E40E946B74882309F4FFCD0E94F2
:104F3000668CFCCD602F83E50E94B2760C94F51E42
:104F400083E50E948676882391F00E9438746093EE
:104F5000E20A7093E30A8093E40A9093E50A60936F
:104F6000EA0A7093EB0A8093EC0A9093ED0A80E5CD
:104F70000E948676882351F00E9438746093E20A7A
:104F80007093E30A8093E40A9093E50A82E50E9415
:104F90008676882351F00E9438746093E60A7093F5
:104FA000E70A8093E80A9093E90A84E50E948676EE
:104FB000882309F4BBCD0E9438746093EA0A709389
:104FC000EB0A8093EC0A9093ED0AB0CDC12CD12C62
:104FD000E12C90E4F92EEBC8C12CD12CE12C80EC13
:104FE000F82EE5C882E50E946B74811110C99ECD30
:104FF00082E50E946B74082F83E50E946B74182F62
:10500000011103C0112309F491CD0E94AE58112360
:1050100009F48CCD0E9428748093670287CD0E948A
:10502000F2558CE196E00E94F954809167020E944B
:1050300093557CCD0E94EE558DE296E00E94F95486
:1050400075CDB7FAB094B7F8B094D7018D929D9210
:10505000AD92BC921397F3CA0E94EE558BE696E090
:105060000E94F95461E08DE596E00E9414C868E260
:1050700070E088EC90E00E94E7C758CD0C5F1F4FAE
:10508000BFEFCB1ADB0AE9E00C321E0709F0A8CA11
:1050900066EAE62E6FE0F62E10E0F1018191919123
:1050A000A191B1911F01F70181939193A193B193C4
:1050B0007F01812F0E94B0951F5F133071F70E940E
:1050C00016C560E08DE496E00E9414C863E972E0C2
:1050D00084E690E00E94E7C76AEB72E084E690E025
:1050E0000E94E7C723CD89E996E00E94F9544091D8
:1050F0008B1650918C1660918D1670918E1684E9E6
:1051000096E00E94BD558AE00E94B68F0FCDE596CD
:105110000FB6F894DEBF0FBECDBFDF91CF911F91C8
:105120000F91FF90EF90DF90CF90BF90AF909F9046
:105130008F907F906F905F904F903F902F90089549
:105140004F925F926F927F928F929F92AF92BF9297
:10515000CF92DF92EF92FF920F931F93CF93DF9343
:10516000CDB7DEB7C054D1090FB6F894DEBF0FBE7D
:10517000CDBF8091F8049091760420917704921B22
:105180009F7319F0803408F424C18093F8041CC084
:105190008093F804108289EB94E00E943DE9893005
:1051A0000CF036C1843009F472C108F435C187307F
:1051B00009F4E8C108F041C1853009F47EC18630A8
:1051C00009F4A6C11092F804C0907610D090771020
:1051D000E0907810F090791020E030E040EA50E460
:1051E000C701B6010E9442EA181654F420E030E8E4
:1051F00049E853E4C701B6010E94A2F387FD33C01A
:1052000015E0115071F48AE597E00E945663B701EA
:10521000A6018FE397E00E94BD558AE00E94B68FF9
:1052200022C064EF71E080E090E00E94F4C8C0907A
:105230007610D0907710E0907810F090791020E000
:1052400030E040EA50E4C701B6010E9442EA181675
:10525000C4F620E030E849E853E4C701B6010E94F3
:10526000A2F387FFCECFC090820FD090830FE09043
:10527000840FF090850F20E030E040EA50E4C70151
:10528000B6010E9442EA181654F420E030E046E1EC
:1052900053E4C701B6010E94A2F387FD33C015E0B5
:1052A000115071F48AE597E00E945663B701A60198
:1052B00080E893E00E94BD558AE00E94B68F22C02C
:1052C00064EF71E080E090E00E94F4C8C090761036
:1052D000D0907710E0907810F090791020E030E0D6
:1052E00040EA50E4C701B6010E9442EA1816C4F62B
:1052F00020E030E046E153E4C701B6010E94A2F38A
:1053000087FFCECF8091710F823059F160917A1072
:1053100070917B10072E000C880B990B0E9449EAB4
:105320009B01AC016091761070917710809178109C
:10533000909179100E9441F16B017C0120E030E0F6
:1053400040E85FEB0E94A2F387FD0BC020E030E055
:1053500040E85FE3C701B6010E9442EA18160CF06C
:1053600011C78091700F823009F414C76091860FC5
:105370007091870F072E000C880B990B0E9449EA49
:105380009B01AC016091820F7091830F8091840F1B
:105390009091850F0E9441F16B017C0120E030E08B
:1053A00040E05FEB0E94A2F387FDF4C620E030E00E
:1053B00040E05FE3C701B6010E9442EA18160CF410
:1053C000E9C687E397E00E94566382E08093700FFE
:1053D000E1C6082F10E020917604909177042917F8
:1053E00059F0E92FF0E0EA58FB4F22819F5F9F734D
:1053F00090937704922F01C09FEFF801E854FB4F80
:10540000908321E0280F9A3009F4C2CE822FB3CEC8
:10541000813209F010C108C1813019F1A8F0823041
:1054200049F1833009F0CECE82E598E00E944763CF
:105430006091860F7091870FF0C2883009F4E3C045
:10544000813209F4F1C0BECE81E698E00E94476344
:10545000609176107091771080917810909179100A
:1054600067C48CE598E00E94476360917A10709160
:105470007B10D3C287E598E00E9447636091820F5A
:105480007091830F8091840F9091850F51C48DE4AA
:1054900098E00E94476380917C0F24E6829FC001C0
:1054A000112481589F4F6FEF70E00E9413F170E05C
:1054B00080E090E00E9447EA3BC485E498E00E94C7
:1054C000476360913B0270913C0280913D02909154
:1054D0003E0242E00E94278E82E397E00E944763EB
:1054E00060913F027091400280914102909142028E
:1054F00042E00E94278E8DE297E00E944763609110
:10550000430270914402809145029091460210C47A
:105510000E94D1C8882399F180E498E00E944763F3
:10552000109175041F7739F50E94C68C882319F1F4
:1055300080911D1190911E11A0911F11B091201109
:105540000097A105B105B9F0BC01CD016D597F4FA0
:105550008F4F9F4F24E630E040E050E00E9498F0EB
:105560006091211170912211809123119091241149
:105570000E9498F0122F812F0E94BBC626C388E399
:1055800098E013C20E946CC66B017C012CE330E0F2
:1055900040E050E00E9498F049015A0183E398E00E
:1055A0000E944763C701B60120E13EE040E050E0C1
:1055B0000E9498F0822F0E94BBC68C01F801819155
:1055C0008F01882319F00E946A8DF8CF8FE298E04E
:1055D0000E944763C501B4012CE330E040E050E095
:1055E0000E9498F0862F0E94BBC68C01F801819121
:1055F0008F01882319F00E946A8DF8CF8CE298E021
:105600000E944763DFCD8091090180FD6DC58091C7
:10561000251183FF69C58091090180FD6CC58091CA
:10562000251183FF68C56AC587E298E00E94476339
:1056300081E298E0BAC18D310CF0CAC290E0FC0161
:105640003997E431F10508F0BDCD8827EE58FF4FBA
:105650008F4F0C9427F10E94D1C8882399F08DE1D7
:1056600098E00E94566360E082EE9BE00E9414C8BE
:1056700089EB97E090936F0F80936E0F83E0809398
:10568000730FA0CD85E19CE090C18091720F8230B4
:1056900021F08091730F863089F40E944BDD1092C7
:1056A0003404109207020E94C68C882321F0809156
:1056B000251182FF2DC50E94E14984CD109234044A
:1056C00081CD0E94D1C88823A1F085E08093730F1B
:1056D0001092340410920702809125118064809307
:1056E00025110E94504A60E089E19CE00E9414C8A4
:1056F00069CD8091730F863031F484E198E0909306
:105700006F0F80936E0F85E19CE00E9456631092AC
:10571000730F58CD40E060E070E080E090E00E94C0
:10572000706BA801445051096CEB74E085E394E080
:105730000E94B0F4F801E05DFB4F108280913504C7
:105740008F3219F08C3321F026C085EB97E02DC104
:105750000E9448B08FEF9FEF909314118093131124
:105760008091C51681508093C5161092C416109270
:10577000C316811105C01092C6160E947FDB08C0B7
:105780006FE270E086EC96E10E9490F4FC011182D9
:1057900081EB97E068C08091C516843008F061C045
:1057A00065E374E086EC96E10E9485F46EE773E0B1
:1057B00086EC96E10E9485F419821C8280915F112B
:1057C000882319F06CE571E102C061E471E121E028
:1057D00045E354E0CE0101960E941E62882319F130
:1057E0008BE1FE013196ACE5B1E101900D928A9515
:1057F000E1F7809125118F7D80932511A0911B11D8
:10580000AA30E0F481E08A0F80931B118BE18A9F1C
:10581000D0011124A958BE4EECE5F1E101900D92A2
:105820008A95E1F70BC00E94F25565E374E08BE9BD
:1058300097E00E94DB558AE00E94B68FCE01019668
:105840000E94C17B8FEF9FEF9093141180931311EF
:105850008091C5168F5F8093C5161092C416109262
:10586000C31681EB97E00E94566380E00E941BDC28
:10587000A9CC8091730F863041F484E198E0909335
:105880006F0F80936E0F1092730F8FE2898365E321
:1058900074E0CE0102960E949BF4CE0101960E9414
:1058A000DBB085E297E081C08DE098E040C18DEBF0
:1058B00094E00E9439E96B017C0111E020E030E0C6
:1058C000A9010E9442EA811101C010E01093710FFA
:1058D0008091BC04833419F0833509F073CCC7017F
:1058E000B6010E94E8DB6ECC8DEB94E00E9439E9B2
:1058F0006B017C0111E020E030E0A9010E9442EA46
:10590000811101C010E01093700F8091BC048335A9
:1059100009F058CCC701B6010E94A3DB53CC80919B
:10592000BC04833509F04ECC8DEB94E00E9439E93C
:105930006B017C0120E030E0A9010E9442EA87FD72
:1059400011C020E030E048EC52E4C701B6010E94EB
:10595000A2F318165CF0C701B6010E94AEF29B01DB
:10596000AC0108C020E030E0A90104C024E630E02A
:1059700040E050E0AFEFB0E00E94D9F024E630E024
:1059800040E050E00E94BAF02F3F310519F010F0CE
:105990002FEF30E020937C0F15CC0E94E4C88111DA
:1059A00011CC0E945C6B81E297E00E9456630ACCA6
:1059B0008091BC04833549F58DEB94E00E943DE96C
:1059C0008C01BC01990F880B990B0E9449EA6B016D
:1059D0007C0120E030E040E251E40E9442EA87FD91
:1059E0000DC020E030E04AEF53E4C701B6010E9449
:1059F000A2F318162CF404EF11E002C00AE010E044
:105A00001093060200930502DDCB87E098E00E9428
:105A100047636091050270910602072E000C880B07
:105A2000990B0E9449EA84C10E94E4C88111CACB43
:105A30008091BC04883579F034F4833409F0C2CB0A
:105A40008DEE97E074C0893549F08A3509F0BACBFC
:105A500082EF97E06CC080E098E069C089EF97E042
:105A600066C00E94E4C88111ADCB81E080936802DA
:105A70008EEB94E00E9439E96B017C018091BC04BB
:105A8000883591F01CF4853459F19CCB8935D1F0DF
:105A90008A3509F097CB209143023091440240911E
:105AA00045025091460218C320913B0230913C02BE
:105AB00040913D0250913E02C701B6010E9442F161
:105AC00040E00FC320913F023091400240914102DB
:105AD00050914202C701B6010E9442F141E001C368
