:100000000C9469130C949A130C949A130C949A13ED
:100010000C949A130C949A130C949A130C949A13AC
:100020000C949A130C949A130C949A130C949A139C
:100030000C949A130C949B4E0C949A130C949A1350
:100040000C949A130C94B4A60C949A130C949A13CF
:100050000C949A130C949A130C9497890C94464E12
:100060000C949A130C94F1900C94E7900C949A13BE
:100070000C949A130C949A130C949A130C949A134C
:100080000C949A130C949A130C949A130C949A133C
:100090000C949A130C949A130C949A130C949A132C
:1000A0000C949A130C949A130C949A130C949A131C
:1000B0000C949A130C949A130C949A130C949A130C
:1000C0000C949A130C949A130C949A130C949A13FC
:1000D0000C949A130C949A130C94018F0C94CC8E5C
:1000E0000C949A13302B4A2B662B8F2B962B3E2C7D
:1000F000592C5C2C792C942CD22CDD2C192D362DDE
:10010000A12DB02DCA2DE12DE728E42D348F448F89
:10011000558F608F688F7F8F6C8F7F8F708F748FFC
:100120007F8F7A8F249134914591509158916F919E
:100130005C916F91609164916F916A91FBB6FEB68C
:10014000EDB6F1B6F7B635B702B706B70CB710B7CC
:1001500014B71AB71EB722B735B728B72CB730B7C0
:10016000BABCBFBCC4BCCEBCD8BC51BDE2BCEABCAE
:10017000F2BCFCBC06BD10BD1FBD29BD51BD33BDC9
:100180003DBD47BD084AD73B3BCE016E84BCBFFD99
:10019000C12F3D6C74319ABD56833DDA3D00C77F57
:1001A00011BED9E4BB4C3E916BAAAABE00000080F0
:1001B0003F05A84CCDB2D44EB93836A9020C50B97F
:1001C000918688083CA6AAAA2ABE000000803F00AB
:1001D0000C948F2B0C94F1B60C945BE40C9402B746
:1001E0000C9434910C9433BD0C94348F0C9410B750
:1001F0000C944A2B0C94EABC0C94592C0C94792C3A
:100200000C94E7280C9429BD0C94FBB60C942CB7E5
:100210000C94192D0C9464910C94BFBC0C94748FA5
:100220000C9430B70C94E42D0C940CB70C9406B7D6
:100230000C94302B0C946A910C94FEB60C94942C74
:100240000C9460910C94CA2D0C94E2BC0C9451BD9A
:100250000C94BABC0C9445910C94662B0C94F7B694
:100260000C9424910C941FBD0C946C8F0C9422B7A9
:100270000C94D22C0C946F910C9435B70C94DD2C0B
:100280000C94558F0C943DBD0C94FCBC0C9428B779
:100290000C943E2C0C9458910C94D8BC0C94E12DE9
:1002A0000C945C2C0C9414B70C941AB70C94362D47
:1002B0000C9406BD0C94962B0C9450910C94688F62
:1002C0000C94448F0C94EDB60C947A8F0C943DE40E
:1002D0000C947F8F0C94CEBC0C94A12D0C94B02D5B
:1002E0000C94608F0C94C4BC0C9447BD0C9410BD4E
:1002F0000C94F2BC0C94708F0C941EB70C945C910F
:100300004E414E494E495459494E46CDCCCC3D0AFA
:10031000D7233C17B7D13877CC2B329595E6241FDD
:10032000B14F0A000020410000C84200401C462096
:10033000BCBE4CCA1B0E5AAEC59D7400407A10F369
:100340005A00A0724E18090010A5D4E80000E87603
:1003500048170000E40B54020000CA9A3B0000005A
:10036000E1F505000080969800000040420F000073
:1003700000A08601000000102700000000E8030034
:100380000000006400000000000A000000000001FE
:1003900000000000002C76D888DC674F0823DFC1FE
:1003A000DFAE59E1B1B796E5E3E453C63AE65199B9
:1003B0007696E8E6C28426EB898C9B62ED407C6FE2
:1003C000FCEFBC9C9F40F2BAA56FA5F490055A2A99
:1003D000F75C936B6CF9676DC11BFCE0E40D47FEA5
:1003E000F520E6B500D0ED902E030094357705009A
:1003F00080841E080000204E0A000000C80C333321
:1004000033330F986E12831141EF8D2114893BE62F
:100410005516CFFEE6DB18D1844B381BF77C1D90B8
:100420001DA4BBE424203284725E228100C9F12421
:10043000ECA1E53D27434F4D4D554E4943415449AD
:100440004F4E0044525952554E004552524F52534E
:1004500000494E464F004543484F00536C65657058
:100460002E2E2E004D65736820706F696E74206F9C
:100470007574206F662072616E67650A00436C694F
:10048000636B20746F20526573756D652E2E2E0080
:100490004E6F204D6F76652E00456E642066696C48
:1004A00065206C6973740A00426567696E2066692D
:1004B0006C65206C6973740A004E6F206D65646909
:1004C000610A00286E6F2066696C652900437572A9
:1004D00072656E742066696C653A20005344207022
:1004E00072696E74696E67206279746520004E6F60
:1004F00074205344207072696E74696E670A0050EC
:1005000072696E742074696D653A2000496E766177
:100510006C69642050696E204D6F64650A000A534F
:10052000746174733A2046696C616D656E742075F0
:100530007365643A20002C204C6F6E6765737420DD
:100540006A6F623A2000546F74616C2074696D6543
:100550003A20002C204661696C65643A20002C200A
:1005600046696E69736865643A20005072696E74FA
:10057000733A200053746174733A20004520255368
:10058000006F66660044454255473A004D313133AD
:100590002053003344205072696E746572204F46B8
:1005A000462E002F2F2000416363656C65726174D5
:1005B000696F6E3A20500046523A0020466C6F77C1
:1005C0003A200050726F7465637465642050696EE0
:1005D0000A0020643A0020693A0020703A00496E0F
:1005E00076616C69642065787472756465720A005E
:1005F0006469730043290A0061626C656420286D98
:10060000696E2074656D702000436F6C642065789E
:1006100074727564657320617265200046696C614F
:100620006D656E742072756E6F757420004D343276
:100630003120696E636F72726563742070617261DC
:100640006D657465722075736167650A004F666633
:1006500073657473204170706C69656400457272D3
:100660003A20546F6F206661722100546F6F2066CC
:1006700061722066726F6D207265666572656E6369
:100680006520706F696E740A00454550524F4D20C9
:100690004F4B0A00205A323A004475616C20456E77
:1006A0006473746F702041646A7573746D656E74E1
:1006B00020286D6D293A20002028302D3130290066
:1006C0002076616C7565206F7574206F662072618D
:1006D0006E676500416476616E6365204B3D005036
:1006E0006F7765722D6C6F7373207265636F7665BB
:1006F000727920004D383458594500446F6E65209A
:100700007072696E74696E672066696C650A004D67
:100710003737004D333100560451044A0443043541
:10072000044A3132004A3034004A303200205A3A0A
:10073000200020593A20004A3039004A303700451D
:10074000787472756465722074656D702061626E74
:100750006F726D616C21203A20004A3130004D35B6
:1007600030310A4D3432302053310041333156207C
:10077000004D3530300A004D3530310A4D343230BD
:100780002053310A004732380A473239004A32369C
:10079000004A32340041323956200043616E6E6F98
:1007A0007420656E746572207375626469723A2094
:1007B000004A3231004A3230004D323520500A4D65
:1007C0003234004D38330A473120452D353020462C
:1007D000313230300A4D3832004D38330A4731203B
:1007E00045353020463730300A4D383200473238F0
:1007F0000A00473238205A0A0047323820590A0086
:1008000047323820580A004132305620004D3130EE
:1008100030300A004D3130303020430A004A303544
:1008200000322E302E37004A33332000204D002076
:100830004820004137562000413656202D2D2D00EE
:10084000413656200041355620583A200041345652
:1008500020004133562000413256200041315620BD
:1008600000413056200020746F6F206C6F6E67203F
:10087000657874727573696F6E2070726576656ED7
:100880007465640A0020636F6C6420657874727507
:1008900073696F6E2070726576656E7465640A00A8
:1008A000DB0FC93F45BCDA3F8FB30240FCF0274065
:1008B00056946140FE4B9B4084A5D840E0231841EC
:1008C000346A5641E859974164DBD5416E27174297
:1008D000B4B75542CE1A9742C8AED542B5885A43EE
:1008E000D40684BFA65FA7BF7443E0BF10B11AC08F
:1008F0001C2C58C0E8F697C0B849D6C04E4E17C158
:1009000024D355C1802497C1A0B5D5C1121A17C2EE
:1009100044AE55C2781797C26CACD5C267885AC32B
:10092000000020C100000000000000000000CD43D6
:100930000000CD430000E14353657474696E677332
:100940002053746F7265640053657474696E6773C5
:100950002053746F726564202800667265736800A6
:10096000646F696E67004E6F7720004D343230201F
:100970005331205631004A3137002020506C616ECF
:100980006E657242756666657242797465733A2067
:10099000002046726565204D656D6F72793A2000C2
:1009A000436F6D70696C65643A204F637420203426
:1009B00020323032300A00204C617374205570644C
:1009C000617465643A20323032302D30392D32393D
:1009D000207C20417574686F723A20284E69636BE1
:1009E0002057656C6C732C20436869726F6E2054BD
:1009F0004D4332323039205374616E64616C6F6ED6
:100A000065205265766572736564290A00322E305E
:100A10002E370A004D61726C696E0020536F667448
:100A2000776172652052657365740A00205761749E
:100A30006368646F672052657365740A00204272B0
:100A40006F776E206F75742052657365740A00208D
:100A500045787465726E616C2052657365740A0026
:100A6000506F77657255700A006175746F25632E3B
:100A700067004D31303031006572726F72207772CD
:100A80006974696E6720746F2066696C650A00443A
:100A90006F6E6520736176696E672066696C652E7E
:100AA0000A004D32390020503A00656E6473746F4D
:100AB0007073206869743A20001000C90210012C7C
:100AC000014001220170011801B0010E01F0010482
:100AD000015002FA00B002F0003003E600D003DC5F
:100AE000009004D2007005C800A006BE000008B443
:100AF00000B009AA00D00BA000600E960060118C17
:100B0000000015820020197800C01D6E00A022642C
:100B100000B0275A00902C500000314600E0343CD1
:100B20000010383200903A2800603C1E00A03D14AE
:100B300000803E0A00203F00006563686F3A004570
:100B400072726F723A0042696C696E656172204C14
:100B50006576656C696E6720477269643A0A00536E
:100B6000656E64204D31303820746F207265737566
:100B70006D650A0053656E64204D31303820746F06
:100B80002068656174206E6F7A7A6C650A00486F20
:100B900074656E6420746F6F20636F6C640A004C20
:100BA0006F61642046696C616D656E7400496E7397
:100BB0006572742066696C616D656E7420616E6427
:100BC0002073656E64204D3130380A007C3C3E5EF7
:100BD0002B3D3F2F5B5D3B2C2A225C00426564204D
:100BE00048656174696E672E2E2E005072696E74AE
:100BF00020506175736564004A313800526568653C
:100C00006174696E672E2E2E004A3038004A3036E5
:100C100000452048656174696E672E2E2E004A31AA
:100C200036005072696E742041626F7274656400A0
:100C30004731205A353020463530300050726F62CF
:100C4000696E67204661696C6564004A3235004D03
:100C50003530300A473237003344205072696E74A1
:100C600065722052656164792E000102102020080F
:100C700008102040102040800201020108040201F7
:100C80000102040810204080804020100804020166
:100C900080040201804020100804020108040201BF
:100CA0000102040810204080010204081020408046
:100CB00000002200250028002B002E003100340007
:100CC00002010000050108010B01050505050705E6
:100CD00008080808020202020A0A080804040404B8
:100CE00001010101010101010303030303030303E4
:100CF000040707070C0C0C0C0C0C0C0C0202020273
:100D000006060606060606060B0B0B0B0B0B0B0B5B
:100D10000253544F505045442E20005072696E7457
:100D200065722073746F70706564206475652074DB
:100D30006F206572726F72732E2046697820746816
:100D400065206572726F7220616E64207573652014
:100D50004D39393920746F20726573746172742E45
:100D6000202854656D7065726174757265206973B1
:100D70002072657365742E20536574206974206138
:100D8000667465722072657374617274696E672926
:100D90000A004E6F20436865636B73756D20776939
:100DA0007468206C696E65206E756D6265722C20AA
:100DB0004C617374204C696E653A2000636865630A
:100DC0006B73756D206D69736D617463682C204C55
:100DD000617374204C696E653A20004C696E652021
:100DE0004E756D626572206973206E6F74204C6160
:100DF0007374204C696E65204E756D6265722B317F
:100E00002C204C617374204C696E653A20004D3182
:100E100031300053442072656164206572726F72D4
:100E20000A002121204B494C4C2063617573656495
:100E300020627920746F6F206D75636820696E6120
:100E400063746976652074696D65202D2063757201
:100E500072656E7420636F6D6D616E643A20004838
:100E60006F74656E642049646C652054696D656FAC
:100E7000757400486F74656E642049646C65205415
:100E8000696D656F75740A00627573793A207061D7
:100E90007573656420666F7220696E7075740A00E0
:100EA000627573793A2070617573656420666F723C
:100EB00020757365720A00627573793A2070726FDB
:100EC00063657373696E670A004D656469612049E3
:100ED0006E736572746564004A3031004A303000C8
:100EE0004D656469612052656D6F766564004D31B2
:100EF0003030305300506F776572204F75746167E2
:100F000065004A3233004A3135004D363030004AF0
:100F10003131005072696E7465722068616C74655D
:100F2000642E206B696C6C28292063616C6C65648D
:100F3000210A004F46460A004661646520486569FB
:100F40006768742000426564204C6576656C696E44
:100F50006720004661696C656420746F20656E616E
:100F6000626C6520426564204C6576656C696E67CD
:100F70000A00496E76616C6964206D6573682E0A9B
:100F8000004732372F6E2047312059302046353008
:100F900030300050726F62696E6720506F696E74F6
:100FA0000025532025692F25690050726F62696EF4
:100FB00067206D65736820706F696E74200020284B
:100FC00044525952554E2900473239204175746FA9
:100FD00020426564204C6576656C696E67003F2031
:100FE000284C2C522C462C4229206F7574206F6699
:100FF00020626F756E64732E0A003F285629657251
:10100000626F7365206C6576656C20696D706C61CC
:10101000757369626C652028302D34292E0A0042D0
:101020006164205A2076616C75650A004E6F2062FB
:10103000696C696E65617220677269640A003F4A73
:10104000206F7574206F662072616E67652028308E
:101050002E303120746F20302E33290A00204D3974
:101060003220580020204D61783A200020204D6920
:101070006E3A2000536F667420656E6473746F70EF
:10108000733A20004732380053656C65637420530F
:10109000442066696C65207468656E2070726573A3
:1010A0007320726573756D650A00526573756D699D
:1010B0006E672066726F6D20706F776572206F7536
:1010C000746167652E2E2E0A004D32342053256C34
:1010D000642054256C64004739322E39204525732D
:1010E00000473120462564004731205A25732046A9
:1010F000323030004731205825732059257320465F
:1011000033303030004731204525642046323030BE
:10111000004D34323020532569205A2573004D315B
:1011200030362050256920532569004D3130392053
:10113000532569004D31393020532569004D323037
:1011400030204425730047312046353030205A2561
:1011500073004732385230004739322E392045303B
:10116000205A300A47315A2573004D34323020530B
:1011700030205A300020496E76616C6964206578B1
:101180007472756465722000202D20496E76616C42
:101190006964206578747275646572206E756D621D
:1011A000657220210A00544845524D414C20525549
:1011B0004E4157415900546865726D616C205275FB
:1011C0006E61776179004572723A204D41585445FD
:1011D0004D50004D415854454D5020747269676719
:1011E00065726564004572723A204D494E54454D12
:1011F00050004D494E54454D5020747269676765E3
:1012000072656400202F002042403A0020403A00DE
:1012100020573A0070012C0190012701B0012201F2
:10122000C0011D01F00118011002130130020E016E
:101230006002090190020401C002FF000003FA00ED
:101240004003F5008003F000D003EB002004E6002B
:101250007004E100E004DC004005D700C005D200C6
:101260004006CD00D006C8008007C3003008BE008D
:10127000F008B900C009B400B00AAF00B00BAA0072
:10128000D00CA500000EA000500F9B00C0109600CF
:101290005012910000148C00C0158700B017820016
:1012A000B0197D00D01B7800001E730040206E0036
:1012B00090226900F024640040275F0090295A00C2
:1012C000E02B5500102E500020304B00103246000D
:1012D000E033410090353C00103737007038320061
:1012E000A0392D00B03A2800A03B2300603C1E002E
:1012F000103D1900903D1400103E0F00703E0A0092
:10130000C03E0500003F0000403FFBFF803FF6FF6E
:10131000C03FF1FF4572726F722077726974696E17
:101320006720746F20454550524F4D210A003637D3
:1013300026032B3C3D382A2E303E1224221E021A50
:101340001C180A2C432D09072C2D44000100008C89
:101350004200008C42000080400202040000A040D5
:101360000000A040000000400000D2430000CD4338
:101370000000E143FFFFFF5761726E696E673A201C
:10138000486F6D696E672042756D7020446976699B
:10139000736F72203C20310A003F5A206F75742011
:1013A0006F662072616E67652028003F59206F7557
:1013B00074206F662072616E676520282D0020748E
:1013C0006F20003F58206F7574206F662072616E29
:1013D000676520282D0050726F6265204F66667326
:1013E0006574205800656E7175657565696E672056
:1013F00022006F6B00526573656E643A20002569A8
:101400007920256964202569682025696D20256972
:10141000730042656420436F6F6C696E672E2E2ED9
:101420000023646566696E652044454641554C5409
:101430005F004B6420004B6920004B702000504936
:1014400044204175746F74756E652066696E6973AA
:10145000686564212050757420746865206C617320
:1014600074204B702C204B6920616E64204B6420EB
:10147000636F6E7374616E74732066726F6D206239
:10148000656C6F7720696E746F20436F6E66696755
:1014900075726174696F6E2E680A0050494420416C
:1014A00075746F74756E65206661696C6564212062
:1014B00074696D656F75740A000A20436C617373FB
:1014C000696320504944200A00204B643A200020E0
:1014D0004B693A2000204B703A20000A204E6F20C2
:1014E0006F76657273686F6F740A002054753A20C6
:1014F00000204B753A2000206D61783A2000206D65
:10150000696E3A200020643A200020626961733AD3
:101510002000504944204175746F74756E652073C6
:10152000746172740A00504944204175746F747577
:101530006E65206661696C6564212054656D706517
:1015400072617475726520746F6F20686967680ACC
:1015500000504944204175746F74756E65005049A0
:1015600044204175746F74756E65206661696C65A1
:10157000642120426164206578747275646572200C
:101580006E756D6265720A0024F4D43050C38E20EB
:10159000C2A24017828B7011127A910D816CD90A08
:1015A000A861E108C7586607615143061E4B5D05F7
:1015B000C145A7041A411104093D9803713931034B
:1015C0004036DB0265339102D4305402802E1D0276
:1015D000632CEE01752AC501B028A00110278101F6
:1015E0008F2564012B244B01E0223401AC211F0123
:1015F0008D200D01801FFC00841EED00971DDF0073
:10160000B81CD200E61BC600201BBC00641AB20046
:10161000B219A8000A19A0006A189900D117910000
:1016200040178B00B516840031167E00B315790083
:101630003A157300C7146F0058146A00EE13660061
:101640008813630025135E00C7125B006C125700FD
:1016500015125400C111510070114F0021114B009F
:10166000D61049008D104700461044000210420079
:10167000C00F4000800F3E00420F3C00060F3B00B1
:10168000CB0E3800930E37005C0E3500270E340069
:10169000F30D3200C10D3100900D3000600D2E00B1
:1016A000320D2D00050D2C00D90C2B00AE0C29009D
:1016B000850C29005C0C2700350C27000E0C260039
:1016C000E80B2400C40B2400A00B23007D0B230097
:1016D0005A0B2100390B2100180B2000F80A1F00BB
:1016E000D90A1E00BB0A1E009D0A1D00800A1D00AB
:1016F000630A1C00470A1B002C0A1B00110A1A006F
:10170000F7091A00DD091900C4091900AB0919000D
:10171000920917007B091800630917004C0916008D
:1017200036091600200916000A091500F5081500EB
:10173000E0081400CC081400B8081400A408140031
:10174000900813007D0812006B081300580812005F
:101750004608120034081100230811001208110075
:1017600001081100F0071000E0071000D00710007A
:10177000C0071000B0070F00A107100091070E006E
:1017800083070F0074070F0065070E0057070E0050
:1017900049070E003B070D002E070E0020070D0025
:1017A00013070D0006070D00F9060C00ED060D00ED
:1017B000E0060C00D4060C00C8060C00BC060C00A9
:1017C000B0060C00A4060B0099060C008D060B0059
:1017D00082060B0077060B006C060B0061060A0000
:1017E00057060B004C060A0042060A0038060A009B
:1017F0002E060A0024060A001A060A00100609002E
:1018000007060A00FD050900F4050900EB050900BB
:10181000E2050900D9050900D0050900C70509003E
:10182000BE050900B5050800AD050800A5050900BD
:101830009C050800940508008C0508008405080034
:101840007C050800740508006C05070065050800A4
:101850005D050700560508004E050700470507000F
:101860004005080038050700310507002A05070074
:10187000230507001C050600160507000F050700D5
:101880000805060002050700FB040600F504070032
:10189000EE040600E8040600E2040700DB0406008C
:1018A000D5040600CF040600C9040600C3040600E0
:1018B000BD040600B7040600B1040500AC04060030
:1018C000A6040600A00405009B040600950405007C
:1018D000900406008A0405008504050080040600C3
:1018E0007A04050075040500700405006B0405000A
:1018F00066040500610405005C040500570405004A
:10190000520405004D040500480405004304050089
:101910003E0404003A0405003504050030040400C8
:101920002C04050027040400230405001E04040001
:101930001A04040016040500110404000D04040038
:10194000090405000404040000040400FC0304006E
:10195000F8030400F4030400F0030400EC030400A3
:10196000E8030400E4030400E0030400DC030400D3
:10197000D8030400D4030400D0030400CC03040003
:10198000C8030300C503030024F404D9201BC40CBE
:101990005C0E9804C4095F0265077101F405F90043
:1019A000FB04B30048048700C103690058035500D5
:1019B00003034500BE023A008402310053022A00AC
:1019C0002902250004022000E4011C00C8011900BE
:1019D000AF01170098011400840113007101100079
:1019E0006101100051010E0043010D0036010B0092
:1019F0002B010B0020010B00150109000C0109004F
:101A000003010800FB000800F3000800EB000700DA
:101A1000E4000600DE000600D8000600D200060042
:101A2000CC000500C7000500C2000500BD00040091
:101A3000B9000400B5000400B1000400AD000400CA
:101A4000A9000400A5000300A20003009F000400F9
:101A50009B00030098000300950002009300030020
:101A6000900003008D0002008B000300880002003C
:101A70008600020084000300810002007F00020053
:101A80007D0002007B000200790002007700010067
:101A90007600020074000200720001007100020072
:101AA0006F0002006D0001006C0002006A0001007E
:101AB0006900020067000100660001006500010086
:101AC000640002006200010061000100600001008A
:101AD0005F0002005D0001005C0001005B0001008E
:101AE0005A00010059000100580001005700010090
:101AF0005600010055000100540001005300000091
:101B0000530001005200010051000100500001008B
:101B10004F0001004E0000004E0001004D0001008A
:101B20004C0001004B0000004B0001004A00010086
:101B30004900010048000000480001004700010082
:101B4000460000004600010045000000450001007D
:101B50004400010043000000430001004200000077
:101B6000420001004100000041000100400001006E
:101B70003F0000003F0001003E0000003E00010069
:101B80003D0000003D0001003C0000003C00000062
:101B90003C0001003B0000003B0001003A00000057
:101BA0003A0001003900000039000100380000004F
:101BB0003800000038000100370000003700010045
:101BC000360000003600000036000100350000003D
:101BD0003500000035000100340000003400000032
:101BE0003400010033000000330000003300010026
:101BF000320000003200000032000100310000001D
:101C00003100000031000100300000003000000011
:101C1000300001002F0000002F0000002F00000006
:101C20002F0001002E0000002E0000002E000100F9
:101C30002D0000002D0000002D0000002D000100EF
:101C40002C0000002C0000002C0000002C000100E3
:101C50002B0000002B0000002B0000002B000100D7
:101C60002A0000002A0000002A0000002A000100CB
:101C700029000000290000002900000029000000C0
:101C800029000100280000002800000028000000B2
:101C900028000000280001002700000027000000A5
:101CA0002700000027000000270001002600000098
:101CB000260000002600000026000000260001008B
:101CC0002500000025000000250000002500000080
:101CD0002500000025000100240000002400000071
:101CE0002400000024000000240001002300000064
:101CF0002300000023000000230000002300000058
:101D00002300000023000100220000002200000048
:101D1000220000002200000022000000220001003A
:101D2000210000002100000021000000210000002F
:101D3000210000002100000021000100200000001F
:101D40002000000020000000200000002000000013
:101D50002000000020000000200001001F00000003
:101D60001F0000001F0000001F0000001F000000F7
:101D70001F0000001F0001001E0000001E000000E8
:101D80001E0000001E000000C23100001C260000E2
:101D9000F4190000D80F0000EB080000C004000098
:101DA00075020000400100002053697A653A200066
:101DB00043616E6E6F74206F70656E207375626420
:101DC00069722000534420496E6974204661696C31
:101DD0000053442063617264206F6B0A006F70656A
:101DE0006E526F6F74206661696C65640A00766F6D
:101DF0006C756D652E696E6974206661696C6564C9
:101E00000A004E6F20534420636172640A004D3211
:101E1000332025730046696C652073656C656374B7
:101E200065640A0046696C65206F70656E65643A8A
:101E30002000454E4420535542524F5554494E457B
:101E40000A002220706F73002220706172656E7428
:101E50003A2200535542524F5554494E4520434172
:101E60004C4C207461726765743A2200537562634A
:101E7000616C6C204F766572666C6F770045786395
:101E80006565646564206D617820535542524F55F5
:101E900054494E452064657074683A310A004465BF
:101EA0006C6574696F6E206661696C65642C204690
:101EB000696C653A200046696C652064656C6574E0
:101EC00065643A006F70656E206661696C65642CAC
:101ED0002046696C653A200057726974696E672004
:101EE000746F2066696C653A200042656420583A38
:101EF000200046696C616D656E742050757267696B
:101F00006E672E2E2E005265686561742066696EBC
:101F100069736865642E0048656174657220546950
:101F20006D656F7574004E6F7A7A6C6520506172C2
:101F30006B65640050726F62696E67204661696C00
:101F400065640A00486F6D6520257325732573202D
:101F5000466972737400220A00556E6B6E6F776E5D
:101F600020636F6D6D616E643A20220020453A0057
:101F7000205A3A0020593A0000002100240027008E
:101F80002A002D0030003300010100000401070188
:101F90000A01000020002300260029002C002F0049
:101FA00032000001000003010601090100000A0BD4
:101FB00002090C0D0E0807030401000000000000D8
:101FC0000000000000000000000000000000000011
:101FD00000000000000000001211100000000000CE
:101FE00000000000000000000000000000000000F1
:101FF00000002062797465733B2063726320004E99
:102000006F20454550524F4D2E0A00454550524FC6
:102010004D206461746173697A65206572726F72B4
:102020002E0A00454550524F4D2056657273696F18
:102030006E204572726F7200454550524F4D2049D7
:102040006E646578204572726F7200454550524F3C
:102050004D20435243204572726F72002073746F9B
:102060007265642073657474696E67732072657439
:10207000726965766564202800202863616C637549
:102080006C6174656429210A0020213D20004545CA
:1020900050524F4D20435243206D69736D617463FC
:1020A00068202D202873746F726564292000496EA2
:1020B0006465783A2000204D61726C696E3D563837
:1020C00031290A00454550524F4D2076657273699B
:1020D0006F6E206D69736D6174636820284545508B
:1020E000524F4D3D00486F6D696E67204661696CC7
:1020F0006564006F70656E0054524947474552450C
:10210000440066696C616D656E74007A5F70726F11
:102110006265007A325F6D696E007A5F6D696E008C
:10212000795F6D696E00785F6D696E005265706FE2
:102130007274696E6720656E6473746F7020737457
:10214000617475730A004361703A004348414D421F
:1021500045525F54454D50455241545552450042F9
:102160004142595354455050494E47004152435300
:10217000004D4F54494F4E5F4D4F44455300544816
:1021800045524D414C5F50524F54454354494F4E78
:10219000004C4F4E475F46494C454E414D4500412E
:1021A00055544F5245504F52545F53445F5354411E
:1021B000545553005344434152440050524F4D50E4
:1021C000545F535550504F525400454D455247456A
:1021D0004E43595F50415253455200434153455F6E
:1021E0004C494748545F4252494748544E4553531F
:1021F00000544F47474C455F4C49474854530053A0
:102200004F4654574152455F504F57455200425533
:10221000494C445F50455243454E54004C45564549
:102220004C494E475F44415441005A5F50524F421F
:10223000450052554E4F5554004155544F4C45564C
:10224000454C005052494E545F4A4F420050524F45
:102250004752455353004155544F5245504F5254E5
:102260005F54454D5000564F4C554D4554524943CF
:1022700000454550524F4D0042494E4152595F462C
:10228000494C455F5452414E5346455200534552C6
:1022900049414C5F584F4E5F584F464600464952A1
:1022A0004D574152455F4E414D453A4D61726C6903
:1022B0006E20322E302E3720284F63742020342099
:1022C000323032302031353A33353A3534292053E3
:1022D0004F555243455F434F44455F55524C3A6812
:1022E000747470733A2F2F6769746875622E636F08
:1022F0006D2F4D61726C696E4669726D77617265A2
:102300002F4D61726C696E2050524F544F434F4CA9
:102310005F56455253494F4E3A312E30204D41437E
:1023200048494E455F545950453A334420507269EC
:102330006E7465722045585452554445525F434F60
:10234000554E543A3120555549443A6365646532D7
:102350006132662D343161322D343734382D396293
:1023600031322D6335356336326633363766660A69
:102370000047322F47332062616420706172616DC3
:1023800065746572730A0020436F756E7420583A45
:102390000042656400453100626564002C20737959
:1023A0007374656D2073746F707065642120486567
:1023B000617465725F49443A200048656174696ED2
:1023C00067204661696C65640048656174696E6781
:1023D000206661696C6564004D3131322053687547
:1023E00074646F776E000020520048617264636FFE
:1023F0006465642044656661756C7420536574740B
:10240000696E6773204C6F616465640A003B20004D
:1024100020204D363033200020204D3431322053DF
:102420000046696C616D656E742072756E6F7574AF
:102430002073656E736F723A0020550046696C61B7
:102440006D656E74206C6F61642F756E6C6F616466
:10245000206C656E677468733A0020204D39303007
:10246000204B004C696E65617220416476616E6339
:10247000653A0020204D3835312058005A2D5072D1
:102480006F6265204F66667365740020204D34319D
:1024900033205300506F7765722D4C6F7373205249
:1024A00065636F766572793A0020204D33303420B1
:1024B000500020204D3330312050005049442073CB
:1024C000657474696E67733A0020204D36363600A5
:1024D000456E6473746F702061646A7573746D65A2
:1024E0006E743A00202047323920572049002020BE
:1024F0004D3432302053004175746F2042656420A2
:102500004C6576656C696E673A0020204D32303636
:10251000205800486F6D65206F66667365743A00D9
:10252000204A0020204D323035204200416476613F
:102530006E6365643A20423C6D696E5F7365676DDA
:10254000656E745F74696D655F75733E20533C6D95
:10255000696E5F66656564726174653E20543C6DAA
:10256000696E5F74726176656C5F666565647261E1
:1025700074653E204A3C6A756E635F6465763E0012
:1025800020540020204D32303420500041636365D8
:102590006C65726174696F6E2028756E6974732F33
:1025A0007332293A20503C7072696E745F616363C4
:1025B000656C3E20523C726574726163745F616346
:1025C00063656C3E20543C74726176656C5F616338
:1025D00063656C3E0020204D3230312058004D6143
:1025E00078696D756D20416363656C6572617469AE
:1025F0006F6E2028756E6974732F7332293A00202C
:102600004500205A0020590020204D3230332058F8
:10261000004D6178696D756D2066656564726174E1
:1026200065732028756E6974732F73293A0053748B
:102630006570732070657220756E69743A0020446D
:102640000020204D323030205300204469736162F5
:102650006C65640A0046696C616D656E7420736513
:102660007474696E67733A0020286D6D290020200C
:10267000473231202020203B20556E697473206939
:102680006E206D6D0000004843000048430000C804
:10269000410000C8410000A0420000C8420000C83C
:1026A000430080CA43B80B0000B80B000064000070
:1026B00000102700005072696E74696E672E2E2E0E
:1026C000004A313400454E4400464E2000005BE491
:1026D0003DE411241FBECFEFD1E2DEBFCDBF00E04D
:1026E0000CBF13E0A0E0B2E0E0ECF9EE01E00BBFBC
:1026F00002C007900D92A03BB107D9F727E1A0EBEC
:10270000B3E001C01D92AE30B207E1F713E1C8E6B5
:10271000D3E100E006C021970109802FFE010E944D
:102720002BF1C736D10780E00807A9F70E94D3DE56
:102730000C94CEF40C9400002F923F924F925F9233
:102740006F927F928F929F92AF92BF92CF92DF92C1
:10275000EF92FF920F931F93CF93DF93CDB7DEB726
:10276000E5970FB6F894DEBF0FBECDBF8CAB2091BE
:10277000B90328AB81E08093B903809126168D348C
:1027800009F440C3843511F40C947425873411F096
:102790000C94992520912416309125162B31310562
:1027A00009F48DC09CF42430310534F42230310515
:1027B000CCF537FF2BC022C32430310509F440C0CB
:1027C0002531310511F40C949B2518C32A323105AB
:1027D00009F4EDC15CF42D31310509F49AC00CF413
:1027E00088C02E31310509F4B2C008C32B3531053C
:1027F00009F427C12C35310509F428C12A353105E2
:1028000009F0FCC21092760F0C949B258091190D53
:10281000813011F00C949B250E94367C0E94C49755
:102820000C949B258091190D813011F00C949B25FF
:102830002230310509F080E00E94C2CA0C949B2529
:1028400080E50E948B76882329F00E9449726B01F3
:102850007C0103C0C12CD12C760183E50E948B76CC
:10286000882361F00E943D7420E030E04AE754E4A0
:102870000E94ACEA0E94B9F26B017C010E94C891EF
:1028800080919115811105C060E08BE594E00E9474
:1028900019C80E9494BDC60ED71EE81EF91E0E94DC
:1028A00094BDDC01CB018C199D09AE09BF09B7FDB0
:1028B00002C00C949B2580E00E94A96BF0CF0E947F
:1028C00006B981110C949B258CE0E1E8F2E0DE0171
:1028D000119601900D928A95E1F760E070E080E535
:1028E0000E947682BE016F5F7F4F0E94D0C60C941B
:1028F0009B258091CB038770873011F00C94A42521
:1029000060E08FE40E94B77681110C949B250C94B3
:10291000A4250E9494BD60939013709391138093AB
:102920009213909393130E9406B981110C949B25E6
:1029300080917B0F882311F40C94E52660E08FE4EE
:102940000E94B77681110C949B250C94E52620916A
:10295000BE033091BF034091C0035091C103609109
:102960003B0270913C0280913D0290913E020E9498
:1029700046F1AB01BC0188E50E94ED9B69837A8337
:102980008B839C832091C2033091C3034091C40385
:102990005091C50360913F027091400280914102C5
:1029A000909142020E9446F1AB01BC0189E50E9470
:1029B000ED9B6D837E838F839887BE016B5F7F4F16
:1029C000CE0101960E945972882311F40C949B2524
:1029D00080E00E94E5510E949C9A61E085E40E949B
:1029E000B77621E0482FBE016B5F7F4FCE01019685
:1029F0000E94D9B96B017C019B01AC010E9438F4A3
:102A0000811119C049815A816B817C818AEE9EE1D6
:102A10000E94C2554D815E816F81788582E397E087
:102A20000E94C255B701A6018DE297E00E94C255EF
:102A30008AE00E94BB8F0E94839A0E941BC50C945F
:102A40009B258FE08093760F0C949B258091231615
:102A5000882349F1893009F0A6C08DE8A82E82E0CC
:102A6000B82E9BE3E92E92E0F92ED12C00E010E085
:102A7000D5018D915D010E948B76882369F00E94BB
:102A80003D74F7016083718382839383133011F463
:102A900001E002C0DD24D3941F5FF4E0EF0EF11CCF
:102AA000143031F775C0BDE82B2EB2E03B2E1AE989
:102AB000E12E1FE0F12E2BE332E039A728A70DED20
:102AC000C02E05E1D02E00E010E0D1018D911D0156
:102AD0000E948B76882309F44BC00E943D742B0121
:102AE0003C01133049F0F60120813181428153814C
:102AF0000E9445F12B013C01A8A5B9A52D913D915E
:102B00004D915C91C301B2010E9445F14B015C0102
:102B10002DEB37E346E855EB0E94A6F387FD0AC08C
:102B20002DEB37E346E855E3C501B4010E9446EAC0
:102B30001816F4F4133051F44092470250924802B0
:102B40006092490270924A0201E012C0A50194010C
:102B5000F70160817181828193810E9446F1D701E2
:102B60006D937D938D939C931397812F0E94B595C0
:102B70001F5FB4E0EB0EF11CE8A5F9A53496F9A7A8
:102B8000E8A7F4E0CF0ED11C143009F09ECF05C0A9
:102B9000DD2019F00E9419C506C0002321F087E44A
:102BA00092E00E94C14C0E941BC50C949B25809111
:102BB000190D813011F00C949B2589E40E948B76CD
:102BC000E82E882321F00E940974062F01C000E03E
:102BD0008AE40E948B76F82E882321F00E940974E3
:102BE000162F01C010E0EE2011F0053020F4FF2078
:102BF00041F0153030F084E694E00E94FE540C94CD
:102C00009B2580E1EBE3F2E0A3E2B4E101900D92B9
:102C10008A95E1F7EE2019F1602F000F770B880BF2
:102C2000990B0E944DEA20917A1630917B164091C3
:102C30007C1650917D160E94ACEA2091E9153091E6
:102C4000EA154091EB155091EC150E9446F1609306
:102C50002314709324148093251490932614FF203A
:102C600019F1612F110F770B880B990B0E944DEA18
:102C700020917E1630917F164091801650918116DA
:102C80000E94ACEA2091ED153091EE154091EF15C0
:102C90005091F0150E9446F1609327147093281408
:102CA0008093291490932A1460E080E50E94B776FF
:102CB0008823C1F1EE20D1F02091BE033091BF03F3
:102CC0004091C0035091C10360912314709124146A
:102CD00080912514909126140E9445F1609323144D
:102CE000709324148093251490932614FF20D1F020
:102CF0002091C2033091C3034091C4035091C50396
:102D000060912714709128148091291490912A14AD
:102D10000E9445F16093271470932814809329141E
:102D200090932A1440E050E0BA0186E40E94ED9BA3
:102D30006B017C0120E030E0A9010E94A6F3181687
:102D40005CF420E030E040E752E4C701B6010E94A5
:102D500040F26B017C0103C0C12CD12C7601809024
:102D6000370290903802A0903902B0903A0220E0E9
:102D700030E0A901C701B6010E9446EA882341F06C
:102D8000C0923702D0923802E0923902F0923A02B1
:102D9000009105021091060284E690E090930602ED
:102DA00080930502C0901102D0901202E0901302AD
:102DB000F090140280E090E0A0E8BFE3809311025D
:102DC00090931202A0931302B09314020E94C4972E
:102DD0008092370290923802A0923902B0923A0261
:102DE0001093060200930502C0921102D0921202C3
:102DF000E0921302F09214020C949B250E949DB85D
:102E00000C949B2500912416109125160937110565
:102E100009F4A7C70CF035C10E34110509F43CC400
:102E20000CF0A1C00A31110509F45BC3DCF50431D3
:102E3000110509F4ACC28CF40131110509F493C2F7
:102E400034F40230110508F45AC20C947125023191
:102E5000110509F448C60C9471250731110509F4D0
:102E6000CBC29CF40531110509F4C2C2063111052B
:102E700011F00C9471250E94C7B080912511877FB5
:102E80008062809325110C949B250831110509F46B
:102E9000CAC20931110511F00C9471250E94AD814F
:102EA0000C949B250032110509F493C30CF03FC02C
:102EB0000D31110509F476C38CF40B31110509F4B9
:102EC0001EC30C31110511F00C947125809121164F
:102ED000909122160E94C7B40C949B250E311105C7
:102EE00009F467C30F31110511F00C9471250E948C
:102EF00071C66C8F7D8F8E8F9F8FBE016F5F7F4FEE
:102F0000CE014C960E9483A360E0CE0101960E9400
:102F100058C80E94F755BE016F5F7F4F8FEF94E056
:102F20000E94E0558AE00E94BB8F0C949B250B34D5
:102F3000110509F4A3C354F40A32110509F472C34C
:102F40000934110509F487C30C9471250C3411055B
:102F500009F498C30D34110511F00C9471250E94E9
:102F6000554A0C949B250C36110511F40C949B25A5
:102F70000CF047C00535110509F4EEC54CF50235D6
:102F8000110509F4A0C5D4F40135110511F00C9414
:102F900071250E94EC8A0E94554A0E94D9910E9494
:102FA000D98C68EE73E080E090E00E944E5460E0BF
:102FB00083E995E00E9419C80C949B2503351105FF
:102FC00009F489C50435110509F48DC50C947125E2
:102FD0000936110509F464C454F40C35110509F4DB
:102FE000DFC50836110509F4E9C30C9471250A36CA
:102FF000110509F469C40B36110509F48FC40C944A
:1030000071250237110509F455C6D4F40F361105A0
:1030100009F4A6C454F40D36110509F4EFC30E36B5
:10302000110509F48AC40C9471250037110511F4B7
:103030000C949B250137110509F4D7C40C94712514
:103040000637110509F450C654F40337110509F485
:1030500038C60537110509F437C60C9471250737B2
:10306000110509F47BC60837110511F00C94712580
:1030700081E08093520B8093510B0E943AC60C94CE
:103080009B25023921E0120711F40C945E220CF00A
:103090008EC0033D110509F49FC7F4F5083C1105E6
:1030A00009F466C6DCF40C38110509F4C3C44CF409
:1030B0000D37110511F00C9471250E94AD810C940F
:1030C0009B250B39110509F4D6C40E3B110511F0EF
:1030D0000C9471250E94A6A10C949B250C3C110513
:1030E00009F429C754F4093C110509F488C60B3CBE
:1030F000110509F401C70C9471250D3C110509F463
:103100004EC70E3C110511F00C94712556EAE52EC0
:103110005FE0F52E10E046C70D3281E0180711F48C
:103120000C942421E4F4023E110509F4D5C754F4AB
:103130000C3D110509F453C70D3D110509F476C77F
:103140000C9471250232A1E01A0711F40C94B820F6
:103150000C32114011F40C940F210C9471250033A2
:10316000E1E01E0711F40C94A4217CF40E3221E05E
:10317000120711F40C9417220F32114011F00C9425
:1031800071250E94049C0C949B25003981E018074E
:1031900011F40C945B220139114011F00C9471254B
:1031A00081E00E9474490E941BC50C949B250C3041
:1031B000A2E01A0711F40C9460230CF04BC00C3AF7
:1031C000E1E01E0711F40C94E2220CF50D3921E028
:1031D000120711F40C9436256CF40A3981E01807B3
:1031E00011F40C949B250C39114011F40C946422B9
:1031F0000C947125043AA1E01A0711F40C946A2288
:10320000053A114011F40C946D220C947125063F7F
:10321000E1E01E0711F40C9443237CF4043F21E009
:10322000120711F40C944023053F114011F00C9447
:1032300071250E9424D80C949B25073F81E0180734
:1032400011F40C944623083F114011F40C944F23C1
:103250000C9471250335A3E01A0711F40C94BC24D7
:103260000CF50A39E2E01E0711F40C94E9236CF422
:10327000083522E0120711F40C946D230B3512402F
:1032800011F40C9470230C9471250D3B82E0180707
:1032900011F40C9402240E3B124011F40C940524FA
:1032A0000C947125073EA3E01A0711F40C9428250D
:1032B000CCF40438E3E01E0711F40C94BF24003A68
:1032C000134011F00C947125209121163091221693
:1032D00090912511926090932511C9010E94C7B465
:1032E0000C949B25083E23E0120711F40C944D2505
:1032F000093E134011F40C9450250C94712580E57F
:103300000E948B76882329F00E9449726B017C0110
:1033100003C0C12CD12C760183E50E948B768823D3
:1033200061F00E943D7420E030E04AE754E40E94DE
:10333000ACEA0E94B9F26B017C010E94C8918091B5
:10334000211690912216009719F00E94ABB804C084
:103350008DE794E00E948AC840E0C701B6010E9450
:103360008D8C0C949B2580913D1484FF02C00C949D
:10337000E82680913F1487FF02C00C94E8268091D4
:103380004014837011F00C94E8260C94052780916A
:10339000251183FF25C088EA94E00E94FE548091A5
:1033A000251183FF17C081E491E10E942F608BE11A
:1033B000E1E4F1E1DE01119601900D928A95E1F7C9
:1033C00060E070E0CE0101960E94ECB5CE0101965E
:1033D0000E94C67B89E994E00E94FE540C949B25D0
:1033E0000E94F75589EB94E00E94FE540C949B25B3
:1033F0000E947CB10C949B25E0912116F09122163D
:103400008081882329F0803209F410823196F8CF28
:1034100060E080912116909122160E9411B51092C1
:1034200075040C949B2583E50E948B76882321F0FC
:103430000E9409740E9462A484E50E948B7688230E
:10344000A9F00E9409746B017C010E94A5C6C0927C
:10345000240BD092250BE092260BF092270BCD285F
:10346000CE28CF2819F081E08093901680918F1696
:103470008823F9F080E090E0A8E4B2E488A399A35F
:10348000AAA3BBA31C8E1D8E1E8E1F8E19821A82AC
:103490001B821C8200E010E020E0AE01405E5F4F26
:1034A000BE01645E7F4FCE0101960E94B9580C9414
:1034B0009B250E94CB8C882381F00E94D8B00E946B
:1034C000E64982EF9FE00E947DB010924114109275
:1034D000421410924314109244140E9450DD0C9434
:1034E0009B258091251183FD02C00C949B2583E5CB
:1034F0000E948B7681110C9414270C949B2583E4F5
:103500000E947074882319F18DEC94E00E94FE549F
:1035100080918812882391F0BE016F5F7F4F85E80C
:1035200092E10E94FB5F8E010F5F1F4FD8018D91CA
:103530008D01882339F00E94BB8FF8CF83EC94E093
:103540000E94FE548AE00E94BB8F0C949B258091C0
:10355000251182FF21C08CED94E00E94FE54609101
:1035600021117091221180912311909124114AE030
:103570000E94C28F8FE20E94BB8F60911D117091DB
:103580001E1180911F11909120114AE00E94C28F5C
:103590000E94C0900C949B258EEE94E00E94FE54F5
:1035A0000C949B25809125118E7F809325110C947E
:1035B0009B258091251183FD02C00C949B250E94C0
:1035C00083B880912116909122160E9430B40C94F9
:1035D0009B258091251182FD0E94C8918091251123
:1035E00083FD02C00C949B2560E080E50E94B776C5
:1035F000182F682F80912116909122160E9411B5E4
:1036000083E50E948B76882321F00E9409740E9432
:1036100062A40E94D8B011110C949B250E94E64927
:103620000C949B256DE070E080E50E9498768C01FB
:1036300097FF02C00C949B25E82E60E089E40E946D
:10364000B77681110C941927802F0E9438E58111DB
:1036500060C50C94192780E50E947074882311F4CA
:103660000C949B250E94197490E08536910510F00A
:1036700084E690E0809375040C949B250E94E649B3
:103680000C949B2580919016813011F00C949B2511
:103690000E9457C60C949B2560E070E083E50E9471
:1036A00098768E34910531F40E94C84A0E9450DD0C
:1036B0000C949B2584E795E00E94FE546091410B99
:1036C0007091420B8BE695E00E94B5556091430BDB
:1036D0007091440B8EE595E00E94B5556091410BC9
:1036E0007091420B8091430B9091440B681B790BB6
:1036F00080919016815021E030E0823010F020E07F
:1037000030E0621B730B83E595E00E94B5558AE0BB
:103710000E94BB8F84E795E00E94FE548091450B88
:103720009091460BA091470BB091480B8C8F9D8FC9
:10373000AE8FBF8FBE016F5F7F4FCE014C960E9450
:1037400083A3BE016F5F7F4F86E495E00E94E05542
:103750008091490B90914A0BA0914B0BB0914C0B6F
:103760008C8F9D8FAE8FBF8FBE016F5F7F4FCE015D
:103770004C960E9483A3BE016F5F7F4F86E395E066
:103780000E94E05520E030E04AE754E460914D0BA0
:1037900070914E0B80914F0B9091500B0E9440F214
:1037A000AB01BC018EE195E00E94C2558DE60E94FE
:1037B000BB8F8AE00E94BB8F0C949B258091750F74
:1037C00083FF02C00C949B250E94137D87FF02C0DB
:1037D0000C949B2583E50E948B76882359F00E94E8
:1037E0003D740E94B2F2CB010E94AB8561E080E0A3
:1037F0000E94CF890E9494DE0C949B258091750FC6
:1038000083FF02C00C949B250E94137DF82E87FF36
:1038100002C00C949B2583E50E948B76182F8111A2
:1038200007C082E50E948B76811102C000E02CC0A7
:103830000E943D740E94B2F2CB010E94AB8561E010
:1038400081E00E94CF8960917A1070917B10072EE1
:10385000000C880B990B0E944DEA4B015C014090D3
:103860007610509077106090781070907910A301C6
:1038700092010E94A6F3181614F40C9470271123D9
:1038800011F40C94562701E00E9494DE002311F4F9
:103890000C949B25612F8F2D0E942D860C949B25C7
:1038A0000E94137D182F87FD0AC082EF93E10E94CA
:1038B000FE54812F0E94BB858AE00E94BB8FF8A92D
:1038C000F093B9030C948C2860E080E50E94AB76FD
:1038D000F82E21E0281710F40C949B2581E40E9417
:1038E0007074882321F060917C0F062F02C00FEFC7
:1038F00010E083E50E948B76882349F00E940974CA
:103900008B016F3F710519F010F00FEF10E0EF2DF4
:10391000F0E0E458F04F00830C949B2560E080E5D4
:103920000E94AB76823010F00C949B25E82FF0E0DB
:10393000E458F04F10820C949B258EE40E948B7605
:10394000882311F40C949B250E9409746093C91478
:103950007093CA148093CB149093CC140C949B2531
:1039600083E50E947074882331F060E083E50E9453
:10397000AB768093750F0E94F75585E895E00E941D
:10398000FE548091750F882369F1A7E1EA2EA7E024
:10399000FA2E00E010E020E08091750F90E0A0E0AA
:1039A000B0E0002E04C0B695A795979587950A9428
:1039B000D2F780FF0EC0DD24D394D20E222319F05B
:1039C0008CE20E94BB8FF701859194910E94FE5476
:1039D0002D2D0F5F1F4F32E0E30EF11C0530110556
:1039E000D9F6B0CD81E895E0ABCD83E50E948B762A
:1039F000882381F00E941974282F30E02D3331057F
:103A000024F4809300020C949B258CE380930002A5
:103A10000C949B250E94F7554091000250E060E015
:103A200070E08CE895E00E94A4558AE00E94BB8F6C
:103A30000C949B258091750F83FF02C00C949B25ED
:103A400083E50E948B76882311F40C949B250E94B9
:103A50003D740E94B2F26C3871050CF48B01109326
:103A6000870F0093860F0E94B48A61E080E00E9475
:103A7000CF890C949B2583E50E948B76882311F4D3
:103A80000C949B250E941974182F90E0CD970CF090
:103A90001CE31093B4030E9494BD6B017C01212FA1
:103AA00030E0A8EEB3E00E94E8F0C60ED71EE81E94
:103AB000F91EC092B003D092B103E092B203F0922B
:103AC000B3030C949B258091760F8F7D806180934A
:103AD000760F0C949B258091760F8F7E8062809369
:103AE000760F0C949B2583E50E948B768823F1F05A
:103AF0000E9494BD609390137093911380939213DE
:103B0000909393130E943D7420E030E04AE754E420
:103B10000E94ACEA0E94B9F2609301027093020223
:103B200080930302909304020C949B2580913D1492
:103B300084FF02C00C94732780913F1487FF02C05A
:103B40000C94732780914014837011F00C947327A8
:103B50000E94D9910C949B2583E50E947074882360
:103B600011F40C949B250E9494BD60939013709364
:103B7000911380939213909393130E943D7420E0CD
:103B800030E04AE754E40E94ACEA0E94B9F2609344
:103B9000B5037093B6038093B7039093B803CBC774
:103BA0000E94137D87FDC7C790913D1494FD04C00A
:103BB00090913F1497FF0AC0EDE8CE2EE2E0DE2E92
:103BC000FEEAEF2EFAE0FF2E10E009C090914014BB
:103BD000937091F7682F81E00E947883ACC7D6017B
:103BE0008D916D010E948B76882309F459C01330A2
:103BF00009F04FC00E943D744B015C0120E030E0B1
:103C000040EA51E40E9446EA87FF3AC0A5019401C8
:103C10006091CE0A7091CF0A8091D00A9091D10A1A
:103C20000E9440F22B013C019B01AC016091DE0A35
:103C30007091DF0A8091E00A9091E10A0E94ACEA5B
:103C40006093DE0A7093DF0A8093E00A9093E10AA2
:103C500060911C0570911D0580911E0590911F05B6
:103C60000E944BEAA30192010E94ACEA0E94B9F2C1
:103C700060931C0570931D0580931E0590931F058E
:103C80008092CE0A9092CF0AA092D00AB092D10A26
:103C900007C00E943D74F701648B758B868B978BF0
:103CA0001F5FF4E0EF0EF11C143009F098CF0E9472
:103CB000A14B41C70E94A1B787EE90E10E9430D688
:103CC0003AC70E94E6CF37C78091211690912216FD
:103CD000009709F402CCDC012C91222309F4FDCBDE
:103CE00060E00E9458C827C7009121161091221643
:103CF00094E0F12C40E0915021F1F8018081282FCF
:103D00002B7F213421F421812133D9F407C0803560
:103D1000C1F4818180538A3048F013C0813421F08E
:103D2000853421F441E002C0FF24F39498012E5F12
:103D30003F4F89012F5F3F4FF80180818032C9F3E7
:103D4000DACF41110E94F755FF2021F083EA95E078
:103D50000E94FE54C8010E94C690EDC60E94FAC59A
:103D6000EAC61092520B1092510B0E943AC6E3C65B
:103D70000E94137D182F87FDDEC60091990F84E401
:103D80000E948B76882311F40C949F270E943D7427
:103D90006B017C0120E030E0A9010E9446EA882303
:103DA00041F124E01202F0011124EB56F04FC082E1
:103DB000D182E282F38220E030E0A9016091950F88
:103DC0007091960F8091970F9091980F0E9446EAFC
:103DD00081110CC080E090E0A0EEBFE38093950FCE
:103DE0009093960FA093970FB093980F01E00C94C7
:103DF0009F2780E08093990F0E9422929CC60E9488
:103E0000137D87FD98C686E40E948B76882311F186
:103E10000E941974853608F084E680931002882386
:103E2000C9F0682F880F770B880B990B0E944DEA19
:103E30009B01AC0160E074E284E799E40E9440F2E7
:103E40000E94B3F360930C0270930D0280930E02F4
:103E500090930F0287E40E948B76882371F10E9471
:103E60003D7420E030E040E85FE30E9446EA87FDD1
:103E700013C00E943D7420E030E048EC52E40E9400
:103E8000A6F3181674F00E943D7420E030E048EC70
:103E900052E40E9440F209C06AE077ED83E29CE3BD
:103EA00004C060E070E080E89FE3609308027093D4
:103EB000090280930A0290930B027DE8E72E72E0DC
:103EC000F72E0EEA1AE0D7018D917D010E947074E1
:103ED000882359F00E943D740E94B9F2F801608372
:103EE0007183828393830E942A4B0C5F1F4FFAE0F9
:103EF0000E3B1F0741F71FC60E94137D87FD1BC69F
:103F00006DE8E62E62E0F62E0EEA1AE0D7018D91FA
:103F10007D010E947074882339F00E943D74F8017D
:103F200064A375A386A397A30C5F1F4FFAE00E3B13
:103F30001F0761F700C680913E1487FF02C00C94F2
:103F4000A52780913F148E7011F00C94A527409105
:103F5000E20A5091E30A6091E40A7091E50A87EA67
:103F600095E00E94C2554091E60A5091E70A60919F
:103F7000E80A7091E90A87EE93E20E94C2554091E7
:103F8000EA0A5091EB0A6091EC0A7091ED0A80E820
:103F900095E20E94C2558AE00E94BB8FCCC50E9468
:103FA000B383C9C588E5810F0E947074882359F0D6
:103FB0000E943D74D7016D937D938D939C931397CD
:103FC000812F0E94B5951F5FB4E0EB0EF11C1330FA
:103FD00049F70E941BC5AFC50E948982ACC583E525
:103FE0000E948B76882331F00E9409747093060238
:103FF0006093050280913D1490913E14A0913F146E
:10400000B0914014892B8A2B8B2B09F094C56091B9
:1040100005027091060287EB95E00E94D35585E278
:104020000E94BB8F8AE00E94BB8F85C50E94137DD2
:10403000F82E87FD80C583E50E948B760F2D0F2C0F
:10404000000C110B882369F10E940974F801EE0F2E
:10405000FF1FEC5AFD4F71836083000F111F000F8B
:10406000111FF801EF5EFD4F7F01072E000C880B3A
:10407000990B0E944DEA2AE037ED43E25CE30E948F
:10408000ACEAF801ED5CFB4E208131814281538125
:104090000E94ACEAD7016D937D938D939C93139707
:1040A0004AC50E94F75585E40E94BB8F80E38F0DBF
:1040B0000E94BB8F000F111FF801EC5AFD4F608169
:1040C00071818BEB95E00E94D35585E20E94BB8FF6
:1040D0008AE00E94BB8F2FC580E50E947074882300
:1040E00009F429C560E070E080E50E949876F82E1A
:1040F0006FEF7FEF83E50E9498768C01019603971E
:1041000008F019C5F7FC17C58F2D0E9438E58823E4
:1041100039F00E94F35583EC95E00E94FE540BC5E4
:104120000E94C89160E08F2D0E9455BC0F3FBFEFE9
:104130001B0731F00130110571F000E010E00DC0F7
:104140008F2D0E945DE531E020E0892B09F030E001
:10415000032F122F02C001E010E08F2D0E945DE5B9
:104160008017910709F4E7C480E00E94A96BF5CF9E
:104170008AE50E948B76811106C083E50E948B76CA
:10418000882309F440C00E943D7420E030E040E004
:1041900050EC0E9446EA87FD24C70E943D7420E04F
:1041A00030E040E050E40E94A6F318160CF413C768
:1041B0000E943D746B017C0184E00E941097811184
:1041C00022C02091CA0A3091CB0A4091CC0A50916A
:1041D000CD0AC701B6010E94ACEA0E94B2F220915A
:1041E000BC033091BD03260F371F3093BD032093CE
:1041F000BC032091BA033091BB03620F731F70930D
:10420000BB036093BA0380913F1487FDF0C6809191
:104210004014837009F0EBC60E94F7558CC464E02B
:1042200071E083E50E9476828C0168EE73E080E5A0
:104230000E9476828938E3E19E0710F088E893E1D6
:10424000B8010E94ECC777C460E085E40E94AB76B9
:10425000811173C080E50E947074882351F00E9420
:104260003D7460937D1070937E1080937F109093C7
:10427000801089E40E947074882381F00E943D744C
:104280002CEA35EC47E25EE30E94ACEA60938110D1
:1042900070938210809383109093841084E40E9422
:1042A0007074882381F00E943D742CEA35EC47E25B
:1042B0005EE30E9440F260938510709386108093B5
:1042C0008710909388100E94F75540917D1050916F
:1042D0007E1060917F10709180108AED95E00E94B1
:1042E000C2552CEA35EC47E25EE360918110709193
:1042F000821080918310909184100E9440F2AB0153
:10430000BC0186ED95E00E94C2552CEA35EC47E2EF
:104310005EE3609185107091861080918710909176
:1043200088100E94ACEAAB01BC0182ED95E00E94CE
:10433000C2558AE00E94BB8FFEC30E94F3558EEDEA
:1043400095E00E94FE54F7C380E50E9470748823B4
:1043500051F00E943D746093890F70938A0F80938F
:104360008B0F90938C0F89E40E947074882381F0E6
:104370000E943D742CEA35EC47E25EE30E94ACEA11
:1043800060938D0F70938E0F80938F0F9093900F8B
:1043900084E40E947074882381F00E943D742CEAAA
:1043A00035EC47E25EE30E9440F26093910F709318
:1043B000920F8093930F9093940F0E94F755409122
:1043C000890F50918A0F60918B0F70918C0F8AED3D
:1043D00095E00E94C2552CEA35EC47E25EE360911D
:1043E0008D0F70918E0F80918F0F9091900F0E9482
:1043F00040F2AB01BC0186ED95E00E94C2552CEA6B
:1044000035EC47E25EE36091910F7091920F8091DD
:10441000930F9091940F0E94ACEAAB01BC0182ED26
:1044200095E00E94C2558AE00E94BB8F84C383E559
:104430000E947074182F882371F00E943D740E94AE
:10444000B2F2709316026093150221E0672B09F017
:1044500020E02093740F80E50E947074882359F047
:104460002091150230911602232B11F00E942D7419
:104470008093740F60C311115EC30E94F75589E0E9
:1044800096E00E94FE548091740F882319F085EF06
:1044900090E202C080EF95E00E94FE546091150208
:1044A0007091160288EF95E00E94D35584EF95E055
:1044B0000E94FE5440C30E94C8913DC380E00E9408
:1044C00074490E941BC537C380913F14867009F060
:1044D00094C5AAC50E94B9742EC36FEF7FEF89E41B
:1044E0000E949876082F6FEF7FEF8AE40E949876FB
:1044F000182F8AE50E948B76811108C081E50E9401
:104500008B76D82E882309F49AC501C0D12CC02EF1
:1045100081E0800F863008F04EC0912E81E0810F3F
:10452000863008F048C00E943D742B013C01F02EFB
:1045300007FDF12C07FF02C004E0C02E812E17FDFD
:10454000812C17FF02C014E0912EB5E03B2ECF1452
:1045500008F4F1C2E82C3F9C500111249E1448F14C
:104560000E2D10E0DD2071F0F501E00FF11FEE0FD0
:10457000FF1FEE0FFF1FE453FC4F2081318142816A
:10458000538103C020E030E0A9010A0D1B1D000F7C
:10459000111F000F111F04531C4FC301B2010E94D1
:1045A00046F1D8016D937D938D939C931397E3947B
:1045B000D5CFF394CCCF0E94F35584E694E00E94CB
:1045C000FE54B9C20E9406B98111B5C200E219E0D9
:1045D000EBE3F2E0F9A7E8A79E012F5F3F4F190137
:1045E00074E7C72E73E1D72E7901F80165917591B3
:1045F00085919491A8A5B9A58D909D90AD90BD9001
:10460000B9A7A8A7A50194010E9445F12B013C017F
:10461000F701608371838283938320E030E040EA76
:1046200051EC0E94A6F387FD0AC020E030E040EA8A
:1046300051E4C301B2010E9446EA18162CF4F601B7
:10464000849118160CF402C5D7018D909D90AD9001
:10465000BD907D0120E030E040EA51ECC501B4019D
:104660000E94A6F387FDFDC420E030E040EA51E45B
:10467000C501B4010E9446EA18160CF004C5F1C445
:104680000E94CF4458C20E94B4D655C261E083E56F
:104690000E94B77691E089270E9432D84CC281E00F
:1046A000809375160E94A0BD10927516882309F498
:1046B00042C20E94F75589E896E00E94FE543BC230
:1046C0008091251182FF04C080648093251133C23C
:1046D00083FF31C20E9483B82EC20E94A2802BC2E7
:1046E0000E94137D082F87FD26C285E50E94707405
:1046F0008823B1F1E02E002E000CFF080E943D74CB
:104700004B015C0120E030E0A9010E94A6F387FF85
:1047100004C0B7FAB094B7F8B094C70153E0880F5B
:10472000991F5A95E1F79C012E57394E7901D9010D
:104730008D929D92AD92BC92139720E030E04FE2B3
:1047400054E4C501B4010E94A6F318164CF480E0AD
:1047500090E0AFE2B4E4F70180839183A283B38356
:104760008CE40E947074882309F4E5C1002E000CCB
:10477000110B0E943D746B017C0120E030E0A90127
:104780000E94A6F387FF04C0F7FAF094F7F8F094BC
:1047900020E030E04FE254E4C701B6010E94A6F3E6
:1047A000980143E0220F331F4A95E1F7F901EE57D4
:1047B000F94E18162CF0C482D582E682F782BBC16E
:1047C00080E090E0AFE2B4E484839583A683B7836E
:1047D000B2C18AE50E948B76882351F00E943D7415
:1047E00060938B1670938C1680938D1690938E1613
:1047F00080913F1487FD9FC180914014837009F020
:104800009AC176C40E948A7F96C10E94137D182F98
:1048100087FD91C18AE50E948B76882381F040E074
:1048200050E0BA018AE50E94ED9B4B015C0120E05B
:1048300030E0A9010E94A6F31816B4F506C0812C39
:10484000912C90EAA92E90E4B92E80E090E0A0EAA5
:10485000B0E489839A83AB83BC8320914302309177
:1048600044024091450250914602C501B4010E94A4
:1048700046F16B017C0120E030E041EE53E40E9400
:1048800046EA87FD06C0C12CD12C81EEE82E83E4D8
:10489000F82ECC8EDD8EEE8EFF8EBE016F5F7F4FC9
:1048A000CE014C960E949E9B85E50E9470748823E1
:1048B00029F00E943D746B017C010AC028E01202BD
:1048C000F0011124EE57F94EC080D180E280F380D0
:1048D00020E030E0A901C701B6010E94A6F387FFDE
:1048E00004C0F7FAF094F7F8F094F7FAF094F7F8B8
:1048F000F094C982DA82EB82FC8280E00E94DF566B
:10490000882321F0CE0101960E94725420E030E00D
:10491000A901C501B4010E94A6F318160CF00BC141
:1049200080E090E0A0EAB0E489839A83AB83BC8303
:10493000A501940160914302709144028091450267
:10494000909146020E9445F16B017C0120E030E02D
:10495000A9010E94A6F318161CF0C12CD12C7601D7
:10496000CC8EDD8EEE8EFF8EBE016F5F7F4FCE014F
:104970004C960E949E9BDFC00E9470A5DCC0A09058
:104980003805B0903905C0903A05D0903B058BE4CE
:104990000E948B76882339F10E943D747B018C0143
:1049A00020E030E0A9010E94A6F387FD0AC020E0C4
:1049B00030E040E251E4B701C8010E9446EA18160F
:1049C000A4F48FE30E94BB8F8BE40E94BB8F80EC2A
:1049D00096E00E94FE5488EB96E00E94FE548CE123
:1049E00090E10E94FE54750186019701A801B5016E
:1049F000C6010E9446EA882361F00E94C891C7015F
:104A0000D8018093380590933905A0933A05B09367
:104A10003B0580913D1490913E14A0913F14B091BC
:104A20004014892B8A2B8B2B09F085C00E94F755E7
:104A3000409138055091390560913A0570913B05D8
:104A400084ED96E00E94C2558AE00E94BB8F73C03D
:104A500081E08093190D1092D11560E083E50E94EA
:104A6000B776811168C00E94BBA465C083E50E942F
:104A70007074882339F00E942D7480938A160E94E6
:104A8000B47B59C00E94F7558FED96E00E94FE540A
:104A900080918A160E9498554EC00E943C7D4BC062
:104AA0000E9471C66D3371058105910520F083E187
:104AB00097E00E9497D08FE097E00E9497D084EE15
:104AC000809375040E94AC7B0E94904E8BEF96E021
:104AD0000E94FE5484EF96E090936F0F80936E0FC8
:104AE0002AC00E949DB827C0009124161091251657
:104AF0000E9494BD609390137093911380939213CE
:104B0000909393130023B9F00E94F75584E50E9417
:104B1000BB8FB8017727072E000C880B990B0E94DA
:104B20002F9080E20E94BB8F8EED95E00E94FE5494
:104B300002C00E949DB83CA9311102C00E94ABA4E2
:104B400088A98093B903E8C20E94C89190917B0F15
:104B50009BAB80E00E94E5510E9494BD609390134E
:104B60007093911380939213909393130E949C9A45
:104B700081E08093520B0E943AC68AE50E947074CD
:104B8000082F88E50E947074182F89E50E947074C0
:104B9000181319C1011711F0312E04C033243394B6
:104BA00011E001E082E50E948B76882319F00E94D3
:104BB0003D7404C060E070E080EA90E46CA37DA3E3
:104BC0008EA39FA320E030E0A9010E9446EA88233B
:104BD00049F0111103C0332009F4E2C0CE018496DC
:104BE0000E945DB9112309F4D6C0332009F4D0C066
:104BF00010923B0210923C0210923D0210923E0233
:104C000010923F0210924002109241021092420212
:104C10000E9419C5E4E7F3E134913DABE8E6F3E126
:104C2000C590D590E590F490ECE6F3E185909590F1
:104C3000A590B490A7019601C501B4010E9446EA6F
:104C400087FF05C0A7019601C501B40104C0A501F5
:104C50009401C701B6010E9440F22B013C01E1E53D
:104C6000F3E185919591A591B49188A799A7AAA7F9
:104C7000BBA7EDE4F3E185919591A591B4918CA743
:104C80009DA7AEA7BFA79C01AD0168A579A58AA580
:104C90009BA50E94A6F318163CF42CA49DA599ABE5
:104CA000AEA5AAAB1FA506C028A4B9A5B9ABEAA5B5
:104CB000EAAB1BA5A3019201C301B2010E94ACEAB9
:104CC00020E030E040E85FE30E9446F10E94F4F308
:104CD000222D39A94AA9512F0E94ACEA68A379A3D1
:104CE0008AA39BA3E5E7F3E1149120E030E040ECD8
:104CF0005FE3C501B4010E94ACEA4B015C01612F86
:104D0000110F770B880B990B0E944DEA9B01AC01A8
:104D1000C501B4010E94ACEA69837A838B839C83CA
:104D200020E030E040EC5FE3C701B6010E94ACEA4E
:104D30006B017C01FDA96F2FFF0F770B880B990B7F
:104D40000E944DEA9B01AC01C701B6010E94ACEA8A
:104D50006C8F7D8F8E8F9F8FAE01405E5F4FBE0147
:104D60006F5F7F4FCE014C960E947C9B0E9449C68C
:104D700010923B0210923C0210923D0210923E02B1
:104D800010923F0210924002109241021092420291
:104D900080E00E94D595332019F081E00E94D595DE
:104DA000002319F082E00E94D5950E9419C58091D8
:104DB000510B8093520B8BA90E94E5510E94839A5C
:104DC0000E941BC5B8CE382EEDCE0E94CC76B3CE55
:104DD00088E50E94707481115F9889E50E94707463
:104DE00081118A988AE50E947074882331F080913D
:104DF0000801817080930601479885E40E947074D1
:104E0000882309F498CE129896CE60E080E994E069
:104E10000E9419C85F988A988091080181708093D8
:104E200006014798129887CE0E9409740E9462A4D6
:104E300082CE8DE40E948B768823A9F00E9419749B
:104E4000813039F020F0823049F462E003C060E044
:104E500001C061E0802F0E9455BC05C08CE095E048
:104E60000E94FE5468CE83E50E948B76882309F465
:104E700062CE0E941974F82EB7E0EB1631F0E9E02B
:104E8000EE1206C080937C0F56CE80937D0F53CEDA
:104E900061E0802F0E9455BC6F2D802F0E9426BCA0
:104EA0006F2D70E0802F0E9491BC45CEA30192012E
:104EB000C501B4010E94A6F3181694F086E194E1AE
:104EC0009F938F938CE795E09F938F931F920E94FF
:104ED000BFB90F900F900F900F900F900C94431C40
:104EE00083E19CE0EDCF0E94C89188E50E94707438
:104EF000882321F05F9A80E00E94FE9689E50E9457
:104F00007074882321F08A9A81E00E94FE968AE5D7
:104F10000E947074882351F08091080180958170FF
:104F200080930601479A82E00E94FE9685E40E94E3
:104F30007074882309F4FFCD0E946B8CFCCD602F28
:104F400083E50E94B7760C94FA1E83E50E948B7667
:104F5000882391F00E943D746093E20A7093E30A03
:104F60008093E40A9093E50A6093EA0A7093EB0A4F
:104F70008093EC0A9093ED0A80E50E948B7688235B
:104F800051F00E943D746093E20A7093E30A8093AB
:104F9000E40A9093E50A82E50E948B76882351F01B
:104FA0000E943D746093E60A7093E70A8093E80AD2
:104FB0009093E90A84E50E948B76882309F4BBCD9F
:104FC0000E943D746093EA0A7093EB0A8093EC0AA6
:104FD0009093ED0AB0CDC12CD12CE12C90E4F92EA8
:104FE000EBC8C12CD12CE12C80ECF82EE5C882E571
:104FF0000E947074811110C99ECD82E50E94707468
:10500000082F83E50E947074182F011103C011232B
:1050100009F491CD0E94B358112309F48CCD0E945C
:105020002D748093670287CD0E94F7558CE196E03E
:105030000E94FE54809167020E9498557CCD0E9488
:10504000F3558DE296E00E94FE5475CDB7FAB09408
:10505000B7F8B094D7018D929D92AD92BC92139700
:10506000F3CA0E94F3558BE696E00E94FE5461E07D
:105070008DE596E00E9419C868E270E088EC90E047
:105080000E94ECC758CD0C5F1F4FBFEFCB1ADB0A55
:10509000E9E00C321E0709F0A8CA66EAE62E6FE0C6
:1050A000F62E10E0F10181919191A191B1911F0132
:1050B000F70181939193A193B1937F01812F0E9476
:1050C000B5951F5F133071F70E941BC560E08DE43A
:1050D00096E00E9419C863E972E084E690E00E94BD
:1050E000ECC76AEB72E084E690E00E94ECC723CD47
:1050F00089E996E00E94FE5440918B1650918C16DF
:1051000060918D1670918E1684E996E00E94C255CA
:105110008AE00E94BB8F0FCDE5960FB6F894DEBFF4
:105120000FBECDBFDF91CF911F910F91FF90EF90F8
:10513000DF90CF90BF90AF909F908F907F906F90B7
:105140005F904F903F902F9008954F925F926F9293
:105150007F928F929F92AF92BF92CF92DF92EF9207
:10516000FF920F931F93CF93DF93CDB7DEB7C05459
:10517000D1090FB6F894DEBF0FBECDBF8091F80401
:105180009091760420917704921B9F7319F08034DC
:1051900008F424C18093F8041CC08093F8041082A2
:1051A00089EB94E00E9441E989300CF036C18430EB
:1051B00009F472C108F435C1873009F4E8C108F078
:1051C00041C1853009F47EC1863009F4A6C1109230
:1051D000F804C0907610D0907710E0907810F0909E
:1051E000791020E030E040EA50E4C701B6010E94A7
:1051F00046EA181654F420E030E849E853E4C701C1
:10520000B6010E94A6F387FD33C015E0115071F47A
:105210008AE597E00E945B63B701A6018FE397E000
:105220000E94C2558AE00E94BB8F22C064EF71E0E9
:1052300080E090E00E94F9C8C0907610D09077107E
:10524000E0907810F090791020E030E040EA50E4EF
:10525000C701B6010E9446EA1816C4F620E030E8FD
:1052600049E853E4C701B6010E94A6F387FFCECFF9
:10527000C090820FD090830FE090840FF090850F44
:1052800020E030E040EA50E4C701B6010E9446EA5F
:10529000181654F420E030E046E153E4C701B601AB
:1052A0000E94A6F387FD33C015E0115071F48AE522
:1052B00097E00E945B63B701A60180E893E00E943B
:1052C000C2558AE00E94BB8F22C064EF71E080E08B
:1052D00090E00E94F9C8C0907610D0907710E090CE
:1052E0007810F090791020E030E040EA50E4C701F7
:1052F000B6010E9446EA1816C4F620E030E046E106
:1053000053E4C701B6010E94A6F387FFCECF809178
:10531000710F823059F160917A1070917B10072ED5
:10532000000C880B990B0E944DEA9B01AC01609127
:1053300076107091771080917810909179100E947A
:1053400045F16B017C0120E030E040E85FEB0E941A
:10535000A6F387FD0BC020E030E040E85FE3C70123
:10536000B6010E9446EA18160CF011C78091700F22
:10537000823009F414C76091860F7091870F072E51
:10538000000C880B990B0E944DEA9B01AC016091C7
:10539000820F7091830F8091840F9091850F0E94EE
:1053A00045F16B017C0120E030E040E05FEB0E94C2
:1053B000A6F387FDF4C620E030E040E05FE3C701DC
:1053C000B6010E9446EA18160CF4E9C687E397E096
:1053D0000E945B6382E08093700FE1C6082F10E0AB
:1053E0002091760490917704291759F0E92FF0E085
:1053F000EA58FB4F22819F5F9F7390937704922F0F
:1054000001C09FEFF801E854FB4F908321E0280F83
:105410009A3009F4C2CE822FB3CE813209F010C186
:1054200008C1813019F1A8F0823049F1833009F0C8
:10543000CECE82E598E00E944C636091860F709119
:10544000870FF0C2883009F4E3C0813209F4F1C05B
:10545000BECE81E698E00E944C6360917610709118
:105460007710809178109091791067C48CE598E05E
:105470000E944C6360917A1070917B10D3C287E5D3
:1054800098E00E944C636091820F7091830F80912D
:10549000840F9091850F51C48DE498E00E944C6375
:1054A00080917C0F24E6829FC001112481589F4F78
:1054B0006FEF70E00E9417F170E080E090E00E94D2
:1054C0004BEA3BC485E498E00E944C6360913B0248
:1054D00070913C0280913D0290913E0242E00E9418
:1054E0002C8E82E397E00E944C6360913F027091A2
:1054F0004002809141029091420242E00E942C8E33
:105500008DE297E00E944C636091430270914402E7
:10551000809145029091460210C40E94D6C888230B
:1055200099F180E498E00E944C63109175041F7714
:1055300039F50E94CB8C882319F180911D1190912F
:105540001E11A0911F11B09120110097A105B10566
:10555000B9F0BC01CD016D597F4F8F4F9F4F24E6AD
:1055600030E040E050E00E949CF060912111709189
:10557000221180912311909124110E949CF0122FEE
:10558000812F0E94C0C626C388E398E013C20E9400
:1055900071C66B017C012CE330E040E050E00E94DA
:1055A0009CF049015A0183E398E00E944C63C701D3
:1055B000B60120E13EE040E050E00E949CF0822FE6
:1055C0000E94C0C68C01F80181918F01882319F0D7
:1055D0000E946F8DF8CF8FE298E00E944C63C50166
:1055E000B4012CE330E040E050E00E949CF0862FB4
:1055F0000E94C0C68C01F80181918F01882319F0A7
:105600000E946F8DF8CF8CE298E00E944C63DFCD52
:105610008091090180FD6DC58091251183FF69C5C9
:105620008091090180FD6CC58091251183FF68C5BB
:105630006AC587E298E00E944C6381E298E0BAC1B3
:105640008D310CF0CAC290E0FC013997E431F105CC
:1056500008F0BDCD8827EE58FF4F8F4F0C942BF1EB
:105660000E94D6C8882399F08DE198E00E945B6380
:1056700060E08BEE9BE00E9419C889EB97E0909365
:105680006F0F80936E0F83E08093730FA0CD8EE138
:105690009CE090C18091720F823021F08091730F55
:1056A000863089F40E9450DD109234041092070273
:1056B0000E94CB8C882321F08091251182FF2DC57B
:1056C0000E94E64984CD1092340481CD0E94D6C850
:1056D0008823A1F085E08093730F10923404109218
:1056E0000702809125118064809325110E94554AFC
:1056F00060E082E29CE00E9419C869CD8091730F3E
:10570000863031F484E198E090936F0F80936E0FB0
:105710008EE19CE00E945B631092730F58CD40E0D5
:1057200060E070E080E090E00E94756BA80144505A
:1057300051096CEB74E085E394E00E94B4F4F80145
:10574000E05DFB4F1082809135048F3219F08C336D
:1057500021F026C085EB97E02DC10E944DB08FEF60
:105760009FEF90931411809313118091C51681506F
:105770008093C5161092C4161092C316811105C0ED
:105780001092C6160E9484DB08C06FE270E086ECBF
:1057900096E10E9494F4FC01118281EB97E068C0CD
:1057A0008091C516843008F061C065E374E086EC32
:1057B00096E10E9489F46EE773E086EC96E10E9420
:1057C00089F419821C8280915F11882319F06CE59D
:1057D00071E102C061E471E121E045E354E0CE01F2
:1057E00001960E942362882319F18BE1FE01319614
:1057F000ACE5B1E101900D928A95E1F78091251118
:105800008F7D80932511A0911B11AA30E0F481E0D7
:105810008A0F80931B118BE18A9FD0011124A95814
:10582000BE4EECE5F1E101900D928A95E1F70BC0D7
:105830000E94F75565E374E08BE997E00E94E0551C
:105840008AE00E94BB8FCE0101960E94C67B8FEF3B
:105850009FEF90931411809313118091C5168F5F61
:105860008093C5161092C4161092C31681EB97E070
:105870000E945B6380E00E9420DCA9CC8091730FC2
:10588000863041F484E198E090936F0F80936E0F1F
:105890001092730F8FE2898365E374E0CE01029664
:1058A0000E949FF4CE0101960E94E0B085E297E04D
:1058B00081C08DE098E040C18DEB94E00E943DE90D
:1058C0006B017C0111E020E030E0A9010E9446EA72
:1058D000811101C010E01093710F8091BC048334DA
:1058E00019F0833509F073CCC701B6010E94EDDBD6
:1058F0006ECC8DEB94E00E943DE96B017C0111E0E0
:1059000020E030E0A9010E9446EA811101C010E0C8
:105910001093700F8091BC04833509F058CCC701F7
:10592000B6010E94A8DB53CC8091BC04833509F0FA
:105930004ECC8DEB94E00E943DE96B017C0120E0B0
:1059400030E0A9010E9446EA87FD11C020E030E066
:1059500048EC52E4C701B6010E94A6F318165CF0A9
:10596000C701B6010E94B2F29B01AC0108C020E061
:1059700030E0A90104C024E630E040E050E0AFEFA1
:10598000B0E00E94DDF024E630E040E050E00E940C
:10599000BEF02F3F310519F010F02FEF30E02093CB
:1059A0007C0F15CC0E94E9C8811111CC0E94616B5B
:1059B00081E297E00E945B630ACC8091BC0483354E
:1059C00049F58DEB94E00E9441E98C01BC01990FEF
:1059D000880B990B0E944DEA6B017C0120E030E0BE
:1059E00040E251E40E9446EA87FD0DC020E030E02D
:1059F0004AEF53E4C701B6010E94A6F318162CF42F
:105A000004EF11E002C00AE010E0109306020093D8
:105A10000502DDCB87E098E00E944C6360910502AF
:105A200070910602072E000C880B990B0E944DEA1C
:105A300084C10E94E9C88111CACB8091BC04883519
:105A400079F034F4833409F0C2CB8DEE97E074C062
:105A5000893549F08A3509F0BACB82EF97E06CC0FE
:105A600080E098E069C089EF97E066C00E94E9C8CD
:105A70008111ADCB81E0809368028EEB94E00E94AF
:105A80003DE96B017C018091BC04883591F01CF4E8
:105A9000853459F19CCB8935D1F08A3509F097CB03
:105AA00020914302309144024091450250914602B8
:105AB00018C320913B0230913C0240913D0250912D
:105AC0003E02C701B6010E9446F140E00FC320919B
:105AD0003F02309140024091410250914202C70181
