:100000000C94F10E0C94BE5C0C94935C0C94685CA4
:100010000C943D5C0C94125C0C94E75B0C94BC5B00
:100020000C94915B0C94220F0C94220F0C94220FD1
:100030000C94220F0C94E95C0C94220F0C94220F68
:100040000C94220F0C94925D0C94220F0C94220FAE
:100050000C94220F0C94220F0C943C990C94475B47
:100060000C94220F0C943AAF0C94220F0C94220F94
:100070000C94220F0C94220F0C94220F0C94220F3C
:100080000C94A5660C94220F0C94220F0C94220F52
:100090000C94220F0C94220F0C94220F0C94220F1C
:1000A0000C94220F0C94220F0C9477660C94220F60
:1000B0000C94220F0C94220F0C94220F0C9449667E
:1000C0000C94220F0C94220F0C94220F0C94220FEC
:1000D0000C94220F0C94220F0C946D3F0C942E3F25
:1000E0000C94220FB128CF28052923293929672903
:1000F000DA29442AF32A4B2B7C2B952BF530F32B52
:10010000FD2B0E2C182C292C512C782C902CE72C04
:10011000F12CFB2C052D0F2D192DF530312D3A2DFD
:100120007F2DA22DF5305C2ED12F7130CE30A099CD
:10013000AE99CD99DB99F699F999FC99FF99029AB4
:10014000059A089A0B9A159A64A067A056A05AA01F
:1001500060A09EA06BA06FA075A079A07DA083A0D9
:1001600087A08BA09EA091A095A099A013A218A2F1
:100170001DA227A231A2AAA23BA243A24BA255A232
:100180005FA269A278A282A2AAA28CA296A2A0A231
:10019000084AD73B3BCE016E84BCBFFDC12F3D6CEE
:1001A00074319ABD56833DDA3D00C77F11BED9E454
:1001B000BB4C3E916BAAAABE000000803F05A84C34
:1001C000CDB2D44EB93836A9020C50B99186880800
:1001D0003CA6AAAA2ABE000000803F004E414E491C
:1001E0004E495459494E46CDCCCC3D0AD7233C17F5
:1001F000B7D13877CC2B329595E6241FB14F0A0042
:100200000020410000C84200401C4620BCBE4CCA31
:100210001B0E5AAEC59D74434F4D4D554E4943413B
:1002200054494F4E0044525952554E004552524F78
:10023000525300494E464F004543484F0020746FCB
:100240006F206C6F6E6720657874727573696F6E5E
:100250002070726576656E7465640A0020636F6C49
:100260006420657874727573696F6E20707265763C
:10027000656E7465640A0047322F473320626164FB
:1002800020706172616D65746572730A004A303462
:1002900000205A3A200020593A2000426564205834
:1002A0003A2000456E642066696C65206C69737441
:1002B0000A00426567696E2066696C65206C697327
:1002C000740A005344207072696E74696E6720620C
:1002D00079746520004E6F74205344207072696EEB
:1002E00074696E670A002569730025696D202569A8
:1002F00073002569682025696D20256973002569CB
:1003000064202569682025696D20256973002569A9
:100310007920256964202569682025696D20256973
:1003200073005072696E742074696D653A200038EC
:100330000233022C02250217026F66660044454212
:1003400055473A004B494C4C45442E20006F6B00FA
:1003500053657474696E672054726176656C2041D0
:100360006363656C65726174696F6E3A20005365F2
:100370007474696E6720526574726163742041639E
:1003800063656C65726174696F6E3A2000536574C1
:1003900074696E67205072696E7420416363656C86
:1003A00065726174696F6E3A200053657474696E8A
:1003B00067205072696E7420616E64205472617699
:1003C000656C20416363656C65726174696F6E3A38
:1003D00020005A20456E6473746F702041646A7502
:1003E00073746D656E742073657420746F20286D4E
:1003F0006D293A00205A00205900580020204D61F4
:10040000783A2000205A00205900580020204D69D9
:100410006E3A20004F6E20004F666600536F667480
:1004200020656E6473746F70733A2000206F75746A
:10043000206F662072616E67650A00536572766F81
:1004400020003A200020536572766F200020643A25
:100450000020693A0020703A0043290A0061626C6A
:10046000656420286D696E2074656D702000436F8F
:100470006C642065787472756465732061726520A0
:1004800000546F6F206661722066726F6D20726516
:10049000666572656E636520706F696E740A003AF6
:1004A00020007A5F6D61783A20007A5F6D696E3A5C
:1004B00020005A204F666673657400416374697644
:1004C000652045787472756465723A2000556E6BCC
:1004D0006E6F776E20636F6D6D616E643A202200DF
:1004E000446F6E652C204175746F204C6576656C89
:1004F000696E672077617320616374697665642132
:1005000000446F6E652C204D616E75616C204C65EA
:1005100076656C696E6720776173206163746976B4
:10052000656421004A3032004A3136004A323600D2
:10053000446F6E652C204175746F204C6576656C38
:10054000696E6720776173206163746976656421E1
:10055000004A323400446F6E652C204D616E756127
:100560006C204C6576656C696E67207761732061DD
:100570006374697665642100526561644572726FC7
:1005800072004A3333200053644C6F7374004A3353
:100590003320006F757452616E6765004A333320F3
:1005A00000543044726F70004A333320004D61783C
:1005B0005431004A333320004D61785430004A33BF
:1005C0003320004D696E5431004A333320004D69A9
:1005D0006E5430004A333320005265616453442026
:1005E0006572726F7221004A3333200056312E3308
:1005F0002E35004A33332000413331562000413339
:10060000315620004732380A473239004A32340026
:100610004132395620004A3032004A3132004739DF
:1006200030004731204525694635303000473120BC
:10063000452D302E314625690047312045302E3179
:10064000462569004731205A25694625690047310A
:10065000205A2D302E31462569004731205A302E40
:1006600031462569004731205925694625690047EB
:100670003120592D302E314625690047312059301F
:100680002E314625690047312058256946256900E5
:10069000473120582D302E314625690047312058EA
:1006A000302E31462569004739310047323800473E
:1006B0003238205A00473238205900473238205803
:1006C000004132305620004F4B004A3036004D3842
:1006D00034004A3034004A3136004A303500454E45
:1006E0004400464E20004A3032003939393A39390F
:1006F00039004D0048004137562000413656202D24
:100700002D2D0041365620005A3A2000593A20003B
:10071000583A2000413556004134562000413356A6
:1007200020004132562000413156200041305620F1
:100730000045525220004D313130004A3130004BDB
:10074000494C4C45442E20005072696E74657220ED
:1007500073746F707065642064756520746F2065B4
:1007600072726F72732E20466978207468652065F6
:1007700072726F7220616E6420757365204D393915
:100780003920746F20726573746172742E2028543E
:10079000656D70657261747572652069732072652C
:1007A0007365742E205365742069742061667465C6
:1007B000722072657374617274696E67290A004EE3
:1007C0006F204C696E65204E756D62657220776989
:1007D000746820636865636B73756D2C204C61735E
:1007E00074204C696E653A20004E6F204368656343
:1007F0006B73756D2077697468206C696E65206E07
:10080000756D6265722C204C617374204C696E6545
:100810003A2000636865636B73756D206D69736D55
:10082000617463682C204C617374204C696E653A66
:1008300020004C696E65204E756D6265722069738B
:10084000206E6F74204C617374204C696E65204E6D
:10085000756D6265722B312C204C617374204C696C
:100860006E653A20004D313130004A3134004D334D
:1008700031004D383420582059205A204500534427
:100880002072656164206572726F72005344207239
:10089000656164206572726F720A00446F6E652034
:1008A0007072696E74696E672066696C650A0020F3
:1008B000496E76616C6964206578747275646572DE
:1008C00020000000CD430000CD430080E343000042
:1008D00020C10000000000000000205A3A20002043
:1008E000593A200042656420583A20006F6B004A54
:1008F0003031004A3030005344204C4F5354004AAA
:100900003135004A3233004B494C4C45442E2000CF
:100910005072696E7465722068616C7465642E2013
:100920006B696C6C28292063616C6C6564210A001A
:10093000000020C100000000000000005761726E3E
:10094000696E673A20486F6D696E672042756D70F9
:100950002044697669736F72203C20310A000000E0
:10096000A0400000A040000000410000D243000071
:10097000CD430080E343FFFFFF20746F6F206C6F57
:100980006E6720657874727573696F6E207072651A
:1009900076656E7465640A004A31330020636F6CBB
:1009A0006420657874727573696F6E2070726576F5
:1009B000656E7465640A004D45414E4C5F4C3A00CB
:1009C0002020506C616E6E6572427566666572427B
:1009D000797465733A20002046726565204D656D17
:1009E0006F72793A2000436F6D70696C65643A20CC
:1009F0004D617920323520323032300A00207C209F
:100A0000417574686F723A20284A6F6C6C792C209B
:100A100078787878787878782E434F2E290A0032C3
:100A20003031362D31322D30362031323A303000EF
:100A3000204C61737420557064617465643A2000C1
:100A4000312E312E302D5243380A0056312E332E9E
:100A5000350A0020536F66747761726520526573A2
:100A600065740A00205761746368646F672052657B
:100A70007365740A002042726F776E206F75742060
:100A800052657365740A002045787465726E616CF6
:100A90002052657365740A00506F77657255700A4D
:100AA000004A3132004A31370073746172740A00AF
:100AB0004731205A2B323000473931006572726F4E
:100AC000722077726974696E6720746F2066696C32
:100AD000650A004A3132004A3033004A3138004456
:100AE0006F6E6520736176696E672066696C652E2E
:100AF0000A004D32390024F4D43050C38E20C2A2F3
:100B00004017828B7011127A910D816CD90AA861FD
:100B1000E108C7586607615143061E4B5D05C14594
:100B2000A7041A411104093D980371393103403675
:100B3000DB0265339102D4305402802E1D02632CF7
:100B4000EE01752AC501B028A001102781018F256B
:100B500064012B244B01E0223401AC211F018D20C4
:100B60000D01801FFC00841EED00971DDF00B81CE6
:100B7000D200E61BC600201BBC00641AB200B219EA
:100B8000A8000A19A0006A189900D117910040170F
:100B90008B00B516840031167E00B31579003A1526
:100BA0007300C7146F0058146A00EE1366008813B0
:100BB000630025135E00C7125B006C12570015120C
:100BC0005400C111510070114F0021114B00D6107B
:100BD00049008D1047004610440002104200C00F2B
:100BE0004000800F3E00420F3C00060F3B00CB0E42
:100BF0003800930E37005C0E3500270E3400F30DDD
:100C00003200C10D3100900D3000600D2E00320D0C
:100C10002D00050D2C00D90C2B00AE0C2900850CE5
:100C200029005C0C2700350C27000E0C2600E80B71
:100C30002400C40B2400A00B23007D0B23005A0BBF
:100C40002100390B2100180B2000F80A1F00D90AD7
:100C50001E00BB0A1E009D0A1D00800A1D00630ABB
:100C60001C00470A1B002C0A1B00110A1A00F70976
:100C70001A00DD091900C4091900AB09190092090D
:100C800017007B091800630917004C091600360984
:100C90001600200916000A091500F5081500E008DD
:100CA0001400CC081400B8081400A408140090081C
:100CB00013007D0812006B08130058081200460844
:100CC0001200340811002308110012081100010855
:100CD0001100F0071000E0071000D0071000C00757
:100CE0001000B0070F00A107100091070E00830746
:100CF0000F0074070F0065070E0057070E00490725
:100D00000E003B070D002E070E0020070D001307F5
:100D10000D0006070D00F9060C00ED060D00E006BB
:100D20000C00D4060C00C8060C00BC060C00B00673
:100D30000C00A4060B0099060C008D060B00820621
:100D40000B0077060B006C060B0061060A005706C5
:100D50000B004C060A0042060A0038060A002E065E
:100D60000A0024060A001A060A00100609000706EF
:100D70000A00FD050900F4050900EB050900E2057C
:100D80000900D9050900D0050900C7050900BE05FD
:100D90000900B5050800AD050800A50509009C057A
:100DA0000800940508008C050800840508007C05EF
:100DB0000800740508006C050700650508005D055E
:100DC0000700560508004E050700470507004005C7
:100DD000080038050700310507002A05070023052C
:100DE00007001C050600160507000F05070008058B
:100DF000060002050700FB040600F5040700EE04E8
:100E00000600E8040600E2040700DB040600D5043F
:100E10000600CF040600C9040600C3040600BD0492
:100E20000600B7040600B1040500AC040600A604E1
:100E30000600A00405009B0406009504050090042C
:100E400006008A04050085040500800406007A0473
:100E5000050075040500700405006B0405006604B8
:100E60000500610405005C040500570405005204F8
:100E700005004D04050048040500430405003E0438
:100E800004003A04050035040500300404002C0475
:100E9000050027040400230405001E0404001A04AE
:100EA000040016040500110404000D0404000904E4
:100EB00005000404040000040400FC030400F8031B
:100EC0000400F4030400F0030400EC030400E8034E
:100ED0000400E4030400E0030400DC030400D8037E
:100EE0000400D4030400D0030400CC030400C803AE
:100EF0000300C503030024F404D9201BC40C5C0EBA
:100F00009804C4095F0265077101F405F900FB0448
:100F1000B30048048700C103690058035500030368
:100F20004500BE023A008402310053022A00290221
:100F3000250004022000E4011C00C8011900AF01D3
:100F40001700980114008401130071011000610161
:100F5000100051010E0043010D0036010B002B0162
:100F60000B0020010B00150109000C010900030111
:100F70000800FB000800F3000800EB000700E40095
:100F80000600DE000600D8000600D2000600CC00F5
:100F90000500C7000500C2000500BD000400B9003F
:100FA0000400B5000400B1000400AD000400A90075
:100FB0000400A5000300A20003009F0004009B00A2
:100FC00003009800030095000200930003009000C6
:100FD00003008D0002008B000300880002008600E1
:100FE000020084000300810002007F0002007D00F7
:100FF00002007B0002007900020077000100760009
:1010000002007400020072000100710002006F0013
:1010100002006D0001006C0002006A00010069001E
:101020000200670001006600010065000100640025
:1010300002006200010061000100600001005F0029
:1010400002005D0001005C0001005B0001005A002D
:10105000010059000100580001005700010056002E
:10106000010055000100540001005300000053002E
:1010700001005200010051000100500001004F002A
:1010800001004E0000004E0001004D0001004C0028
:1010900001004B0000004B0001004A000100490024
:1010A0000100480000004800010047000100460020
:1010B000000046000100450000004500010044001A
:1010C0000100430000004300010042000000420014
:1010D00001004100000041000100400001003F000C
:1010E00000003F0001003E0000003E0001003D0006
:1010F00000003D0001003C0000003C0000003C00FE
:1011000001003B0000003B0001003A0000003A00F3
:1011100001003900000039000100380000003800EB
:1011200000003800010037000000370001003600E1
:1011300000003600000036000100350000003500D8
:1011400000003500010034000000340000003400CD
:1011500001003300000033000000330001003200C2
:1011600000003200000032000100310000003100B8
:1011700000003100010030000000300000003000AD
:1011800001002F0000002F0000002F0000002F00A2
:1011900001002E0000002E0000002E0001002D0096
:1011A00000002D0000002D0000002D0001002C008B
:1011B00000002C0000002C0000002C0001002B007F
:1011C00000002B0000002B0000002B0001002A0073
:1011D00000002A0000002A0000002A000100290067
:1011E000000029000000290000002900000029005B
:1011F000010028000000280000002800000028004E
:101200000000280001002700000027000000270040
:101210000000270000002700010026000000260033
:101220000000260000002600000026000100250026
:10123000000025000000250000002500000025001A
:10124000000025000100240000002400000024000C
:1012500000002400000024000100230000002300FF
:1012600000002300000023000000230000002300F2
:1012700000002300010022000000220000002200E4
:1012800000002200000022000000220001002100D6
:1012900000002100000021000000210000002100CA
:1012A00000002100000021000100200000002000BB
:1012B00000002000000020000000200000002000AE
:1012C000000020000000200001001F0000001F009F
:1012D00000001F0000001F0000001F0000001F0092
:1012E00000001F0001001E0000001E0000001E0084
:1012F00000001E0000004D383420582059205A208C
:10130000450020706F736974696F6E206F7574206B
:101310006F662072616E67652E0A003F50726F62C1
:101320006520002066697273740A005A00590058DB
:1013300000486F6D652000203D3D3D3D0020202090
:10134000200042696C696E656172204C6576656C3F
:10135000696E6720477269643A0A20004A32350094
:1013600028422961636B00284629726F6E74002839
:1013700052296967687400284C29656674005275A3
:101380006E6E696E6720696E204452592D52554E1B
:10139000206D6F64650A00473239204175746F20F3
:1013A000426564204C6576656C696E670A003F286B
:1013B00056296572626F7365204C6576656C20698D
:1013C0007320696D706C61757369626C652028307B
:1013D0002D34292E0A0046696C652064656C65749D
:1013E00065643A0044656C6574696F6E2066616976
:1013F0006C65642C2046696C653A20006F70656EE0
:10140000206661696C65642C2046696C653A200031
:101410002042403A0020403A00202F0020423A006B
:10142000202F0020543A006563686F3A00010210D3
:1014300020200808102040102040800201020108EE
:10144000040201010204081020408080402010089E
:1014500004020180040201804020100804020108F7
:101460000402010102040810204080010204081057
:1014700020408000002200250028002B002E003193
:1014800000340002010000050108010B01050505FB
:1014900005070508080808020202020A0A080804EB
:1014A0000404040101010101010101030303030319
:1014B000030303040707070C0C0C0C0C0C0C0C02A8
:1014C00002020206060606060606060B0B0B0B0BAF
:1014D0000B0B0B024A3033004A3034004A303700DD
:1014E0003F0A0020573A004A3036004A3033004A5B
:1014F0003034004A3039003F0A0020573A004A3061
:101500003800205A3A0020593A0020436F756E7413
:1015100020583A200020453A00205A3A0020593AF3
:1015200000583A0020643A0020693A0020703A00DE
:101530004B64200023646566696E6520204445463F
:1015400041554C545F004B69200023646566696E09
:1015500065202044454641554C545F004B702000A7
:1015600023646566696E65202044454641554C54A8
:101570005F00504944204175746F74756E65206634
:10158000696E69736865642120507574207468659C
:10159000206C617374204B702C204B6920616E6449
:1015A000204B6420636F6E7374616E747320667277
:1015B0006F6D2062656C6F7720696E746F20436F6A
:1015C0006E66696775726174696F6E2E680A005085
:1015D0004944204175746F74756E65206661696C4D
:1015E0006564212074696D656F75740A0050494403
:1015F000204175746F74756E65206661696C6564F1
:10160000212054656D706572617475726520746F08
:101610006F20686967680A00204B643A2000204BFD
:10162000693A2000204B703A20000A20436C617315
:1016300073696320504944200A002054753A200001
:10164000204B753A2000206D61783A2000206D69AA
:101650006E3A200020643A200020626961733A20CB
:10166000007C3C3E5E2B3D3F2F5B5D3B2C2A225C89
:10167000004572726F722077726974696E672074A8
:101680006F20454550524F4D210A00206279746504
:1016900073290A0053657474696E67732053746FFD
:1016A000726564202800454550524F4D206368659F
:1016B000636B73756D206D69736D617463680A0087
:1016C000206279746573290A002073746F726564EF
:1016D0002073657474696E677320726574726965CE
:1016E00076656420280048617264636F64656420D5
:1016F00044656661756C742053657474696E6773B4
:10170000204C6F616465640A0020204D383531201B
:101710005A005A2D50726F6265204F666673657469
:1017200020286D6D293A0A0020204D3230302044A7
:10173000300A0020204D32303020440020446973AC
:1017400061626C65640A0046696C616D656E742047
:1017500073657474696E67733A0020440020490011
:1017600020204D33303420500020440020490020F8
:10177000204D33303120500050494420736574743B
:10178000696E67733A0A0020204D363636205A00BB
:101790005A3220456E6473746F702061646A757389
:1017A000746D656E7420286D6D293A0A00205A0008
:1017B00020590020204D323036205800486F6D658A
:1017C000206F666673657420286D6D290A002045B8
:1017D00000205A00205900205800204200205400C8
:1017E00020204D323035205300416476616E6365B0
:1017F00064207661726961626C65733A20533D4D75
:10180000696E20666565647261746520286D6D2F50
:1018100073292C20543D4D696E2074726176656C7D
:1018200020666565647261746520286D6D2F73296B
:101830002C20423D6D696E696D756D207365676D15
:10184000656E742074696D6520286D73292C20588D
:101850003D6D6178696D756D205859206A65726BB0
:1018600020286D6D2F73292C20205A3D6D617869D9
:101870006D756D205A206A65726B20286D6D2F730F
:10188000292C2020453D6D6178696D756D204520BE
:101890006A65726B20286D6D2F73290A0020540031
:1018A00020520020204D32303420500041636365C7
:1018B0006C65726174696F6E733A20503D70726925
:1018C0006E74696E672C20523D7265747261637428
:1018D00020616E6420543D74726176656C0A00204C
:1018E0004500205A0020590020204D323031205828
:1018F000004D6178696D756D20416363656C65723B
:101900006174696F6E20286D6D2F7332293A0A0059
:10191000204500205A0020590020204D323033202D
:1019200058004D6178696D756D20666565647261FA
:1019300074657320286D6D2F73293A0A00204500C5
:10194000205A0020590020204D393220580053746D
:101950006570732070657220756E69743A0A007A3A
:101960005F70726F62653A20007A325F6D696E3A1D
:1019700020007A5F6D696E3A2000795F6D696E3A7A
:101980002000785F6D696E3A20005265706F727446
:10199000696E6720656E6473746F70207374617410
:1019A00075730A006265640A002C2073797374658C
:1019B0006D2073746F707065642120486561746573
:1019C000725F49443A2000544845524D414C2052E0
:1019D000554E4157415900546865726D616C2052F3
:1019E000756E61776179004A3130004865617469CC
:1019F0006E67206661696C65640048656174696E34
:101A000067206661696C6564004A31300070012CA2
:101A10000190012701B0012201C0011D01F0011850
:101A2000011002130130020E01600209019002044C
:101A300001C002FF000003FA004003F5008003F03C
:101A400000D003EB002004E6007004E100E004DCB9
:101A5000004005D700C005D2004006CD00D006C822
:101A6000008007C3003008BE00F008B900C009B408
:101A700000B00AAF00B00BAA00D00CA500000EA069
:101A800000500F9B00C01096005012910000148C63
:101A900000C0158700B0178200B0197D00D01B78F8
:101AA00000001E730040206E0090226900F0246444
:101AB0000040275F0090295A00E02B5500102E505F
:101AC0000020304B0010324600E033410090353C9E
:101AD000001037370070383200A0392D00B03A2896
:101AE00000A03B2300603C1E00103D1900903D14F7
:101AF00000103E0F00703E0A00C03E0500003F008F
:101B0000004572723A204D415854454D502042458F
:101B100044004572723A204D415854454D50004D95
:101B2000415854454D502074726967676572656409
:101B3000004572723A204D494E54454D5020424561
:101B400044004572723A204D494E54454D50004D67
:101B5000494E54454D5020747269676765726564DB
:101B60000000002100240027002A002D003000334F
:101B70000001010000040107010A01000020002308
:101B800000260029002C002F003200000100000375
:101B9000010601090100000A0B02090C0D0E0807DD
:101BA000030401000000000000000000000000002D
:101BB0000000000000000000000000000000000025
:101BC00000121110000000000000000000000000E2
:101BD00000000000000000000000005772697469F6
:101BE0006E6720746F2066696C653A20004A323156
:101BF000006F70656E206661696C65642C204669B3
:101C00006C653A20004A3231006F70656E20666163
:101C1000696C65642C2046696C653A20004A323054
:101C20000046696C652073656C65637465640A00C1
:101C30002053697A653A200046696C65206F7065AB
:101C40006E65643A20004A3231006F70656E20661E
:101C500061696C65642C2046696C653A20002066D9
:101C6000696C653A20004E6F7720002220706F73F8
:101C7000002220706172656E743A22005355425200
:101C80004F5554494E452043414C4C207461726776
:101C900065743A22004B494C4C45442E2000747226
:101CA00079696E6720746F2063616C6C2073756254
:101CB0002D67636F64652066696C6573207769744E
:101CC0006820746F6F206D616E79206C6576656C2D
:101CD000732E204D4158206C6576656C2069733AEF
:101CE000001000C90210012C0140012201700118EE
:101CF00001B0010E01F00104015002FA00B002F03F
:101D0000003003E600D003DC009004D2007005C868
:101D100000A006BE000008B400B009AA00D00BA0C5
:101D200000600E960060118C00001582002019786A
:101D300000C01D6E00A0226400B0275A00902C50F5
:101D40000000314600E0343C0010383200903A2860
:101D500000603C1E00A03D1400803E0A00203F00B1
:101D6000004D3234004D3233202573006175746F9D
:101D700025692E6700473930004731205A2D32300F
:101D800000656E7175657565696E67202200534444
:101D90002063617264206F6B0A006F70656E526F12
:101DA0006F74206661696C65640A00766F6C756D8E
:101DB000652E696E6974206661696C65640A004508
:101DC00072726F723A00534420696E6974206661C2
:101DD000696C0A00526573656E643A200000AAB708
:101DE000D7AF11241FBECFEFD1E2DEBFCDBF00E0E1
:101DF0000CBF14E0A0E0B2E0E2EAF9E801E00BBFBA
:101E000002C007900D92AC36B107D9F725E1ACE6D8
:101E1000B4E001C01D92AB3BB207E1F71EE0C0EF9A
:101E2000DEE000E006C021970109802FFE010E943C
:101E300026C4CF3ED10780E00807A9F70E94F8AF7B
:101E40000C94C0C40C9400002F923F924F925F926A
:101E50006F927F928F929F92AF92BF92CF92DF92BA
:101E6000EF92FF920F931F93CF93DF93CDB7DEB71F
:101E7000CB55D1090FB6F894DEBF0FBECDBF009190
:101E8000670920E6029F800111240951184F109321
:101E90009504009394048091220780FF1AC0E7E222
:101EA000F4E184917F013FEFE31AF30A811102C04C
:101EB000780104C00E94BFADF701F3CFD7018D9127
:101EC0007D01882319F00E94BFADF8CF8AE00E94FF
:101ED000BFADF80180810F5F1F4F8032D1F3F093C7
:101EE0009504E09394048E34D1F4818190ED980FA1
:101EF0009A3010F08D3299F432969F012F5F3F4F48
:101F0000808180538A3010F4F901F7CFDF013196D8
:101F10008C918032D9F3B0939504A0939404E0900F
:101F20009404F09095046AE270E0C7010E946EC4C8
:101F3000009749F0FC0131968291803211F08A328B
:101F400011F41082F9CF97012F5F3F4FF901808183
:101F50002F5F3F4F8032D1F380538A3010F00C94C2
:101F6000F62500E010E09AE0909FB001919F700D7F
:101F700011248B01005311098191080F111D87FD58
:101F80001A95808180538A3078F3CF013196DC0135
:101F90002C912032D1F3F701208190939304809308
:101FA00092042D3411F40C941E19243511F40C9460
:101FB000DD25273411F00C94F6250530110509F4C0
:101FC000BDC650F40430110508F072C68091690254
:101FD0000230110530F143C10E31110509F4FBC780
:101FE00068F40C31110509F421C70D31110511F008
:101FF0000C9410260E9485670C9410260B35110551
:1020000011F40C94BA180C35110511F40C94BF1886
:102010000A35110511F00C941026109291040C94BD
:102020001026882311F40C9410260E94BA6C80911B
:102030007D048130B1F480918304882391F020E005
:1020400030E040EA51E46091B5067091B6068091A7
:10205000B7069091B8060E94E5BC87FF02C00C94B9
:10206000102689EA96E00E94124A0E94B4AD80913F
:10207000220783FD81C0C090B506D090B606E090DF
:10208000B706F090B8062091DC073091DD0740914B
:10209000DE075091DF07C701B6010E94E5BC882327
:1020A00009F46AC00E94FA4B882309F1C092DC0748
:1020B000D092DD07E092DE07F092DF07E7E2F4E17D
:1020C00084918F010F5F1F4F811103C0ECE5F2E097
:1020D00004C00E94BFADF801F3CF84918F010F5F60
:1020E0001F4F882321F00E94BFADF801F6CFC090AA
:1020F000B506D090B606E090B706F090B8062091ED
:10210000DC073091DD074091DE075091DF07C70102
:10211000B6010E942AC10E946FC297FF07C0909526
:102120008095709561957F4F8F4F9F4F69357240B5
:10213000810591050CF1C092DC07D092DD07E09299
:10214000DE07F092DF07E7E2F4E184918F010F5F91
:102150001F4F811103C0EDE3F2E004C00E94BFAD48
:10216000F801F3CF84918F010F5F1F4F882321F077
:102170000E94BFADF801F6CF2091A9063091AA06C2
:102180004091AB065091AC066091D0077091D10799
:102190008091D2079091D3070E94E5BC81111DC0A8
:1021A0002091AD063091AE064091AF065091B00639
:1021B0006091D4077091D5078091D6079091D70789
:1021C0000E94E5BC811109C060910002709101027A
:1021D00080910202909103023CC08091E7066091D9
:1021E0000602709107028823F1F0072E000C880B7D
:1021F000990B0E94EBBC20910002309101024091AA
:102200000202509103020E944ABD2AE037ED43E2E8
:102210005CE30E944ABD2FEF3FEF4FEF5FEF0E945C
:10222000F3440C941026072E000C880B990B0E9487
:10223000EBBC2091000230910102409102025091CA
:1022400003020E944ABD2AE037ED43E25CE30E94AC
:102250004ABD0E948E380E9484380C941026882330
:1022600011F40C9410260E94BA6C82E50E94743915
:10227000882309F436C10E9443AD4B015C0120E084
:1022800030E0A9010E94E5BC882309F456C12091E1
:10229000D0073091D1074091D2075091D3072CA796
:1022A0003DA74EA75FA78091D4079091D507A09135
:1022B000D607B091D70788AB99ABAAABBBAB20913F
:1022C000A9063091AA064091AB065091AC062CAB02
:1022D0003DAB4EAB5FAB8091AD069091AE06A09149
:1022E000AF06B091B00688AF99AFAAAFBBAF6CA5EF
:1022F0007DA58EA59FA50E94E5BC81110DC028ADCE
:1023000039AD4AAD5BAD68A979A98AA99BA90E949C
:10231000E5BC882309F411C1FF24F39402301105B0
:1023200009F0F12C20E030E0A901C501B4010E94C0
:10233000E5BC881F8827881FF81659F020E030E098
:1023400040E85FEB28962CAF3DAF4EAF5FAF2897CC
:102350000AC080E090E0A0E8BFE328968CAF9DAF74
:10236000AEAFBFAF28972CA53DA54EA55FA56CA924
:102370007DA98EA99FA90E942AC124966CAF7DAF2A
:102380008EAF9FAF249728A939A94AA95BA968AD48
:1023900079AD8AAD9BAD0E942AC16B017C01249668
:1023A0002CAD3DAD4EAD5FAD2497CA01B9010E9481
:1023B0004ABD2B013C01A7019601C701B6010E944D
:1023C0004ABD9B01AC01C301B2010E942BC10E9416
:1023D00096C36CAF7DAF8EAF9FAF20E030E040E0A2
:1023E0005FE30E944ABD2B013C01A5019401C50198
:1023F000B4010E944ABD4B015C01A3019201C301DB
:10240000B2010E944ABD9B01AC01C501B4010E940A
:102410002AC10E9496C328962CAD3DAD4EAD5FAD4E
:1024200028970E944ABD4B015C01C701B601905834
:102430002CAD3DAD4EAD5FAD0E9407C2A50194012C
:102440000E944ABD6B017C012CA93DA94EA95FA940
:102450006CA57DA58EA59FA50E942BC120E030E034
:1024600040E05FE30E944ABD9B01AC01C701B60199
:102470000E942BC12CA53DA54EA55FA50E942AC197
:102480006B017C0128AD39AD4AAD5BAD68A979A976
:102490008AA99BA90E942BC120E030E040E05FE3C5
:1024A0000E944ABD2B013C012CAD3DAD4EAD5FAD50
:1024B00024966CAD7DAD8EAD9FAD24970E9407C272
:1024C000A50194010E944ABD9B01AC01C301B20168
:1024D0000E942BC128A939A94AA95BA90E942AC137
:1024E00014C089E40E947439882329F00E9443AD06
:1024F0006B017C0103C0C12CD12C76018AE40E94BF
:1025000074398823E9F00E9443AD6CA77DA78EA79C
:102510009FA720E030E0A901C701B6010E94E5BCF9
:1025200081111BC020E030E0A9016CA57DA58EA51E
:102530009FA50E94E5BC811110C0EFEBFDE1A4C393
:1025400020E030E0A901C701B6010E94E5BC882364
:10255000A1F31CA61DA61EA61FA6A7019601C701D2
:10256000B6010E944ABD4B015C012CA53DA54EA5BC
:102570005FA5CA01B9010E944ABD9B01AC01C5011A
:10258000B4010E942BC10E9496C368966CAF7DAFC8
:102590008EAF9FAF68972091D0073091D1074091BF
:1025A000D2075091D30728AF39AF4AAF5BAFC7010D
:1025B000B6010E942BC128966CAF7DAF8EAF9FAF46
:1025C00028978091D4079091D507A091D607B09114
:1025D000D7078CAF9DAFAEAFBFAF2CA53DA54EA525
:1025E0005FA5BC01CD010E942BC16C966CAF7DAF85
:1025F0008EAF9FAF6C972091D8073091D90740914B
:10260000DA075091DB072C962CAF3DAF4EAF5FAF92
:102610002C976091B1067091B2068091B3069091AB
:10262000B4060E942AC124966CAF7DAF8EAF9FAFD7
:102630002497D701C601B05888AB99ABAAABBBAB06
:102640002CA53DA54EA55FA550582CAB3DAB4EAB80
:102650005FAB8091A9069091AA06A091AB06B091BC
:10266000AC0660968CAF9DAFAEAFBFAF60972896BB
:102670002CAD3DAD4EAD5FAD2897BC01CD010E94A4
:102680002AC16B017C012091AD063091AE064091CC
:10269000AF065091B00664962CAF3DAF4EAF5FAF22
:1026A00064976C962CAD3DAD4EAD5FAD6C97649666
:1026B0006CAD7DAD8EAD9FAD64970E942AC14B017C
:1026C0005C01A701960168A979A98AA99BA90E9422
:1026D0004ABD2B013C01A50194016CA97DA98EA9DD
:1026E0009FA90E944ABD9B01AC01C301B2010E9497
:1026F0002BC12B013C01A501940168A979A98AA9E4
:102700009BA90E944ABD4B015C01A70196016CA9DF
:102710007DA98EA99FA90E944ABD9B01AC01C5015C
:10272000B4010E942AC1A30192010E949EC16B01C3
:102730007C0120E030E0A9010E94E5BC87FF0AC0CF
:102740002BED3FE049EC50E4C701B6010E942BC1DC
:102750006B017C010230110551F42BED3FE049EC97
:1027600050E4C701B6010E942AC16B017C0120E040
:1027700030E0A901C701B6010E94E5BC811126C065
:1027800060962CAD3DAD4EAD5FAD609768AD79AD57
:102790008AAD9BAD0E94E5BC811118C064962CAD3A
:1027A0003DAD4EAD5FAD64976CAD7DAD8EAD9FAD73
:1027B0000E94E5BC81110AC02BED3FE049EC50E4DA
:1027C000C701B6010E942BC16B017C01A7019601D4
:1027D00068966CAD7DAD8EAD9FAD68970E944ABD89
:1027E0009B01AC010E944ABD4B015C0124962CADBB
:1027F0003DAD4EAD5FAD2497CA01B9010E944ABDFF
:102800009B01AC01C501B4010E942BC10E9496C37B
:102810004B015C012FE632E143E85AE30E94E5BC3C
:1028200087FD2BC2C501B4010E94A0C20E9474C2E0
:102830007DAF6CAF672B21F481E090E09DAF8CAF52
:102840004090DC075090DD076090DE077090DF0756
:10285000ACADBDADBD0180E090E00E94E9BC4B0194
:102860005C019B01AC01C701B6010E9407C268AFC1
:1028700079AF8AAF9BAFA501940124966CAD7DAD75
:102880008EAD9FAD24970E9407C264966CAF7DAF5A
:102890008EAF9FAF6497A30192016091B5067091CE
:1028A000B6068091B7069091B8060E942AC1A5018C
:1028B00094010E9407C268966CAF7DAF8EAF9FAF48
:1028C000689728AD39AD4AAD5BADCA01B9010E9428
:1028D0004ABD20E030E040E05FE30E944ABD9B013A
:1028E000AC0160E070E080E89FE30E942AC124967A
:1028F0006CAF7DAF8EAF9FAF24972C962CAD3DADC6
:102900004EAD5FAD2C9729873A874B875C874D8604
:102910005E866F86788A6091060270910702072EA4
:10292000000C880B990B0E94EBBC209100023091A7
:10293000010240910202509103020E944ABD2AE026
:1029400037ED43E25CE30E944ABD2C966CAF7DAF4D
:102950008EAF9FAF2C970E943B5B9B01AC0128532D
:102960003F4F4F4F5F4F60962CAF3DAF4EAF5FAFC5
:10297000609748A859A86AA87BA822242394312CE0
:10298000D12C4CAD5DAD4215530509F432C10E9406
:10299000D89B0E943B5BDC01CB0160962CAD3DAD2A
:1029A0004EAD5FAD6097821B930BA40BB50BB7FDCB
:1029B00010C00E943B5B9B01AC0128533F4F4F4F1F
:1029C0005F4F60962CAF3DAF4EAF5FAF60970E94F8
:1029D000354181E08D0D893108F042C0D82E2CA9F7
:1029E0003DA94EA95FA924966CAD7DAD8EAD9FAD7E
:1029F00024970E944ABD4B015C019201A30168AD7E
:102A000079AD8AAD9BAD0E944ABDA50194010E949B
:102A10002BC17B018C019201A30124966CAD7DAD8D
:102A20008EAD9FAD24970E944ABD4B015C012CA93D
:102A30003DA94EA95FA968AD79AD8AAD9BAD0E9455
:102A40004ABD9B01AC01C501B4010E942AC12B0102
:102A50003C01C701D8018CAB9DABAEABBFAB4CC04A
:102A6000B10180E090E00E94E9BC28AD39AD4AADEB
:102A70005BAD0E944ABD4B015C010E9404C26B0128
:102A80007C01C501B4010E948CC34B015C01A7010C
:102A9000960168A979A98AA99BA90E944ABD2B0120
:102AA0003C012CA53DA54EA55FA5C501B4010E9422
:102AB0004ABDA30192010E942BC12B013C01A5013B
:102AC000940168A979A98AA99BA90E944ABD4B01D2
:102AD0005C012CA53DA54EA55FA5C701B6010E94CE
:102AE0004ABD9B01AC01C501B4010E942AC16CAB77
:102AF0007DAB8EAB9FABD12C9201A30128966CAD20
:102B00007DAD8EAD9FAD28970E942BC169837A83DE
:102B10008B839C832CA93DA94EA95FA96C966CADB3
:102B20007DAD8EAD9FAD6C970E942BC16D837E8372
:102B30008F83988764962CAD3DAD4EAD5FAD6497A5
:102B400069857A858B859C850E942BC169877A87E8
:102B50008B879C8768962CAD3DAD4EAD5FAD689779
:102B60006D857E858F8598890E942BC16D877E87B4
:102B70008F87988BCE0101960E94124AC0908C04D8
:102B800089819A81AB81BC8188A399A3AAA3BBA3A5
:102B90008D819E81AF81B8858CA39DA3AEA3BFA379
:102BA00089859A85AB85BC8588A799A7AAA7BBA765
:102BB000AE01485D5F4FBE016C5D7F4FCE018096D8
:102BC0000E94338F2C96ECACFDAC0EAD1FAD2C9754
:102BD0009E01235F3F4FAE01485D5F4FBE016C5DBC
:102BE0007F4FCE0180960E94D54D3FEF231A330AC6
:102BF000C8CEC0908C048091A9069091AA06A0919D
:102C0000AB06B091AC0688A399A3AAA3BBA38091FD
:102C1000AD069091AE06A091AF06B091B0068CA320
:102C20009DA3AEA3BFA38091B1069091B206A091DF
:102C3000B306B091B40688A799A7AAA7BBA7AE010F
:102C4000485D5F4FBE016C5D7F4FCE0180960E9454
:102C5000338F2C96ECACFDAC0EAD1FAD2C9725EB55
:102C600036E0AE01485D5F4FBE016C5D7F4FCE0127
:102C700080960E94D54D0E9484380E94B4AD0C9479
:102C800010260E94BFADF80184918F010F5F1F4F86
:102C90008111F7CFE7E7F2E084918F010F5F1F4FBB
:102CA000882311F40C9410260E94BFADF801F4CFD4
:102CB00080E50E947439882371F080918904909195
:102CC0008A044AE050E060E070E001960E9464BB34
:102CD0006B017C0103C0C12CD12C760183E50E94DD
:102CE0007439882361F00E9443AD20E030E04AE768
:102CF00054E40E944ABD0E9474C26B017C010E9490
:102D00003FA00E94B4AD80919E0690919F06A09135
:102D1000A006B091A106C80ED91EEA1EFB1E0E9495
:102D20003B5BDC01CB018C199D09AE09BF09B7FDE6
:102D300002C00C9410260E943541F1CF8C9A8091EC
:102D400084048823C1F0EDE8F2E084918F018823A8
:102D500051F0082E000C990B0E947C6F0F5F1F4FE3
:102D6000F8018491F4CF8DE090E00E947C6F8AE0BE
:102D700090E00E947C6F80918304882309F450C006
:102D800084E190E099A388A344E0BE016F5F7F4F88
:102D9000CE0180960E94EB8644E06FE774E0CE019E
:102DA00080960E94EB8644E06CE674E0CE0180964B
:102DB0000E94EB8644E060E774E0CE0180960E94BA
:102DC000EB8644E064E774E0CE0180960E94EB86D7
:102DD00044E068E774E0CE0180960E94EB86409163
:102DE0007F0450918004609181047091820440932B
:102DF000321250933312609334127093351281E87B
:102E000091E10E94827F81E080937E0480937D0423
:102E1000109283048FEF90E0909321078093200716
:102E2000669B02C00C9413260C9410260E943FA0AF
:102E300080E00E94C26D0E94A73581E0809351021C
:102E400088E50E947439082F89E50E947439182F8B
:102E50008AE50E947439F82E011105C0111105C0D0
:102E600081E08F2503C0111101C080E0809304022E
:102E700090E1E0EDF7E0A9EAB6E001900D929A95B5
:102E8000E1F7811104C0011102C01123B9F120E062
:102E900030E040E85FE36091FD127091FE12809196
:102EA000FF12909100130E942BC12091F1123091DA
:102EB000F2124091F3125091F4120E942BC16093D0
:102EC000B1067093B2068093B3069093B406209136
:102ED000D8073091D9074091DA075091DB070E945B
:102EE00051C318165CF419821A821B821C82BE011F
:102EF0006F5F7F4F81EB96E00E94A93680910402BC
:102F0000811102C0002321F080E090E00E94AB3FDD
:102F100080910402811102C0112321F081E090E030
:102F20000E94AB3F80910402811102C0FF2021F07A
:102F300082E090E00E94AB3F0E9490AF80915E12D1
:102F4000809351020E948D3581E00E94C26D0E94E3
:102F500091758091C5078A3A11F00C9410268091E2
:102F6000B60F81110C941026F11006C08091040256
:102F7000882311F40C94102680E090E0A0E0B0E4E7
:102F800088A399A3AAA3BBA3AFE6CA2EA2E1DA2E17
:102F9000A3E8EA2EAAE3FA2EC982DA82EB82FC8247
:102FA0009E01205E3F4FAE014F5F5F4F64ED77E0C3
:102FB00080ED97E00E94C7355F9A8A9AC092D80741
:102FC000D092D907E092DA07F092DB0781E0809394
:102FD0009D060C94102688E50E947439882319F008
:102FE0000E9443AD0DC020E030E0A9016091D00700
:102FF0007091D1078091D2079091D3070E942BC185
:1030000068A379A38AA39BA389E50E9474398823C6
:1030100019F00E9443AD0DC020E030E0A90160919D
:10302000D4077091D5078091D6079091D7070E9459
:103030002BC16B017C0169837A838B839C832091F4
:10304000F5123091F6124091F7125091F81268A1E2
:1030500079A18AA19BA10E942AC12091E9123091F5
:10306000EA124091EB125091EC120E942AC14B01DE
:103070005C0129E630E040E251EC0E9451C387FF39
:1030800002C00C94102623E030E04DEC53E4C5015F
:10309000B4010E94E5BC181614F40C94102620917B
:1030A000F9123091FA124091FB125091FC12C701B3
:1030B000B6010E942AC12091ED123091EE1240918A
:1030C000EF125091F0120E942AC16B017C0127E19E
:1030D00037EB41ED58EB0E9451C387FF02C00C94BF
:1030E000102623E030E04DEC53E4C701B6010E9406
:1030F000E5BC181614F40C9410268090FD129090E4
:10310000FE12A090FF12B0900013C090F112D09068
:10311000F212E090F312F090F41220E030E0A901F6
:10312000C501B4010E942BC1A70196010E942BC1C9
:10313000A50194010E942AC1A70196010E942AC1FB
:103140006B017C0127E137EB41ED58EB0E9451C345
:1031500087FF02C00C94102623E030E843EE53E4CE
:10316000C701B6010E94E5BC181614F40C94102691
:103170000C94242681E0809391040C94102685E41D
:103180000E947439B82E811102C00E943FA075E8D8
:10319000872E72E0972EE0EDCE2EE7E0DE2EF9EEE0
:1031A000EF2EF2E1FF2E00E010E0A12CD4018D9172
:1031B0004D010E947439882339F1F6014080518015
:1031C000628073800E9443ADD6016D937D938D9391
:1031D0009C9313970330C1F0A30192010E942AC16E
:1031E0009B01AC01F70160817181828193810E9412
:1031F0002BC1D7016D937D938D939C931397C80139
:103200000E94E938AA24A3940F5F1F4FB4E0CB0EAD
:10321000D11CE4E0EE0EF11C0430110539F6AA20B1
:1032200019F00E9490AF06C0BB2021F08CED97E012
:103230000E943BAA0E9491750C9410260837110534
:1032400009F40BC608F0CBC00D34110509F49BC37B
:1032500008F067C00A31110509F409C2C8F5053143
:10326000110509F4EEC1E0F40231110509F41FC59E
:103270000431110509F4A3C10131110511F00C94B9
:1032800010265F988A9847989FB7F8948091080114
:103290008E7F809308019FBF479812980C94102648
:1032A0000731110509F4D7C108F4CFC10831110560
:1032B00009F4D7C10931110511F00C94102681E0F1
:1032C00080936909809323131092B60F0C941026F3
:1032D0000F31110509F460C278F40C31110509F4BD
:1032E00011C208F4D2C10E31110511F00C94102650
:1032F0000E94D36D0C9410260A32110509F425C3DF
:1033000030F40032110509F403C20C9410260B347A
:10331000110509F41AC30C34110509F41AC30C94ED
:1033200010260A36110509F487C4B8F504351105CD
:1033300009F4BDC4E8F40235110509F4B1C408F07C
:10334000B2C40135110511F00C9410260E94BC98EE
:103350000E943FA00E940541109221071092200771
:1033600068EE73E080E090E00E94B3A20C94102617
:103370000C35110509F4E6C430F40535110509F4DE
:10338000C8C40C9410260836110509F400C3093688
:10339000110509F42DC40C9410260E36110509F4FC
:1033A00024C350F40C36110509F403C408F468C4AE
:1033B0000E9465780C9410260037110509F4FDC3AE
:1033C00008F426C30237110509F444C5073711056F
:1033D00011F00C9410260E94E1910C9410260F32EB
:1033E000F1E01F0711F40C948B2308F067C00E3C2A
:1033F000110509F49FC698F5083C110509F433C579
:1034000098F40C38110509F4DCC30E3B110509F4DE
:1034100010C40937110511F00C94102610925102B6
:1034200010925E120C9410260B3C110509F486C50F
:1034300060F4093C110511F00C94102695E8E92E72
:1034400092E0F92E03E317E060C50C3C110509F486
:1034500093C50D3C110509F4F9C50C941026023EE4
:10346000110509F461C780F40C3D110509F436C754
:103470000D3D110509F43FC7033D110511F00C94F2
:103480001026E7E2F4E193C60C3231E0130711F4A1
:103490000C946B2230F40831114009F471C70C947C
:1034A00010260D3281E0180711F40C949A220E3286
:1034B000114011F40C941A230C941026053FA1E03E
:1034C0001A0711F40C94DC24B0F50239E1E01E0770
:1034D00011F40C94952380F4003921E0120711F4C3
:1034E0000C948E2310F00C9491230033114011F4AE
:1034F0000C949D220C941026043A51E0150711F407
:103500000C94992348F40A39114011F00C941026B8
:103510000E946C750C9410260C3AA1E01A0711F465
:103520000C94E423043F114011F00C9410260E94E7
:1035300037890C9410260335E3E01E07E1F178F497
:10354000073F21E0120711F40C94E22410F40C94CC
:10355000DF240A39124009F40BC60C941026073EEA
:1035600053E0150711F40C94212570F4003A134030
:1035700011F00C94102621E02093B50F40E060E09C
:103580000E94EDA20C941026083EE3E01E0711F401
:103590000C942F25093E134011F00C94102649E598
:1035A00057E025E08DECC82E8CECD82EED2C8DEB61
:1035B000F82E0C948E25E7E2F4E10C94F124E2EB72
:1035C000F2E084918F010F5F1F4F882321F00E944A
:1035D000BFADF801F6CF10923C1210923B1287EE6D
:1035E0009FE00E94C9818BE1E7EEFFE0DE011596C6
:1035F00001900D928A95E1F78091E50F9091E60F89
:103600009C838B8385E493E09A83898340E050E038
:10361000BE016F5F7F4F8AEB93E00E947873CE010B
:1036200001960E94FD40E3EAF2E084918F010F5F72
:103630001F4F882311F40C9410260E94BFADF8018F
:10364000F4CF0E940FA70C9410261092B60F109280
:10365000B70F0C94102640E061E00E94EDA20C949C
:1036600010260E941DAA0E949FA00C9410268091F3
:10367000B70F882311F40C94102683E50E94743947
:1036800081110C9491260C9410268091B70F811112
:1036900003C0E5EDF2E02AC0E3ECF2E084918F0193
:1036A0000F5F1F4F882321F00E94BFADF801F6CFB6
:1036B00060913212709133128091341290913512D0
:1036C0004AE00E94DFAD8FE20E94BFAD60912E12F2
:1036D00070912F1280913012909131124AE00E9425
:1036E000DFAD8AE00E94BFAD0C94102684918F015B
:1036F0000F5F1F4F882311F40C9410260E94BFAD5A
:10370000F801F4CF40E060E00E94EDA20C94102696
:103710008091B60F81110E943FA0009192041091F8
:10372000930461E270E0C8010E946EC4009719F032
:103730008C010F5F1F4F80E50E947439882349F088
:10374000FF24F3948091890490918A048017910753
:1037500008F0F12C8091B70F882311F40C941026F7
:103760004F2D61E0C8010E94EDA283E50E947439EB
:10377000882349F08091890490918A0480179107E9
:1037800010F40C94A2260E941DAAF1100C9410268D
:103790000E949FA00C9410260E9488AB7B018C0194
:1037A00020E831E541E050E00E94D3C0C9016DE658
:1037B00071E00E94FFC34B015C01C801B70120E129
:1037C0003EE040E050E00E94D3C0CA01B90128E1C8
:1037D00030E040E050E00E94D3C0762E672EC62E27
:1037E000D72E6CE3262E312C412C512CC801B70169
:1037F000A20191010E94D3C0F62EE72ECA01B901A1
:10380000A20191010E94D3C0CB018E010F5F1F4F17
:1038100081149104D1F0EF92FF927F936F936F9296
:103820007F92BF92AF929F928F928EE093E09F9390
:103830008F931F930F930E94B7BC0FB6F894DEBF0F
:103840000FBECDBFE7E2F4E145C0A114B10489F099
:10385000EF92FF927F936F936F927F92BF92AF929E
:103860008EEF92E09F938F931F930F930E94B7BCAC
:10387000E4CFCD2879F0EF92FF927F936F936F9210
:103880007F9282EF92E09F938F931F930F930E94FA
:10389000B7BCD3CF892B69F0EF92FF927F936F93E0
:1038A0008AEE92E09F938F931F930F930E94B7BC71
:1038B000C4CFEF92FF9286EE92E09F938F931F9377
:1038C0000F930E94B7BC0F900F900F900F900F9026
:1038D0000F90B8CF84917F01BFEFEB1AFB0A8823CA
:1038E00021F00E94BFADF701F5CFB80182E293E06D
:1038F0000E94C6AD8AE00E94BFAD80914307882335
:1039000011F40C941026109243076091420E7091AE
:10391000430E072E000C880B990B0E94EBBC2091E4
:103920002F023091300240913102509132020E94B8
:1039300051C3181614F00C9410261092430E1092D6
:10394000420E0E94136F0C9410260E949FA00C94AC
:1039500010268091A60F9091A70F019711F00C945B
:10396000102682E090E09093A70F8093A60F0E940C
:103970003B5B6093B00F7093B10F8093B20F909345
:10398000B30F0C9410260E94636F0C94102688E6E7
:1039900090E00E94B63981110C9410268091220784
:1039A00083FF02C00C94102683E50E94743988239B
:1039B000C1F00E9443AD0E946FC27093430E6093AA
:1039C000420E0E94136F0E9443AD20E030E04AEAAD
:1039D00052E40E94E5BC181614F00E94636F0E9426
:1039E00043AD0E94164C0C9410268EE40E9474394C
:1039F000882311F40C9410260E94373A60938504B2
:103A00007093860480938704909388040C94102606
:103A100083E50E947439882319F00E94873901C018
:103A200080E080932207E7E2F4E184918F010F5F49
:103A30001F4F811103C0EDE3F3E004C00E94BFAD4E
:103A4000F801F3CF84918F010F5F1F4F882321F07E
:103A50000E94BFADF801F6CF80912207811103C00B
:103A6000E9E3F3E034C05FE2C52E53E0D52EE12C4C
:103A7000F12C20E08091220790E00E2C02C0959559
:103A800087950A94E2F780FF17C0BB24B394B20E67
:103A9000222319F08CE20E94BFADF601859194912A
:103AA000FC0184918F010F5F1F4F882321F00E943A
:103AB000BFADF801F6CF2B2DEFEFEE1AFE0AF2E0C4
:103AC000CF0ED11C35E0E316F104A1F66DC0849150
:103AD0008F010F5F1F4F882309F466C00E94BFAD9E
:103AE000F801F5CF80E20E94BFAD8AE50E947439EB
:103AF000882309F499C70E9443AD6B017C0120E043
:103B000030E040EA51EC0E9451C387FD7DC720E0C0
:103B100030E040EA51E4C701B6010E94E5BC181646
:103B20000CF472C72091C1073091C2074091C307BE
:103B30005091C407C701B6010E942AC12B013C0164
:103B400099E5A92E97E0B92E15E0450100E0A30103
:103B50009201F40160817181828193810E942BC165
:103B6000D4016D937D938D939D934D010F5F05302F
:103B700071F71150B4E1AB0EB11C1111E6CFC09238
:103B8000C107D092C207E092C307F092C4070E9417
:103B9000C2926091C1077091C2078091C307909152
:103BA000C40742E00E9496AE8AE00E94BFAD0C942A
:103BB0001026109208020C94102684E493E00E94D0
:103BC00013418091220783FF02C00C94102683E5E5
:103BD0000E947439882311F40C9410260E9443AD7E
:103BE0000E946FC270938712609386120C94102605
:103BF00089E690E00E94B63981110C9408278091E3
:103C0000B60F811103C081E08093E407EDE4F3E097
:103C100084918F010F5F1F4F882321F00E94BFAD59
:103C2000F801F6CF0E94FD668AE00E94BFAD0C94B9
:103C300008270E945076F4C783E50E9474398823D0
:103C400021F00E941D3A8C0102C003EB10E080E5D8
:103C50000E947439882319F00E941D3A02C080E046
:103C600090E098010F3F110519F010F02FEF30E0B0
:103C7000892B09F0D5C73093210720932007D0C79F
:103C800080E50E947439811105C0109221071092BD
:103C90002007C6C70E941D3A892B09F0C1C7F5CF7E
:103CA00010929004BDC781E080939004B9C783E56A
:103CB0000E947439882399F00E9443AD20E030E0DF
:103CC0004AE754E40E944ABD0E9474C260932102F4
:103CD000709322028093230290932402A1C788E567
:103CE0000E94743981110C94B42689E50E947439BC
:103CF00081110C94B4268AE50E94743981110C94C8
:103D0000B42685E40E94743981110C94B4260C9475
:103D1000D82683E50E947439882309F481C70E945C
:103D200043AD20E030E04AE754E40E944ABD0E94DF
:103D300074C26093A2067093A3068093A406909326
:103D4000A5066EC735E8C32E32E0D32E41E1E42E3E
:103D500043E1F42E10E0D6018D916D010E9474397B
:103D6000882309F46DC0133009F063C00E9443AD8D
:103D70004B015C0120E030E040EA51E40E94E5BCE8
:103D800087FF4EC0A501940160911D1370911E1311
:103D900080911F13909120130E9407C22B013C01B8
:103DA0009B01AC016091F4067091F5068091F606D6
:103DB0009091F7060E944ABD6093F4067093F50651
:103DC0008093F6069093F706A30192016091100785
:103DD0007091110780911207909113070E944ABDBC
:103DE0006093100770931107809312079093130745
:103DF00060912F07709130078091310790913207C1
:103E00000E94E9BCA30192010E944ABD0E9474C2B3
:103E100060932F0770933007809331079093320798
:103E200080921D1390921E13A0921F13B092201324
:103E300007C00E9443ADF70160837183828393833F
:103E40001F5FF4E0EF0EF11C143009F084CF0E94E4
:103E5000644DE6C60E949175E3C681E080935102ED
:103E600080935E12DDC688EC90E00E94B639811125
:103E7000D7C684E40E947439882309F4D1C60E940D
:103E800043AD6B017C0111E020E030E0A9010E940C
:103E9000E5BC811101C010E010935F1220E030E01A
:103EA000A901C701B6010E94E5BC882359F1009120
:103EB0008B0410E00E9443AD000F111F000F111F73
:103EC000F801E35AFD4F608371838283938320E07E
:103ED00030E0A90160915D0270915E0280915F0205
:103EE000909160020E94E5BC81110CC080E090E0DE
:103EF000A0EEBFE380935D0290935E02A0935F0209
:103F0000B09360020E94A8448BC6D7018D917D01B9
:103F10000E947439882349F00E9443AD0E9474C204
:103F2000F80160837183828393830C5F1F4FF7E0F6
:103F300003341F0751F70E94464C72C605E8E02E75
:103F400002E0F02E04E017E084E1C82E87E0D82ECE
:103F5000D7018D917D010E947439882339F00E9428
:103F600043ADF80160837183828393830C5F1F4F9D
:103F7000C016D10669F754C683E50E9474398823B8
:103F8000D9F00E9443ADAB01BC014093FC065093B5
:103F9000FD066093FE067093FF064093F80650936B
:103FA000F9066093FA067093FB068AEA93E00E9492
:103FB00007AF8AE00E94BFAD80E50E947439882374
:103FC00099F00E9443ADAB01BC014093FC065093B5
:103FD000FD066093FE067093FF068DE893E00E9455
:103FE00007AF8AE00E94BFAD82E50E947439882342
:103FF00099F00E9443ADAB01BC0140930007509380
:10400000010760930207709303078EE693E00E9416
:1040100007AF8AE00E94BFAD84E50E94743988230F
:1040200009F4FEC50E9443ADAB01BC014093F80604
:104030005093F9066093FA067093FB0680E593E0CF
:104040000E9407AF8AE00E94BFADEAC583E50E94E7
:104050007439882351F00E9443AD60931C0770931C
:104060001D0780931E0790931F0784E50E947439F3
:10407000882351F00E9443AD60931807709319078D
:1040800080931A0790931B0782E40E947439882357
:1040900099F08091890490918A044AE050E060E0B0
:1040A00070E001960E9464BB60931407709315073B
:1040B000809316079093170788E50E947439882328
:1040C00051F00E9443AD6093E8067093E906809337
:1040D000EA069093EB0689E50E947439882351F033
:1040E0000E9443AD6093EC067093ED068093EE065C
:1040F0009093EF068AE50E947439882351F00E945C
:1041000043AD6093F0067093F1068093F2069093AE
:10411000F30685E40E947439882309F481C50E945E
:1041200043AD6093F4067093F5068093F606909382
:10413000F70676C515E8E12E12E0F12E00E010E05A
:10414000D7018D917D010E947439882339F00E9436
:1041500043ADAB01BC01C8010E9438390F5F1F4F4E
:104160000330110569F70E9490AF0E94917558C500
:104170008AE50E947439882351F00E9443AD609310
:104180006012709361128093621290936312409157
:10419000601250916112609162127091631282ED0F
:1041A00093E00E9407AF8AE00E94BFAD39C58491B9
:1041B0008F010F5F1F4F882321F00E94BFADF801D0
:1041C000F6CF83E50E947439882321F00E94F339E9
:1041D00080930502ECE1F4E084918F010F5F1F4FA3
:1041E000882321F00E94BFADF801F6CF809105022F
:1041F000882319F0E4E1F4E002C0E8E1F4E08491FE
:104200008F010F5F1F4F811103C0ECE0F4E004C089
:104210000E94BFADF801F3CF84918F010F5F1F4F54
:10422000882321F00E94BFADF801F6CF409115021E
:104230005091160260911702709118028AE094E082
:104240000E9407AF4091190250911A0260911B021F
:1042500070911C0287E094E00E9407AF40911D021C
:1042600050911E0260911F027091200284E094E040
:104270000E9407AFECEFF3E084918F010F5F1F4FB7
:10428000882321F00E94BFADF801F6CF40910902CA
:1042900050910A0260910B0270910C028AEF93E038
:1042A0000E9407AF40910D0250910E0260910F02E3
:1042B0007091100287EF93E00E9407AF40911102C6
:1042C00050911202609113027091140284EF93E0F6
:1042D0000E9407AF8AE00E94BFADA2C483E50E949E
:1042E0007439882309F49CC40E942A3A90930702E7
:1042F0008093060295C48DED90E00E94B63981113D
:104300008FC483E50E947439882309F489C400911D
:104310008B0410E00E942A3A000F111FF801EB5D98
:10432000FD4F918380837CC480E50E94743988238B
:1043300009F476C40E942A3A8C0183E50E947439FC
:10434000882321F00E942A3A7C0103C0EE24EA94DB
:10435000FE2CC7010196039708F062C417FD60C4E4
:10436000E9E8F2E08FED92E0980133274191519115
:104370004217530709F454C48E179F07B9F720C595
:1043800080E50E947439882309F44AC40E942A3ABD
:104390007C01892B19F0EFEBFDE181C083E50E94E0
:1043A0007439811103C0E7E2F4E108C00E942A3A9F
:1043B000BC0185E89FE00E94396532C484918F0179
:1043C0000F5F1F4F882321F00E94BFADF801F6CF89
:1043D00060E070E085E494E00E947FAE8091870FFA
:1043E00028E532E06901C81AD10887FDD394CC0CC6
:1043F000DD1CCC0CDD1C0D2C000CEE08FF088091A0
:10440000860F28E830E04901881A910887FD9394C7
:10441000880C991C880C991C092C000CAA08BB0854
:104420008091850F8F3FC1F090E0FC01EE0FFF1FE0
:104430008E0F9F1FFC01E85EF04F2181328163E007
:10444000220F331F6A95E1F774E0369527957A9528
:10445000E1F72E5F3F4F02C020E030E02F5F3F4F7B
:10446000C901330FAA0BBB0B9C01AD0128193909F7
:104470004A095B09A4EBB0E00E9411C1A7019601B3
:10448000281939094A095B090E94F5C0B90182E47B
:1044900094E00E947FAE8AE00E94BFADC1C38491C8
:1044A0008F010F5F1F4F882321F00E94BFADF801DD
:1044B000F6CFB7018BE394E00E947FAEECE2F4E02C
:1044C00084918F010F5F1F4F882309F4A9C30E94B5
:1044D000BFADF801F5CF83E50E947439882321F040
:1044E0000E942A3A8C0102C00EE610E080E50E948C
:1044F0007439882319F00E942A3A02C088EE93E0AA
:104500006C01990FEE08FF081016110674F440E0D4
:1045100050E0BA01C8010E94816FC701B6010E9434
:10452000B3A28FE10E9478987BC3C701B6010E94B5
:10453000B3A276C30E94C87E73C380E50E9474391B
:10454000882351F00E9443AD60937202709373020E
:10455000809374029093750289E40E9474398823D1
:1045600081F00E9443AD2CE933E549E45EE30E940B
:104570004ABD60936E0270936F02809370029093B5
:10458000710284E40E947439882381F00E9443AD53
:104590002CE933E549E45EE30E9407C260936A02B6
:1045A00070936B0280936C0290936D02E7E2F4E1EA
:1045B00084918F010F5F1F4F882321F00E94BFADB0
:1045C000F801F6CF4091720250917302609174022B
:1045D0007091750285E594E00E9407AF2CE933E500
:1045E00049E45EE360916E0270916F028091700207
:1045F000909171020E9407C2AB01BC0181E594E079
:104600000E9407AF2CE933E549E45EE360916A025A
:1046100070916B0280916C0290916D020E944ABD74
:10462000AB01BC018DE494E00E9407AF8AE00E94D8
:10463000BFADF6C283E50E947439082F8823A1F02C
:104640000E9443AD60933702709338028093390221
:1046500090933A0211E020E030E0A9010E94E5BC0D
:10466000811110E01093440780E50E947439182FDF
:104670008823A9F020E030E0A90160913702709111
:1046800038028091390290913A020E94E5BC882359
:1046900019F00E94F339182F10934407C1C2011179
:1046A000BFC2E7E2F4E184918F010F5F1F4F8823BF
:1046B00021F00E94BFADF801F6CF80914407882316
:1046C00019F066E474E002C067E973E08EE694E0F6
:1046D0000E94C6AD20E030E040E05FE36091370229
:1046E000709138028091390290913A020E942BC158
:1046F0000E946FC28DE594E00E947FAEE9E5F4E090
:1047000084918F010F5F1F4F882309F489C20E9493
:10471000BFADF801F5CF0E94877A82C20E943FA008
:104720007FC281E00E9422377BC280E00E94223754
:1047300077C283E50E947439882321F00E94F339FF
:104740000E94C26D8AE50E947439882309F468C208
:104750000E9443AD6B017C016093E3067093E40615
:104760008093E5069093E6062DEB37E346E855EB9C
:104770000E9451C3181654F42DEB37E346E855E375
:10478000C701B6010E94E5BC87FD09C0A7019601DB
:1047900060E070E080E89FE30E9407C203C060E031
:1047A00070E0CB016093641270936512809366127F
:1047B000909367128091E706882309F431C282E062
:1047C00090E00E94F5472CC2E6EAF6E0F9AFE8AFC8
:1047D00025EFC22E22E1D22E39EE232E32E1332EE6
:1047E00020ED37E03DAB2CAB45E152E059AB48AB97
:1047F00089E092E09DA78CA740E3E42E49E0F42EE7
:1048000000E010E0A8ADB9AD8D91B9AFA8AF882395
:1048100009F492C0ECA9FDA980809180A280B380A8
:10482000ACA5BDA52D913D914D915C91E8A9F9A94B
:1048300060817181828193810E942BC120E030E0F0
:1048400040E05FE30E944ABD9B01AC01C501B40199
:104850000E9451C3181654F4F70185919591A591C2
:10486000B491E82F792F6A2F8B2F04C0E0E070E01D
:1048700060E080E0D6014D905D906D907C902E2F91
:10488000372F462F582FC301B2010E942BC1F101CF
:1048900020813181428153810E942BC19B01AC0157
:1048A000C501B4010E942AC14B015C0120E030E047
:1048B00040EA51EC0E9451C3181654F420E030E055
:1048C00040EA51E4C501B4010E94E5BC87FD03C084
:1048D000EFEBFDE10FC0A5019401C301B2010E94FD
:1048E0002AC1AB01BC01C8010E94383925C00E9411
:1048F000BFADF80184918F010F5F1F4F8111F7CF7A
:10490000E1E8F4E084918F010F5F1F4F882321F0CD
:104910000E94BFADF801F6CF88E290E09A838983C8
:1049200088EC90E099A388A3BE016F5F7F4FCE0112
:1049300080960E9427A174C10F5F1F4FF4E0CF0E35
:10494000D11C24E0220E311C4CA95DA94C5F5F4FA5
:104950005DAB4CAB88A999A9049699AB88ABACA583
:10496000BDA51496BDA7ACA7B4E0EB0EF11C0330B7
:10497000110509F047CF0E9490AF0E94917583E91D
:1049800092E099A388A308EC10E01A830983BE0182
:10499000605E7F4FCE0101960E9427A18AEB92E0D4
:1049A00099A388A31A830983BE01605E7F4FCE015D
:1049B00001960E9427A134C10E94148731C10E9430
:1049C00033932EC183E50E947439882321F00E941D
:1049D000F33991E089270E94B19422C10E94BFADB2
:1049E000F80184918F010F5F1F4F8111F7CFE2EB28
:1049F000F4E084918F010F5F1F4F882309F472C880
:104A00000E94BFADF801F5CF6CEE7FEF8AEA94E02B
:104A10000E947FAE80E20E94BFAD64E170E082EA56
:104A200094E00E947FAEC0C84091C1075091C20778
:104A30006091C3077091C4078FE994E00E9407AFAB
:104A4000B3C881E08093690283E50E9474398823AA
:104A500009F4B3C10E94F3398111E2C0AEC183E50C
:104A60000E947439882319F00E9443AD04C060E0AD
:104A700070E080E690EC49E557E025E0A0E0B0E08A
:104A8000FA01EA0FFB1F608371838283938314967C
:104A9000A431B105A9F721504C5E5F4F2111EECF33
:104AA0008EE590E0909356078093550790935807B2
:104AB0008093570788E090E09093520780935107C6
:104AC00081E190E0909354078093530780E090E059
:104AD000A8E8B1EC8093C1079093C207A093C307E5
:104AE000B093C4078093BD079093BE07A093BF0700
:104AF000B093C0078AEA8093C5070E9405930E947D
:104B0000C292E1E0F5E084918F010F5F1F4F88238F
:104B100009F486C00E94BFADF801F5CF80E090E0B7
:104B2000FA01E80FF91FC082D182E282F382049673
:104B300084319105A9F721504C5E5F4F2111EECFD2
:104B40008EE590E090935607809355079093580711
:104B50008093570788E090E0909352078093510725
:104B600081E190E0909354078093530780E090E0B8
:104B7000A8E8B1EC8093C1079093C207A093C30744
:104B8000B093C4078093BD079093BE07A093BF075F
:104B9000B093C00785E58093C5070E9405930E94E6
:104BA000C292E0EEF4E084918F010F5F1F4F8823E3
:104BB000B9F10E94BFADF801F6CF00938C04E7E293
:104BC000F4E184917F012FEFE21AF20A882321F0A9
:104BD0000E94BFADF701F5CFB80177278BEB94E0CA
:104BE0000E947FAE8AE00E94BFAD1AC0E7E2F4E106
:104BF00084918F010F5F1F4F882321F00E94BFAD6A
:104C0000F801F6CF60919404709195048DEC94E0D6
:104C10000E94C6AD82E20E94BFAD8AE00E94BFAD95
:104C20000E94A44AF5C081E080937C048CE49CEA55
:104C3000909348028093470280916A008F7C806144
:104C400080936A00EE9AECCF83E50E947439882342
:104C500009F465C00E94F339182F80E00E94C26DEC
:104C60000E94A73521E030E0412FBE016F5F7F4FEA
:104C7000CE0180960E9478376B017C01EBE9F2E06F
:104C800084918F010F5F1F4F882321F00E94BFADD9
:104C9000F801F6CF27E137EB41ED58E368A179A1A0
:104CA0008AA19BA10E942BC142E00E9496AEE6E938
:104CB000F2E084918F010F5F1F4F882321F00E9443
:104CC000BFADF801F6CF27E137EB41ED58E369813D
:104CD0007A818B819C810E942BC142E00E9496AE1A
:104CE000E1E9F2E084918F010F5F1F4F882321F0EB
:104CF0000E94BFADF801F6CF27E137EB41ED58E355
:104D0000C701B6010E942BC142E00E9496AE8AE024
:104D10000E94BFAD0E948D350E94917581CF11E038
:104D20009CCF0E94373AAB01BC01409332125093A2
:104D30003312609334127093351281E891E10E942E
:104D4000827F6ECF0E94373AAB01BC014093321292
:104D500050933312609334127093351281E891E1CD
:104D60000E94827F0C94C31B0E943FA088E50E9492
:104D7000743981115F9A89E50E947439882311F092
:104D80008A9A479A8AE50E947439882349F09FB726
:104D9000F894809108018160809308019FBF479A31
:104DA00085E40E947439882309F43ACF129A38CFE7
:104DB0000E943FA00E94054133CF0E9468AF30CFD0
:104DC0000E943FA0D02E60E0802F0E94B0A13FEF54
:104DD000E316F30659F4802F0E945AA131E020E037
:104DE000892B09F030E0032F122F05C0EA94EF2839
:104DF00061F401E010E08D2D0E945AA18017910707
:104E000009F40ECF0E943541F6CF00E010E0F3CF59
:104E1000C55ADF4F0FB6F894DEBF0FBECDBFDF918E
:104E2000CF911F910F91FF90EF90DF90CF90BF90A7
:104E3000AF909F908F907F906F905F904F903F903A
:104E40002F9008952F923F924F925F926F927F9290
:104E50008F929F92AF92BF92CF92DF92EF92FF928A
:104E60000F931F93CF93DF93CDB7DEB7A2970FB603
:104E7000F894DEBF0FBECDBF80912E0690912F0615
:104E800003974CF58E010F5F1F4F812C912C58E832
:104E9000A52E51ECB52E86EF9EE00E94133F18160A
:104EA0001906CCF480912E0690912F0604979CF45D
:104EB00086EF9EE00E94D73E2091290630912A0677
:104EC0008A3019F08D3009F068C02115310509F0DC
:104ED00071C010922B0680912E0690912F0600979C
:104EE00091F0019790932F0680932E0680912106D2
:104EF00090912206019664E070E00E9413C49093A2
:104F0000220680932106C090440ED090450EE0907A
:104F1000460EF090470E20E030E040EA50E4C70132
:104F2000B6010E94E5BC87FF02C00C94C73420E0A4
:104F300030E84EE853E4C701B6010E9451C3181689
:104F400014F40C94C73480912C0690912D06813571
:104F5000934C10F40C94D23487E080938812109212
:104F60002D0610922C06EBE3F7E084918F01882345
:104F700051F0082E000C990B0E947C6F0F5F1F4FA1
:104F8000F8018491F4CF8DE090E00E947C6F8AE07C
:104F900090E00E947C6F0C94D2348A3329F4909173
:104FA0002B06992309F491CF2F35310514F40C9475
:104FB00011318BCF809127069091280640E6742E00
:104FC000789E6001799ED00C1124C6018F559B4FAD
:104FD0007C01FC01E20FF31F108280912B068111EE
:104FE0000C940B3110922B066EE470E0C7010E9406
:104FF0006EC4009709F453C09093A00480939F045B
:105000008E199F098C0D9D1D4AE050E060E070E014
:105010008E559B4F0E9439BA609385047093860425
:105020008093870490938804C090B115D090B215F6
:10503000E090B315F090B415A70196012F5F3F4F94
:105040004F4F5F4FC0902706D09028066217730716
:105050008407950711F40C9434317C9CC0017D9C2D
:10506000900D112466E377E08F559B4F0E949DBC05
:10507000892B11F00C943431E1E3F7E084918F0136
:10508000882351F0082E000C990B0E947C6F0F5F53
:105090001F4FF8018491F4CF0E9434AD17C06AE22B
:1050A00070E0C7010E946EC4892B29F1E1E3F7E0AB
:1050B00084918F01882351F0082E000C990B0E94D7
:1050C0007C6F0F5F1F4FF8018491F4CF10922A0676
:1050D0001092290600CF8091850490918604A091BA
:1050E0008704B09188048093B1159093B215A09372
:1050F000B315B093B415809127069091280620E649
:10510000289F7001299FF00C1124C7018F559B4FD8
:105110006C0161E470E00E946EC4009711F40C947D
:10512000F5309093A00480939F048C199D098E0DF7
:105130009F1D60E070E08E559B4F0E94E6B80E9474
:105140006FC2CB01770FAA0BBB0B8532910510F014
:105150000C94F530FC018827EE58FF4F8F4F0C94CC
:1051600026C4ECE2F7E084917F01882359F0082EF1
:10517000000C990B0E947C6F9FEFE91AF90AF70166
:105180008491F3CF20E030E040E05FE36091440E93
:105190007091450E8091460E9091470E1FC0E7E238
:1051A000F7E084917F01882359F0082E000C990BB9
:1051B0000E947C6FFFEFEF1AFF0AF7018491F3CF93
:1051C0006091420E7091430E072E000C880B990BD4
:1051D0000E94EBBC20E030E040E05FE30E942BC186
:1051E0000E946FC27A836983C8010E946CADBC01C2
:1051F00086EF9EE00E94E5728DE090E00E947C6F59
:105200008AE090E00E947C6FF0C7E2E2F7E08491D0
:105210007F01882359F0082E000C990B0E947C6FA7
:10522000FFEFEF1AFF0AF7018491F3CF20E030E09F
:1052300040E05FE36091821270918312809184124A
:1052400090918512CBCFEDE1F7E084917F01882327
:1052500059F0082E000C990B0E947C6FFFEFEF1A9B
:10526000FF0AF7018491F3CF609186127091871243
:10527000ABCF209120073091210744E6429FC00127
:10528000439F900D11246FEF70E00E94FFC37B01DC
:10529000FFEFEF1AFF0A25E6E216F10418F094E694
:1052A000E92EF12CE8E1F7E084916F01882359F0B1
:1052B000082E000C990B0E947C6F8FEFC81AD80A39
:1052C000F6018491F3CFB70180E090E078C3E4E188
:1052D000F7E084917F01882359F0082E000C990B88
:1052E0000E947C6FFFEFEF1AFF0AF7018491F3CF62
:1052F00080E290E00E947C6FE0E1F7E084917F0122
:10530000882359F0082E000C990B0E947C6FFFEF48
:10531000EF1AFF0AF7018491F3CF6091D0077091E3
:10532000D1078091D2079091D3070E942AA980E2E9
:1053300090E00E947C6FECE0F7E084917F0188238D
:1053400059F0082E000C990B0E947C6FFFEFEF1AAA
:10535000FF0AF7018491F3CF6091D4077091D507CC
:105360008091D6079091D7070E942AA980E290E009
:105370000E947C6FE8E0F7E084917F01882359F078
:10538000082E000C990B0E947C6FFFEFEF1AFF0AAA
:10539000F7018491F3CF6091D8077091D90780917C
:1053A000DA079091DB070E942AA980E290E00E9430
:1053B0007C6F22CF8091B60F882309F453C0E3E0BD
:1053C000F7E084917F01882359F0082E000C990B97
:1053D0000E947C6FFFEFEF1AFF0AF7018491F3CF71
:1053E0008091B70F882361F120918411222321F14C
:1053F00080912E1290912F12A0913012B091311203
:105400000097A105B105B9F0BC01CD016D597F4FE1
:105410008F4F9F4F24E630E040E050E00E94D3C021
:105420006091321270913312809134129091351242
:105430000E94D3C001C020E030E03A832983D4CE5B
:10544000E4E2F5E084917F01882309F4D5CE082EAB
:10545000000C990B0E947C6FFFEFEF1AFF0AF70117
:105460008491F2CFEBEFF6E084917F01882309F479
:10547000C3CE082E000C990B0E947C6FFFEFEF1A31
:10548000FF0AF7018491F2CFE6EFF6E084917F0105
:10549000882359F0082E000C990B0E947C6FFFEFB7
:1054A000EF1AFF0AF7018491F3CFC0902306D09042
:1054B0002406E0902506F0902606C114D104E104EC
:1054C000F10409F47AC00E943B5B20E63AEE40E02A
:1054D00050E00E94D3C029013A01C701B60120E67D
:1054E0003AEE40E050E00E94D3C07201E21AF30AA3
:1054F000C7016CE370E00E94FFC3CB019927EAE08B
:10550000F0E0BF010E9413C4282FCB01BF010E940D
:1055100013C4805D80939604205D209397041092BD
:10552000980466E974E086EF9EE00E94E57280E2EE
:1055300090E00E947C6FE4EFF6E084916F01882395
:1055400059F0082E000C990B0E947C6FFFEFCF1AC8
:10555000DF0AF6018491F3CF80E290E00E947C6F35
:10556000C7016CE370E00E94FFC36AE070E00E9434
:1055700013C4605D60939604805D809397041092DD
:10558000980466E974E086EF9EE00E94E57280E28E
:1055900090E00E947C6FE2EFF6E084917F01882327
:1055A00009F42ACE082E000C990B0E947C6FFFEFA5
:1055B000EF1AFF0AF7018491F2CF80E290E00E9497
:1055C0007C6FEAEEF6E084917F01882309F414CE23
:1055D000082E000C990B0E947C6FFFEFEF1AFF0A58
:1055E000F7018491F2CF1092340E1092330E809115
:1055F000090180FF12C0E6EEF6E084917F01882366
:1056000009F4FACD082E000C990B0E947C6FFFEF75
:10561000EF1AFF0AF7018491F2CF0E94F9AC1092C1
:105620005B0283E50E9410AD882341F00E942BAD00
:105630000E9474C27093320E6093310EE2EEF6E077
:1056400084917F01882359F0082E000C990B0E9449
:105650007C6FFFEFEF1AFF0AF7018491F3CF8DE023
:1056600090E00E947C6F8AE090E00E947C6F0E9434
:10567000BEABEEEDF6E084917F01882309F4BCCD4A
:10568000082E000C990B0E947C6FFFEFEF1AFF0AA7
:10569000F7018491F2CF8091B60F8823D9F081E091
:1056A0008093E60780936909809323131092B60FC5
:1056B000EAEDF6E084917F01882309F49DCD082E60
:1056C000000C990B0E947C6FFFEFEF1AFF0AF701A5
:1056D0008491F2CFE6EDF6E084917F01882309F40E
:1056E0008BCD082E000C990B0E947C6FFFEFEF1AF8
:1056F000FF0AF7018491F2CF80912313882309F4E4
:1057000074C50E941DAAE2EDF6E084917F01882312
:1057100009F472CD082E000C990B0E947C6FFFEFEC
:10572000EF1AFF0AF7018491F2CF8091B60F811131
:1057300005C080912313882309F457C51092830470
:105740001092B60F109223131092840481E891E115
:105750000E94728D81E891E10E946C801092B50FD9
:105760001092B40F0E946C75E8E2F5E084917F011D
:10577000882359F0082E000C990B0E947C6FFFEFD4
:10578000EF1AFF0AF7018491F3CF8DE090E00E94B9
:105790007C6F8AE090E00E947C6F5F9A8A9A479AB9
:1057A0009FB7F894809108018160809308019FBFA2
:1057B000479A129A8EEC96E09093221380932113CD
:1057C0000E946B3A1092430E1092420E0E94136F89
:1057D000109287121092861280913006809367098A
:1057E0001092680902C50E94ADAD8111FEC480917E
:1057F0002313882309F4A3C5F8C480918812882351
:1058000019F0873009F0F1C40E94ADAD8111EDC4EB
:1058100080912313882309F4ADC5E7C40E94ADAD80
:105820008111EACC80912313882309F4C6C5E4CC06
:1058300083E50E9410AD8111BAC483E40E9410ADCB
:10584000882309F4D2C40E94ADAD882309F4AFC403
:10585000CCC483E50E9410AD882309F4C6C40E941D
:105860002BAD20E030E0A9010E94E5BC87FD0FC010
:105870000E942BAD20E030E046E153E40E9451C38A
:10588000181644F00E942BAD0E9474C205C060E05F
:1058900070E002C066E970E0709387126093861230
:1058A000A4C483E50E9410AD8823D9F00E942BADDB
:1058B00020E030E04FE753E40E944ABD20E030E0B2
:1058C00048EC52E40E9407C20E9474C26F3F710507
:1058D00019F010F06FEF70E07093210760932007CC
:1058E0008BCC8FEF90E0909321078093200784CC9E
:1058F0008091E507811180CC8091B60F81117CCC1D
:105900000E946C755F9A8A9A479A9FB7F894809123
:1059100008018160809308019FBF479A129A6CCC5E
:1059200083E50E9410AD882319F10E942BAD20E081
:1059300030E040E252E40E94E5BC87FD0FC00E94C7
:105940002BAD20E030EC49E754E40E9451C3181617
:1059500044F00E942BAD0E946FC205C068E270E067
:1059600002C067EE73E070930702609306023DC4C5
:10597000E1ECF6E084917F01882359F0082E000CB9
:10598000990B0E947C6FFFEFEF1AFF0AF7018491D9
:10599000F3CFC0900602D09007020D2C000CEE0849
:1059A000FF08F7FE0EC06DE286EF9EE00E948A3E81
:1059B00066277727CB016C197D098E099F094AE07C
:1059C00003C04AE0C701B6010E94E7A815CC0E94B7
:1059D000ADAD81110AC480912313882309F41CC53D
:1059E00004C40E94ADAD811107CC8091231388239C
:1059F00009F44DC501CC0E94ADAD8111F6C3809173
:105A00002313882309F48AC6F0C30E94ADAD811127
:105A1000ECC380912313882309F4A1C6E6C30E9436
:105A2000ADAD8111E2C380912313882309F4B8C678
:105A3000DCC30E940FA78091090180FFD6C3E6E175
:105A4000F6E084917F01882309F4D6CB082E000C60
:105A5000990B0E947C6FFFEFEF1AFF0AF701849108
:105A6000F2CF8FE40E9410AD8111C6CB83E40E9477
:105A700010ADC2CB88E50E9410AD882331F00E94A2
:105A80002BAD0E9474C2F62E01C0F12C89E50E9454
:105A900010AD882329F00E942BAD0E9474C201C072
:105AA00060E025E0F29EF0011124E60FF11DEE0FFB
:105AB000FF1FEE0FFF1FE75AF84F6081718182814F
:105AC000938120E030E048EC52E40E944ABD2B0173
:105AD0003C01E0E1F6E084917F01882359F0082E33
