:100000000C945E130C948F130C948F130C948F1319
:100010000C948F130C948F130C948F130C948F13D8
:100020000C948F130C948F130C948F130C948F13C8
:100030000C948F130C94904E0C948F130C948F137C
:100040000C948F130C94F59B0C948F130C948F13BA
:100050000C948F130C948F130C949F890C943B4E2B
:100060000C948F130C94F9900C94EF900C948F13C4
:100070000C948F130C948F130C948F130C948F1378
:100080000C948F130C948F130C948F130C948F1368
:100090000C948F130C948F130C948F130C948F1358
:1000A0000C948F130C948F130C948F130C948F1348
:1000B0000C948F130C948F130C948F130C948F1338
:1000C0000C948F130C948F130C948F130C948F1328
:1000D0000C948F130C948F130C94098F0C94D48E62
:1000E0000C948F13252B3F2B5B2B842B8B2B332CCA
:1000F0004E2C512C6E2C892CC72CD22C0E2D2B2D36
:10010000962DA52DBF2DD62DDC28D92D3C8F4C8FBB
:100110005D8F688F708F878F748F878F788F7C8FBC
:10012000878F828F2C913C914D915891609177915E
:100130006491779168916C91779172911EB721B714
:1001400010B714B71AB758B725B729B72FB733B7B1
:1001500037B73DB741B745B758B74BB74FB753B7A8
:10016000DDBCE2BCE7BCF1BCFBBC74BD05BD0DBD94
:1001700015BD1FBD29BD33BD42BD4CBD74BD56BDAF
:1001800060BD6ABD084AD73B3BCE016E84BCBFFD53
:10019000C12F3D6C74319ABD56833DDA3D00C77F57
:1001A00011BED9E4BB4C3E916BAAAABE00000080F0
:1001B0003F05A84CCDB2D44EB93836A9020C50B97F
:1001C000918688083CA6AAAA2ABE000000803F00AB
:1001D0000C94842B0C9414B70C947FE40C9425B7E6
:1001E0000C943C910C9456BD0C943C8F0C9433B7FA
:1001F0000C943F2B0C940DBD0C944E2C0C946E2C37
:100200000C94DC280C944CBD0C941EB70C944FB786
:100210000C940E2D0C946C910C94E2BC0C947C8F7D
:100220000C9453B70C94D92D0C942FB70C9429B778
:100230000C94252B0C9472910C9421B70C94892C5E
:100240000C9468910C94BF2D0C9405BD0C9474BD56
:100250000C94DDBC0C944D910C945B2B0C941AB750
:100260000C942C910C9442BD0C94748F0C9445B753
:100270000C94C72C0C9477910C9458B70C94D22CF6
:100280000C945D8F0C9460BD0C941FBD0C944BB707
:100290000C94332C0C9460910C94FBBC0C94D62DD4
:1002A0000C94512C0C9437B70C943DB70C942B2D17
:1002B0000C9429BD0C948B2B0C9458910C94708F3A
:1002C0000C944C8F0C9410B70C94828F0C9461E4B6
:1002D0000C94878F0C94F1BC0C94962D0C94A52D46
:1002E0000C94688F0C94E7BC0C946ABD0C9433BDDD
:1002F0000C9415BD0C94788F0C9441B70C946491B8
:100300004E414E494E495459494E46CDCCCC3D0AFA
:10031000D7233C17B7D13877CC2B329595E6241FDD
:10032000B14F0A000020410000C84200401C462096
:10033000BCBE4CCA1B0E5AAEC59D7400407A10F369
:100340005A00A0724E18090010A5D4E80000E87603
:1003500048170000E40B54020000CA9A3B0000005A
:10036000E1F505000080969800000040420F000073
:1003700000A08601000000102700000000E8030034
:100380000000006400000000000A000000000001FE
:1003900000000000002C76D888DC674F0823DFC1FE
:1003A000DFAE59E1B1B796E5E3E453C63AE65199B9
:1003B0007696E8E6C28426EB898C9B62ED407C6FE2
:1003C000FCEFBC9C9F40F2BAA56FA5F490055A2A99
:1003D000F75C936B6CF9676DC11BFCE0E40D47FEA5
:1003E000F520E6B500D0ED902E030094357705009A
:1003F00080841E080000204E0A000000C80C333321
:1004000033330F986E12831141EF8D2114893BE62F
:100410005516CFFEE6DB18D1844B381BF77C1D90B8
:100420001DA4BBE424203284725E228100C9F12421
:10043000ECA1E53D27434F4D4D554E4943415449AD
:100440004F4E0044525952554E004552524F52534E
:1004500000494E464F004543484F00536C65657058
:100460002E2E2E004D65736820706F696E74206F9C
:100470007574206F662072616E67650A00436C694F
:10048000636B20746F20526573756D652E2E2E0080
:100490004E6F204D6F76652E00456E642066696C48
:1004A00065206C6973740A00426567696E2066692D
:1004B0006C65206C6973740A004E6F206D65646909
:1004C000610A00286E6F2066696C652900437572A9
:1004D00072656E742066696C653A20005344207022
:1004E00072696E74696E67206279746520004E6F60
:1004F00074205344207072696E74696E670A0050EC
:1005000072696E742074696D653A2000496E766177
:100510006C69642050696E204D6F64650A000A534F
:10052000746174733A2046696C616D656E742075F0
:100530007365643A20002C204C6F6E6765737420DD
:100540006A6F623A2000546F74616C2074696D6543
:100550003A20002C204661696C65643A20002C200A
:1005600046696E69736865643A20005072696E74FA
:10057000733A200053746174733A20004520255368
:10058000006F66660044454255473A004D313133AD
:100590002053003344205072696E746572204F46B8
:1005A000462E002F2F2000416363656C65726174D5
:1005B000696F6E3A20500046523A0020466C6F77C1
:1005C0003A200050726F7465637465642050696EE0
:1005D0000A0020643A0020693A0020703A00496E0F
:1005E00076616C69642065787472756465720A005E
:1005F0006469730043290A0061626C656420286D98
:10060000696E2074656D702000436F6C642065789E
:1006100074727564657320617265200046696C614F
:100620006D656E742072756E6F757420004D343276
:100630003120696E636F72726563742070617261DC
:100640006D657465722075736167650A004F666633
:1006500073657473204170706C69656400457272D3
:100660003A20546F6F206661722100546F6F2066CC
:1006700061722066726F6D207265666572656E6369
:100680006520706F696E740A00454550524F4D20C9
:100690004F4B0A00205A323A004475616C20456E77
:1006A0006473746F702041646A7573746D656E74E1
:1006B00020286D6D293A20002028302D3130290066
:1006C0002076616C7565206F7574206F662072618D
:1006D0006E676500416476616E6365204B3D005036
:1006E0006F7765722D6C6F7373207265636F7665BB
:1006F000727920004D383458594500446F6E65209A
:100700007072696E74696E672066696C650A004D67
:100710003737004D333100560451044A0443043541
:10072000044A3132004A3034004A303200205A3A0A
:10073000200020593A20004A3039004A303700451D
:10074000787472756465722074656D702061626E74
:100750006F726D616C21203A20004A3130004D35B6
:1007600030310A4D3432302053310041333156207C
:10077000004D3530300A004D3530310A4D343230BD
:100780002053310A004732380A473239004A32369C
:10079000004A32340041323956200043616E6E6F98
:1007A0007420656E746572207375626469723A2094
:1007B000004A3231004A3230004D323520500A4D65
:1007C0003234004D38330A473120452D353020462C
:1007D000313230300A4D3832004D38330A4731203B
:1007E00045353020463730300A4D383200473238F0
:1007F0000A00473238205A0A0047323820590A0086
:1008000047323820580A004132305620004D3130EE
:1008100030300A004D3130303020430A004A303544
:1008200000322E302E37004A33332000204D002076
:100830004820004137562000413656202D2D2D00EE
:10084000413656200041355620583A200041345652
:1008500020004133562000413256200041315620BD
:1008600000413056200020746F6F206C6F6E67203F
:10087000657874727573696F6E2070726576656ED7
:100880007465640A0020636F6C6420657874727507
:1008900073696F6E2070726576656E7465640A00A8
:1008A000DB0FC93F45BCDA3F8FB30240FCF0274065
:1008B00056946140FE4B9B4084A5D840E0231841EC
:1008C000346A5641E859974164DBD5416E27174297
:1008D000B4B75542CE1A9742C8AED542B5885A43EE
:1008E000D40684BFA65FA7BF7443E0BF10B11AC08F
:1008F0001C2C58C0E8F697C0B849D6C04E4E17C158
:1009000024D355C1802497C1A0B5D5C1121A17C2EE
:1009100044AE55C2781797C26CACD5C267885AC32B
:10092000000020C100000000000000000000CD43D6
:100930000000CD430000E14353657474696E677332
:100940002053746F7265640053657474696E6773C5
:100950002053746F726564202800667265736800A6
:10096000646F696E67004E6F7720004D343230201F
:100970005331205631004A3137002020506C616ECF
:100980006E657242756666657242797465733A2067
:10099000002046726565204D656D6F72793A2000C2
:1009A000436F6D70696C65643A205365702032390D
:1009B00020323032300A00204C617374205570644C
:1009C000617465643A20323032302D30392D32393D
:1009D000207C20417574686F723A20284E69636BE1
:1009E0002057656C6C732C20436869726F6E2042CF
:1009F00075696C64290A00322E302E370A004D6169
:100A0000726C696E0020536F667477617265205254
:100A1000657365740A00205761746368646F6720AA
:100A200052657365740A002042726F776E206F758D
:100A3000742052657365740A002045787465726E7F
:100A4000616C2052657365740A00506F776572554A
:100A5000700A006175746F25632E67004D31303068
:100A600031006572726F722077726974696E6720E7
:100A7000746F2066696C650A00446F6E652073614F
:100A800076696E672066696C652E0A004D32390002
:100A900020503A00656E6473746F707320686974D7
:100AA0003A20001000C90210012C014001220170FF
:100AB000011801B0010E01F00104015002FA00B06A
:100AC00002F0003003E600D003DC009004D2007096
:100AD00005C800A006BE000008B400B009AA00D0F6
:100AE0000BA000600E960060118C000015820020A3
:100AF000197800C01D6E00A0226400B0275A009033
:100B00002C500000314600E0343C00103832009098
:100B10003A2800603C1E00A03D1400803E0A0020E0
:100B20003F00006563686F3A004572726F723A0069
:100B300042696C696E656172204C6576656C696EA0
:100B40006720477269643A0A0053656E64204D312C
:100B5000303820746F20726573756D650A005365B7
:100B60006E64204D31303820746F206865617420C8
:100B70006E6F7A7A6C650A00486F74656E642074D3
:100B80006F6F20636F6C640A004C6F61642046696C
:100B90006C616D656E7400496E7365727420666970
:100BA0006C616D656E7420616E642073656E642087
:100BB0004D3130380A007C3C3E5E2B3D3F2F5B5D63
:100BC0003B2C2A225C004265642048656174696E92
:100BD000672E2E2E005072696E74205061757365F9
:100BE00064004A313800526568656174696E672E29
:100BF0002E2E004A3038004A3036004520486561C4
:100C000074696E672E2E2E004A3136005072696E5E
:100C1000742041626F72746564004731205A353028
:100C200020463530300050726F62696E6720466131
:100C3000696C6564004A3235004D3530300A473200
:100C400037003344205072696E74657220526561BA
:100C500064792E0001021020200808102040102086
:100C60004080020102010804020101020408102070
:100C7000408080402010080402018004020180406E
:100C800020100804020108040201010204081020D7
:100C9000408001020408102040800000220025004E
:100CA00028002B002E003100340002010000050155
:100CB00008010B01050505050705080808080202DB
:100CC00002020A0A080804040404010101010101E6
:100CD00001010303030303030303040707070C0CC9
:100CE0000C0C0C0C0C0C0202020206060606060690
:100CF00006060B0B0B0B0B0B0B0B0253544F5050F8
:100D000045442E20005072696E7465722073746FB2
:100D1000707065642064756520746F206572726FF1
:100D200072732E2046697820746865206572726F30
:100D30007220616E6420757365204D3939392074D5
:100D40006F20726573746172742E202854656D7003
:100D5000657261747572652069732072657365745C
:100D60002E20536574206974206166746572207248
:100D7000657374617274696E67290A004E6F20434F
:100D80006865636B73756D2077697468206C696E34
:100D900065206E756D6265722C204C617374204CF9
:100DA000696E653A2000636865636B73756D206DCD
:100DB00069736D617463682C204C617374204C6995
:100DC0006E653A20004C696E65204E756D626572E5
:100DD000206973206E6F74204C617374204C696EAF
:100DE00065204E756D6265722B312C204C617374D9
:100DF000204C696E653A20004D313130005344205B
:100E000072656164206572726F720A002121204B45
:100E1000494C4C2063617573656420627920746F5E
:100E20006F206D75636820696E61637469766520F3
:100E300074696D65202D2063757272656E74206310
:100E40006F6D6D616E643A2000486F74656E64204A
:100E500049646C652054696D656F757400486F74E2
:100E6000656E642049646C652054696D656F7574A6
:100E70000A00627573793A20706175736564206643
:100E80006F7220696E7075740A00627573793A200A
:100E900070617573656420666F7220757365720A80
:100EA00000627573793A2070726F63657373696E4F
:100EB000670A004D6564696120496E7365727465E7
:100EC00064004A3031004A3030004D656469612069
:100ED00052656D6F766564004D313030305300508F
:100EE0006F776572204F7574616765004A32330011
:100EF0004A3135004D363030004A31310050726988
:100F00006E7465722068616C7465642E206B696C08
:100F10006C28292063616C6C6564210A004F464689
:100F20000A0046616465204865696768742000426C
:100F30006564204C6576656C696E67200046616962
:100F40006C656420746F20656E61626C652042651B
:100F500064204C6576656C696E670A00496E76613F
:100F60006C6964206D6573682E0A004732372F6EF6
:100F70002047312059302046353030300050726FD4
:100F800062696E6720506F696E7400255320256971
:100F90002F25690050726F62696E67206D657368F6
:100FA00020706F696E742000202844525952554EAB
:100FB0002900473239204175746F20426564204C06
:100FC0006576656C696E67003F20284C2C522C4674
:100FD0002C4229206F7574206F6620626F756E64D5
:100FE000732E0A003F2856296572626F7365206C64
:100FF0006576656C20696D706C61757369626C658E
:101000002028302D34292E0A00426164205A20768F
:10101000616C75650A004E6F2062696C696E65616E
:101020007220677269640A003F4A206F7574206FEE
:10103000662072616E67652028302E303120746F13
:1010400020302E33290A00204D393220580020202C
:101050004D61783A200020204D696E3A2000536F90
:10106000667420656E6473746F70733A2000473243
:10107000380053656C6563742053442066696C6561
:10108000207468656E207072657373207265737565
:101090006D650A00526573756D696E672066726FC3
:1010A0006D20706F776572206F75746167652E2E85
:1010B0002E0A004D32342053256C642054256C6474
:1010C000004739322E392045257300473120462507
:1010D00064004731205A25732046323030004731B2
:1010E000205825732059257320463330303000476F
:1010F00031204525642046323030004D34323020D6
:10110000532569205A2573004D313036205025690A
:1011100020532569004D31303920532569004D3168
:10112000393020532569004D32303020442573007A
:1011300047312046353030205A2573004732385227
:1011400030004739322E39204530205A300A473195
:101150005A2573004D343230205330205A3000204D
:10116000496E76616C696420657874727564657225
:101170002000202D20496E76616C696420657874AA
:101180007275646572206E756D62657220210A0049
:10119000544845524D414C2052554E4157415900FB
:1011A000546865726D616C2052756E61776179006B
:1011B0004572723A204D415854454D50004D4158AA
:1011C00054454D50207472696767657265640045C7
:1011D00072723A204D494E54454D50004D494E547F
:1011E000454D502074726967676572656400202FF1
:1011F000002042403A0020403A0020573A00700157
:101200002C0190012701B0012201C0011D01F00154
:1012100018011002130130020E0160020901900250
:101220000401C002FF000003FA004003F500800340
:10123000F000D003EB002004E6007004E100E004BD
:10124000DC004005D700C005D2004006CD00D00626
:10125000C8008007C3003008BE00F008B900C0090C
:10126000B400B00AAF00B00BAA00D00CA500000E6D
:10127000A000500F9B00C010960050129100001467
:101280008C00C0158700B0178200B0197D00D01BFC
:101290007800001E730040206E0090226900F02448
:1012A000640040275F0090295A00E02B5500102E63
:1012B000500020304B0010324600E03341009035A2
:1012C0003C001037370070383200A0392D00B03A9A
:1012D0002800A03B2300603C1E00103D1900903DFB
:1012E0001400103E0F00703E0A00C03E0500003F93
:1012F0000000403FFBFF803FF6FFC03FF1FF45721B
:10130000726F722077726974696E6720746F2045FE
:101310004550524F4D210A00363726032B3C3D38AD
:101320002A2E303E1224221E021A1C180A2C432D8B
:1013300009072C2D44000100008C4200008C420063
:101340000080400202040000A0400000A040000015
:1013500000400000D2430000CD430000E143FFFF06
:10136000FF5761726E696E673A20486F6D696E67EC
:101370002042756D702044697669736F72203C203D
:10138000310A0024F4D43050C38E20C2A240178208
:101390008B7011127A910D816CD90AA861E108C78E
:1013A000586607615143061E4B5D05C145A7041AE7
:1013B000411104093D9803713931034036DB026560
:1013C000339102D4305402802E1D02632CEE01753D
:1013D0002AC501B028A001102781018F2564012BA7
:1013E000244B01E0223401AC211F018D200D01802E
:1013F0001FFC00841EED00971DDF00B81CD200E624
:101400001BC600201BBC00641AB200B219A8000A57
:1014100019A0006A189900D117910040178B00B5E8
:1014200016840031167E00B31579003A157300C793
:10143000146F0058146A00EE1366008813630025C9
:10144000135E00C7125B006C12570015125400C1E6
:1014500011510070114F0021114B00D61049008D21
:101460001047004610440002104200C00F400080A8
:101470000F3E00420F3C00060F3B00CB0E3800939E
:101480000E37005C0E3500270E3400F30D3200C11C
:101490000D3100900D3000600D2E00320D2D000535
:1014A0000D2C00D90C2B00AE0C2900850C29005CFA
:1014B0000C2700350C27000E0C2600E80B2400C476
:1014C0000B2400A00B23007D0B23005A0B210039B5
:1014D0000B2100180B2000F80A1F00D90A1E00BBC0
:1014E0000A1E009D0A1D00800A1D00630A1C004799
:1014F0000A1B002C0A1B00110A1A00F7091A00DD4A
:10150000091900C4091900AB091900920917007BD9
:10151000091800630917004C091600360916002047
:101520000916000A091500F5081500E0081400CC9A
:10153000081400B8081400A4081400900813007DD3
:101540000812006B081300580812004608120034F5
:10155000081100230811001208110001081100F001
:10156000071000E0071000D0071000C0071000B0FF
:10157000070F00A107100091070E0083070F0074EA
:10158000070F0065070E0057070E0049070E003BC6
:10159000070D002E070E0020070D0013070D000693
:1015A000070D00F9060C00ED060D00E0060C00D456
:1015B000060C00C8060C00BC060C00B0060C00A40B
:1015C000060B0099060C008D060B0082060B0077B7
:1015D000060B006C060B0061060A0057060B004C58
:1015E000060A0042060A0038060A002E060A0024EF
:1015F000060A001A060A001006090007060A00FD7E
:10160000050900F4050900EB050900E2050900D908
:10161000050900D0050900C7050900BE050900B588
:10162000050800AD050800A50509009C0508009403
:101630000508008C050800840508007C0508007476
:101640000508006C050700650508005D05070056E4
:101650000508004E0507004705070040050800384B
:10166000050700310507002A050700230507001CB0
:10167000050600160507000F05070008050600020D
:10168000050700FB040600F5040700EE040600E869
:10169000040600E2040700DB040600D5040600CFC0
:1016A000040600C9040600C3040600BD040600B712
:1016B000040600B1040500AC040600A6040600A060
:1016C0000405009B04060095040500900406008AAA
:1016D00004050085040500800406007A04050075F1
:1016E000040500700405006B040500660405006134
:1016F0000405005C04050057040500520405004D74
:1017000004050048040500430405003E0404003AB3
:1017100004050035040500300404002C04050027EE
:10172000040400230405001E0404001A0404001627
:10173000040500110404000D04040009040500045C
:1017400004040000040400FC030400F8030400F493
:10175000030400F0030400EC030400E8030400E4C5
:10176000030400E0030400DC030400D8030400D4F5
:10177000030400D0030400CC030400C8030300C525
:1017800003030024F404D9201BC40C5C0E9804C489
:10179000095F0265077101F405F900FB04B3004815
:1017A000048700C10369005803550003034500BEC8
:1017B000023A008402310053022A00290225000463
:1017C000022000E4011C00C8011900AF01170098B5
:1017D0000114008401130071011000610110005117
:1017E000010E0043010D0036010B002B010B002000
:1017F000010B00150109000C01090003010800FBA1
:10180000000800F3000800EB000700E4000600DE1B
:10181000000600D8000600D2000600CC000500C774
:10182000000500C2000500BD000400B9000400B5B9
:10183000000400B1000400AD000400A9000400A5EC
:10184000000300A20003009F0004009B0003009817
:101850000003009500020093000300900003008D38
:101860000002008B00030088000200860002008452
:10187000000300810002007F0002007D0002007B67
:101880000002007900020077000100760002007477
:1018900000020072000100710002006F0002006D82
:1018A0000001006C0002006A00010069000200678C
:1018B0000001006600010065000100640002006292
:1018C00000010061000100600001005F0002005D96
:1018D0000001005C0001005B0001005A000100599A
:1018E000000100580001005700010056000100559A
:1018F0000001005400010053000000530001005299
:1019000000010051000100500001004F0001004E95
:101910000000004E0001004D0001004C0001004B92
:101920000000004B0001004A00010049000100488E
:10193000000000480001004700010046000000468A
:101940000001004500000045000100440001004383
:10195000000000430001004200000042000100417D
:1019600000000041000100400001003F0000003F76
:101970000001003E0000003E0001003D0000003D6F
:101980000001003C0000003C0000003C0001003B66
:101990000000003B0001003A0000003A000100395D
:1019A0000000003900010038000000380000003855
:1019B000000100370000003700010036000000364B
:1019C0000000003600010035000000350000003541
:1019D0000001003400000034000000340001003336
:1019E000000000330000003300010032000000322C
:1019F0000000003200010031000000310000003121
:101A00000001003000000030000000300001002F15
:101A10000000002F0000002F0000002F0001002E0A
:101A20000000002E0000002E0001002D0000002DFF
:101A30000000002D0000002D0001002C0000002CF3
:101A40000000002C0000002C0001002B0000002BE7
:101A50000000002B0000002B0001002A0000002ADB
:101A60000000002A0000002A0001002900000029CF
:101A700000000029000000290000002900010028C2
:101A800000000028000000280000002800000028B6
:101A900000010027000000270000002700000027A9
:101AA000000000270001002600000026000000269C
:101AB000000000260000002600010025000000258F
:101AC0000000002500000025000000250000002582
:101AD0000001002400000024000000240000002475
:101AE0000000002400010023000000230000002368
:101AF000000000230000002300000023000000235A
:101B0000000100220000002200000022000000224C
:101B1000000000220000002200010021000000213E
:101B20000000002100000021000000210000002131
:101B30000000002100010020000000200000002023
:101B40000000002000000020000000200000002015
:101B5000000000200001001F0000001F0000001F07
:101B60000000001F0000001F0000001F0000001FF9
:101B70000001001E0000001E0000001E0000001EEC
:101B8000000000C23100001C260000F4190000D83B
:101B90000F0000EB080000C00400007502000040C8
:101BA0000100003F5A206F7574206F662072616ECD
:101BB00067652028003F59206F7574206F6620727A
:101BC000616E676520282D0020746F20003F58202B
:101BD0006F7574206F662072616E676520282D0016
:101BE00050726F6265204F66667365742058006599
:101BF0006E7175657565696E672022006F6B0052A6
:101C00006573656E643A2000256979202569642032
:101C10002569682025696D20256973004265642067
:101C2000436F6F6C696E672E2E2E002364656669A4
:101C30006E652044454641554C545F004B6420007E
:101C40004B6920004B702000504944204175746F4F
:101C500074756E652066696E6973686564212050CD
:101C6000757420746865206C617374204B702C202F
:101C70004B6920616E64204B6420636F6E737461E6
:101C80006E74732066726F6D2062656C6F77206969
:101C90006E746F20436F6E66696775726174696FE9
:101CA0006E2E680A00504944204175746F74756E39
:101CB00065206661696C6564212074696D656F7566
:101CC000740A000A20436C617373696320504944AD
:101CD000200A00204B643A2000204B693A20002063
:101CE0004B703A20000A204E6F206F766572736841
:101CF0006F6F740A002054753A2000204B753A200B
:101D000000206D61783A2000206D696E3A20002035
:101D1000643A200020626961733A200050494420EF
:101D20004175746F74756E652073746172740A0006
:101D3000504944204175746F74756E652066616901
:101D40006C6564212054656D70657261747572658F
:101D500020746F6F20686967680A00504944204109
:101D600075746F74756E6500504944204175746FC9
:101D700074756E65206661696C65642120426164DA
:101D8000206578747275646572206E756D62657217
:101D90000A002053697A653A200043616E6E6F74C1
:101DA000206F70656E207375626469722000534401
:101DB00020496E6974204661696C00534420636158
:101DC0007264206F6B0A006F70656E526F6F7420C3
:101DD0006661696C65640A00766F6C756D652E6965
:101DE0006E6974206661696C65640A004E6F2053E9
:101DF0004420636172640A004D323320257300462B
:101E0000696C652073656C65637465640A00466976
:101E10006C65206F70656E65643A2000454E442005
:101E2000535542524F5554494E450A002220706F77
:101E300073002220706172656E743A22005355421D
:101E4000524F5554494E452043414C4C20746172C9
:101E50006765743A220053756263616C6C204F763B
:101E60006572666C6F7700457863656564656420AC
:101E70006D617820535542524F5554494E45206468
:101E8000657074683A310A0044656C6574696F6EF8
:101E9000206661696C65642C2046696C653A200097
:101EA00046696C652064656C657465643A006F70A2
:101EB000656E206661696C65642C2046696C653AC4
:101EC000200057726974696E6720746F2066696CB0
:101ED000653A200042656420583A200046696C61EA
:101EE0006D656E742050757267696E672E2E2E00B8
:101EF0005265686561742066696E69736865642EF1
:101F0000004865617465722054696D656F75740071
:101F10004E6F7A7A6C65205061726B656400507206
:101F20006F62696E67204661696C65640A00486F7C
:101F30006D652025732573257320466972737400BF
:101F4000220A00556E6B6E6F776E20636F6D6D6148
:101F50006E643A20220020453A00205A3A00205967
:101F60003A0000002100240027002A002D00300044
:101F7000330001010000040107010A0100002000F4
:101F80002300260029002C002F0032000001000051
:101F900003010601090100000A0B02090C0D0E08DD
:101FA0000703040100000000000000000000000022
:101FB0000000000000000000000000000000000021
:101FC00000001211100000000000000000000000DE
:101FD0000000000000000000000000002062797492
:101FE00065733B2063726320004E6F20454550525D
:101FF0004F4D2E0A00454550524F4D20646174618B
:1020000073697A65206572726F722E0A00454550B9
:10201000524F4D2056657273696F6E204572726F14
:102020007200454550524F4D20496E6465782045F9
:1020300072726F7200454550524F4D2043524320FB
:102040004572726F72002073746F726564207365DD
:102050007474696E677320726574726965766564FD
:10206000202800202863616C63756C6174656429A5
:10207000210A0020213D2000454550524F4D20436C
:102080005243206D69736D61746368202D2028733D
:10209000746F726564292000496E6465783A200087
:1020A000204D61726C696E3D563831290A004545F4
:1020B00050524F4D2076657273696F6E206D697353
:1020C0006D617463682028454550524F4D3D00486E
:1020D0006F6D696E67204661696C6564006F70653D
:1020E0006E005452494747455245440066696C6149
:1020F0006D656E74007A5F70726F6265007A325F30
:102100006D696E007A5F6D696E00795F6D696E0052
:10211000785F6D696E005265706F7274696E6720CA
:10212000656E6473746F70207374617475730A00E4
:102130004361703A004348414D4245525F54454D1A
:10214000504552415455524500424142595354451D
:102150005050494E470041524353004D4F54494F50
:102160004E5F4D4F44455300544845524D414C5FDE
:1021700050524F54454354494F4E004C4F4E475FC9
:1021800046494C454E414D45004155544F524550EE
:102190004F52545F53445F5354415455530053447A
:1021A000434152440050524F4D50545F535550508C
:1021B0004F525400454D455247454E43595F50419B
:1021C0005253455200434153455F4C494748545F81
:1021D0004252494748544E45535300544F47474C89
:1021E000455F4C494748545300534F46545741525A
:1021F000455F504F574552004255494C445F50454A
:102200005243454E54004C4556454C494E475F4459
:10221000415441005A5F50524F42450052554E4F73
:102220005554004155544F4C4556454C0050524969
:102230004E545F4A4F420050524F4752455353004D
:102240004155544F5245504F52545F54454D5000E4
:10225000564F4C554D455452494300454550524FF9
:102260004D0042494E4152595F46494C455F5452D8
:10227000414E534645520053455249414C5F584FD9
:102280004E5F584F4646004649524D574152455FB2
:102290004E414D453A4D61726C696E20322E302EA2
:1022A00037202853657020323920323032302030C8
:1022B000393A32373A33322920534F555243455F2A
:1022C000434F44455F55524C3A68747470733A2FCB
:1022D0002F6769746875622E636F6D2F4D61726C24
:1022E000696E4669726D776172652F4D61726C69B6
:1022F0006E2050524F544F434F4C5F5645525349F6
:102300004F4E3A312E30204D414348494E455F549F
:102310005950453A3344205072696E7465722045B5
:10232000585452554445525F434F554E543A31200C
:10233000555549443A63656465326132662D3431DE
:1023400061322D343734382D396231322D633535D1
:102350006336326633363766660A0047322F4733B4
:102360002062616420706172616D65746572730AC8
:102370000020436F756E7420583A00426564004532
:102380003100626564002C2073797374656D20736D
:10239000746F7070656421204865617465725F496F
:1023A000443A200048656174696E67204661696C33
:1023B00065640048656174696E67206661696C6573
:1023C00064004D3131322053687574646F776E004C
:1023D0000020520048617264636F64656420446544
:1023E0006661756C742053657474696E6773204CF4
:1023F0006F616465640A003B200020204D36303355
:10240000200020204D34313220530046696C616D2C
:10241000656E742072756E6F75742073656E736F60
:10242000723A0020550046696C616D656E74206CCF
:102430006F61642F756E6C6F6164206C656E67747C
:1024400068733A0020204D393030204B004C696EC3
:1024500065617220416476616E63653A0020204DAB
:102460003835312058005A2D50726F6265204F6602
:10247000667365740020204D343133205300506F53
:102480007765722D4C6F7373205265636F7665723A
:10249000793A0020204D33303420500020204D3335
:1024A00030312050005049442073657474696E6760
:1024B000733A0020204D36363600456E6473746FD3
:1024C000702061646A7573746D656E743A002020C3
:1024D000473239205720490020204D3432302053D4
:1024E000004175746F20426564204C6576656C69A7
:1024F0006E673A0020204D323036205800486F6D0C
:1025000065206F66667365743A00204A0020204D8E
:10251000323035204200416476616E6365643A2052
:10252000423C6D696E5F7365676D656E745F74695B
:102530006D655F75733E20533C6D696E5F666565C2
:1025400064726174653E20543C6D696E5F747261A3
:1025500076656C5F66656564726174653E204A3CB1
:102560006A756E635F6465763E0020540020204DDE
:10257000323034205000416363656C657261746968
:102580006F6E2028756E6974732F7332293A20504C
:102590003C7072696E745F616363656C3E20523C8F
:1025A000726574726163745F616363656C3E20542D
:1025B0003C74726176656C5F616363656C3E00209C
:1025C000204D3230312058004D6178696D756D2095
:1025D000416363656C65726174696F6E2028756E06
:1025E0006974732F7332293A00204500205A002065
:1025F000590020204D3230332058004D6178696DEC
:10260000756D206665656472617465732028756EEA
:102610006974732F73293A00537465707320706561
:102620007220756E69743A0020440020204D3230CB
:10263000302053002044697361626C65640A00466F
:10264000696C616D656E742073657474696E67730F
:102650003A0020286D6D29002020473231202020AB
:10266000203B20556E69747320696E206D6D0000EB
:10267000004843000048430000C8410000C8410032
:1026800000A0420000C8420000C8430080CA43B80E
:102690000B0000B80B000064000000102700005081
:1026A00072696E74696E672E2E2E004A31340045B1
:1026B0004E4400464E2000007FE461E411241FBE1A
:1026C000CFEFD1E2DEBFCDBF00E00CBF13E0A0E052
:1026D000B2E0E8E0FAEE01E00BBF02C007900D9215
:1026E000A03BB107D9F727E1A0EBB3E001C01D92F1
:1026F000AE30B207E1F713E1CDE5D3E100E006C06B
:1027000021970109802FFE010E944FF1CC35D1079E
:1027100080E00807A9F70E94F6DE0C94F2F40C940E
:1027200000002F923F924F925F926F927F928F9212
:102730009F92AF92BF92CF92DF92EF92FF920F9350
:102740001F93CF93DF93CDB7DEB7E5970FB6F8941D
:10275000DEBF0FBECDBF8CAB2091B90328AB81E0AB
:102760008093B903809126168D3409F440C38435D3
:1027700011F40C946925873411F00C948E25209166
:102780002416309125162B31310509F48DC09CF4A7
:102790002430310534F422303105CCF537FF2BC01D
:1027A00022C32430310509F440C02531310511F42C
:1027B0000C94902518C32A32310509F4EDC15CF45C
:1027C0002D31310509F49AC00CF488C02E31310541
:1027D00009F4B2C008C32B35310509F427C12C35E3
:1027E000310509F428C12A35310509F0FCC21092DF
:1027F000760F0C9490258091190D813011F00C9476
:1028000090250E942B7C0E94CC970C94902580915F
:10281000190D813011F00C9490252230310509F00A
:1028200080E00E94E5CA0C94902580E50E948076A5
:10283000882329F00E943E726B017C0103C0C12CE9
:10284000D12C760183E50E948076882361F00E9476
:10285000327420E030E04AE754E40E94D0EA0E945B
:10286000DDF26B017C010E94D09180919115811164
:1028700005C060E08BE594E00E943CC80E94B7BDB3
:10288000C60ED71EE81EF91E0E94B7BDDC01CB01A3
:102890008C199D09AE09BF09B7FD02C00C949025A3
:1028A00080E00E949E6BF0CF0E9429B981110C94A8
:1028B00090258CE0E1E8F2E0DE01119601900D92A6
:1028C0008A95E1F760E070E080E50E946B82BE01CE
:1028D0006F5F7F4F0E94F3C60C9490258091CB03CD
:1028E0008770873011F00C94992560E08FE40E9486
:1028F000AC7681110C9490250C9499250E94B7BD5B
:102900006093901370939113809392139093931309
:102910000E9429B981110C94902580917B0F882306
:1029200011F40C94DA2660E08FE40E94AC768111F9
:102930000C9490250C94DA262091BE033091BF03AD
:102940004091C0035091C10360913B0270913C02E1
:1029500080913D0290913E020E946AF1AB01BC0160
:1029600088E50E942EA569837A838B839C832091BE
:10297000C2033091C3034091C4035091C5036091D9
:102980003F027091400280914102909142020E9468
:102990006AF1AB01BC0189E50E942EA56D837E839F
:1029A0008F839887BE016B5F7F4FCE0101960E9497
:1029B0004E72882311F40C94902580E00E94DA5125
:1029C0000E94A49A61E085E40E94AC7621E0482F41
:1029D000BE016B5F7F4FCE0101960E94FCB96B0177
:1029E0007C019B01AC010E945CF4811119C04981FA
:1029F0005A816B817C8184ED9EE10E94B7554D81A7
:102A00005E816F81788582E397E00E94B755B701B8
:102A1000A6018DE297E00E94B7558AE00E94C38F1D
:102A20000E948B9A0E943EC50C9490258FE0809363
:102A3000760F0C94902580912316882349F18930D4
:102A400009F0A6C08DE8A82E82E0B82E9BE3E92EFF
:102A500092E0F92ED12C00E010E0D5018D915D01BE
:102A60000E948076882369F00E943274F7016083A7
:102A7000718382839383133011F401E002C0DD245B
:102A8000D3941F5FF4E0EF0EF11C143031F775C0E2
:102A9000BDE82B2EB2E03B2E1AE9E12E1FE0F12E0D
:102AA0002BE332E039A728A70DEDC02E05E1D02E8B
:102AB00000E010E0D1018D911D010E9480768823F5
:102AC00009F44BC00E9432742B013C01133049F0D1
:102AD000F60120813181428153810E9469F12B01ED
:102AE0003C01A8A5B9A52D913D914D915C91C301E3
:102AF000B2010E9469F14B015C012DEB37E346E81E
:102B000055EB0E94CAF387FD0AC02DEB37E346E878
:102B100055E3C501B4010E946AEA1816F4F41330B3
:102B200051F44092470250924802609249027092DA
:102B30004A0201E012C0A5019401F7016081718190
:102B4000828193810E946AF1D7016D937D938D9369
:102B50009C931397812F0E94BD951F5FB4E0EB0EED
:102B6000F11CE8A5F9A53496F9A7E8A7F4E0CF0E83
:102B7000D11C143009F09ECF05C0DD2019F00E9451
:102B80003CC506C0002321F087E492E00E94B64CC9
:102B90000E943EC50C9490258091190D813011F052
:102BA0000C94902589E40E948076E82E882321F0F9
:102BB0000E94FE73062F01C000E08AE40E94807626
:102BC000F82E882321F00E94FE73162F01C010E01A
:102BD000EE2011F0053020F4FF2041F0153030F0E8
:102BE00084E694E00E94F3540C94902580E1EBE39A
:102BF000F2E0A3E2B4E101900D928A95E1F7EE20B4
:102C000019F1602F000F770B880B990B0E9471EA66
:102C100020917A1630917B1640917C1650917D164A
:102C20000E94D0EA2091E9153091EA154091EB1508
:102C30005091EC150E946AF1609323147093241450
:102C40008093251490932614FF2019F1612F110F02
:102C5000770B880B990B0E9471EA20917E163091B8
:102C60007F1640918016509181160E94D0EA2091E3
:102C7000ED153091EE154091EF155091F0150E9431
:102C80006AF1609327147093281480932914909309
:102C90002A1460E080E50E94AC768823C1F1EE2022
:102CA000D1F02091BE033091BF034091C0035091F9
:102CB000C103609123147091241480912514909184
:102CC00026140E9469F16093231470932414809356
:102CD000251490932614FF20D1F02091C203309147
:102CE000C3034091C4035091C503609127147091B0
:102CF00028148091291490912A140E9469F16093FC
:102D00002714709328148093291490932A1440E078
:102D100050E0BA0186E40E942EA56B017C0120E000
:102D200030E0A9010E94CAF318165CF420E030E0FC
:102D300040E752E4C701B6010E9464F26B017C01D6
:102D400003C0C12CD12C76018090370290903802BC
:102D5000A0903902B0903A0220E030E0A901C7010A
:102D6000B6010E946AEA882341F0C0923702D092ED
:102D70003802E0923902F0923A0200910502109175
:102D8000060284E690E09093060280930502C090CC
:102D90001102D0901202E0901302F090140280E031
:102DA00090E0A0E8BFE38093110290931202A093F9
:102DB0001302B09314020E94CC9780923702909233
:102DC0003802A0923902B0923A02109306020093A0
:102DD0000502C0921102D0921202E0921302F09208
:102DE00014020C9490250E94C0B80C949025009178
:102DF0002416109125160937110509F4A7C70CF000
:102E000035C10E34110509F43CC40CF0A1C00A31DF
:102E1000110509F45BC3DCF50431110509F4ACC2FA
:102E20008CF40131110509F493C234F40230110518
:102E300008F45AC20C9466250231110509F448C6FB
:102E40000C9466250731110509F4CBC29CF40531B9
:102E5000110509F4C2C20631110511F00C94662562
:102E60000E94EAB080912511877F806280932511AE
:102E70000C9490250831110509F4CAC209311105D5
:102E800011F00C9466250E94A2810C9490250032CA
:102E9000110509F493C30CF03FC00D31110509F47D
:102EA00076C38CF40B31110509F41EC30C311105E6
:102EB00011F00C94662580912116909122160E94A3
:102EC000EAB40C9490250E31110509F467C30F3153
:102ED000110511F00C9466250E9494C66C8F7D8FAD
:102EE0008E8F9F8FBE016F5F7F4FCE014C960E94E9
:102EF000C4AC60E0CE0101960E947BC80E94EC55F4
:102F0000BE016F5F7F4F8FEF94E00E94D5558AE03E
:102F10000E94C38F0C9490250B34110509F4A3C3B0
:102F200054F40A32110509F472C30934110509F485
:102F300087C30C9466250C34110509F498C30D342D
:102F4000110511F00C9466250E944A4A0C949025B4
:102F50000C36110511F40C9490250CF047C0053582
:102F6000110509F4EEC54CF50235110509F4A0C5AB
:102F7000D4F40135110511F00C9466250E94F48AF1
:102F80000E944A4A0E94E1910E94E18C68EE73E03F
:102F900080E090E00E94435460E083E995E00E9465
:102FA0003CC80C9490250335110509F489C50435F6
:102FB000110509F48DC50C9466250936110509F42F
:102FC00064C454F40C35110509F4DFC50836110545
:102FD00009F4E9C30C9466250A36110509F469C49D
:102FE0000B36110509F48FC40C94662502371105C0
:102FF00009F455C6D4F40F36110509F4A6C454F4E7
:103000000D36110509F4EFC30E36110509F48AC413
:103010000C9466250037110511F40C9490250137A6
:10302000110509F4D7C40C9466250637110509F477
:1030300050C654F40337110509F438C60537110595
:1030400009F437C60C9466250737110509F47BC6C9
:103050000837110511F00C94662581E08093520B1E
:103060008093510B0E945DC60C949025023921E09B
:10307000120711F40C9453220CF08EC0033D11057D
:1030800009F49FC7F4F5083C110509F466C6DCF4A1
:103090000C38110509F4C3C44CF40D37110511F0B7
:1030A0000C9466250E94A2810C9490250B39110581
:1030B00009F4D6C40E3B110511F00C9466250E944C
:1030C000E7AA0C9490250C3C110509F429C754F487
:1030D000093C110509F488C60B3C110509F401C728
:1030E0000C9466250D3C110509F44EC70E3C1105E4
:1030F00011F00C94662556EAE52E5FE0F52E10E0FF
:1031000046C70D3281E0180711F40C941921E4F43C
:10311000023E110509F4D5C754F40C3D110509F41C
:1031200053C70D3D110509F476C70C94662502328C
:10313000A1E01A0711F40C94AD200C32114011F4E7
:103140000C9404210C9466250033E1E01E0711F471
:103150000C9499217CF40E3221E0120711F40C94A6
:103160000C220F32114011F00C9466250E9445A5E7
:103170000C949025003981E0180711F40C9450222A
:103180000139114011F00C94662581E00E946949D3
:103190000E943EC50C9490250C30A2E01A0711F451
:1031A0000C9455230CF04BC00C3AE1E01E0711F4CF
:1031B0000C94D7220CF50D3921E0120711F40C9470
:1031C0002B256CF40A3981E0180711F40C94902532
:1031D0000C39114011F40C9459220C946625043AD0
:1031E000A1E01A0711F40C945F22053A114011F482
:1031F0000C9462220C946625063FE1E01E0711F450
:103200000C9438237CF4043F21E0120711F40C9451
:103210003523053F114011F00C9466250E9447D8D4
:103220000C949025073F81E0180711F40C943B2380
:10323000083F114011F40C9444230C946625033587
:10324000A3E01A0711F40C94B1240CF50A39E2E05A
:103250001E0711F40C94DE236CF4083522E01207EB
:1032600011F40C9462230B35124011F40C94652375
:103270000C9466250D3B82E0180711F40C94F7239B
:103280000E3B124011F40C94FA230C946625073E71
:10329000A3E01A0711F40C941D25CCF40438E3E0E4
:1032A0001E0711F40C94B424003A134011F00C944E
:1032B0006625209121163091221690912511926059
:1032C00090932511C9010E94EAB40C949025083E00
:1032D00023E0120711F40C944225093E134011F427
:1032E0000C9445250C94662580E50E948076882301
:1032F00029F00E943E726B017C0103C0C12CD12CCD
:10330000760183E50E948076882361F00E94327402
:1033100020E030E04AE754E40E94D0EA0E94DDF267
:103320006B017C010E94D091809121169091221610
:10333000009719F00E94CEB804C08DE794E00E9477
:10334000ADC840E0C701B6010E94958C0C94902551
:1033500080918B1484FF02C00C94DD2680918D1423
:1033600087FF02C00C94DD2680918E14837011F0CB
:103370000C94DD260C94FA268091251183FF25C03C
:1033800088EA94E00E94F3548091251183FF17C0CE
:1033900081E491E10E9424608BE1E1E4F1E1DE014E
:1033A000119601900D928A95E1F760E070E0CE01F0
:1033B00001960E940FB6CE0101960E94BB7B89E95F
:1033C00094E00E94F3540C9490250E94EC5589EBF4
:1033D00094E00E94F3540C9490250E949FB10C94A9
:1033E0009025E0912116F09122168081882329F002
:1033F000803209F410823196F8CF60E08091211676
:10340000909122160E9434B5109275040C94902568
:1034100083E50E948076882321F00E94FE730E943B
:10342000A3AD84E50E9480768823A9F00E94FE73F4
:103430006B017C010E94C8C6C092240BD092250B60
:10344000E092260BF092270BCD28CE28CF2819F03A
:1034500081E08093901680918F168823F9F080E0A8
:1034600090E0A8E4B2E488A399A3AAA3BBA31C8E0E
:103470001D8E1E8E1F8E19821A821B821C8200E0F6
:1034800010E020E0AE01405E5F4FBE01645E7F4F02
:10349000CE0101960E94AE580C9490250E94D38CC8
:1034A000882381F00E94FBB00E94DB4982EF9FE0FD
:1034B0000E94A0B010928F14109290141092911448
:1034C000109292140E9473DD0C9490258091251126
:1034D00083FD02C00C94902583E50E9480768111C3
:1034E0000C9409270C94902583E40E94657488232A
:1034F00019F18DEC94E00E94F35480918812882396
:1035000091F0BE016F5F7F4F85E892E10E94F05F0E
:103510008E010F5F1F4FD8018D918D01882339F0E7
:103520000E94C38FF8CF83EC94E00E94F3548AE0AA
:103530000E94C38F0C9490258091251182FF21C099
:103540008CED94E00E94F35460912111709122114E
:1035500080912311909124114AE00E94CA8F8FE23A
:103560000E94C38F60911D1170911E1180911F11D7
:10357000909120114AE00E94CA8F0E94C8900C943A
:1035800090258EEE94E00E94F3540C949025809147
:1035900025118E7F809325110C9490258091251103
:1035A00083FD02C00C9490250E94A6B8809121163C
:1035B000909122160E9453B40C949025809125116D
:1035C00082FD0E94D0918091251183FD02C00C9450
:1035D000902560E080E50E94AC76182F682F8091DE
:1035E0002116909122160E9434B583E50E948076C0
:1035F000882321F00E94FE730E94A3AD0E94FBB0BD
:1036000011110C9490250E94DB490C9490256DE0DB
:1036100070E080E50E948D768C0197FF02C00C94CB
:103620009025E82E60E089E40E94AC7681110C942C
:103630000E27802F0E945CE5811160C50C940E2737
:1036400080E50E946574882311F40C9490250E94F3
:103650000E7490E08536910510F084E690E080933A
:1036600075040C9490250E94DB490C949025809160
:103670009016813011F00C9490250E947AC60C941B
:10368000902560E070E083E50E948D768E34910590
:1036900031F40E94BD4A0E9473DD0C94902584E7AA
:1036A00095E00E94F3546091410B7091420B8BE6C0
:1036B00095E00E94AA556091430B7091440B8EE5F2
:1036C00095E00E94AA556091410B7091420B809148
:1036D000430B9091440B681B790B8091901681509D
:1036E00021E030E0823010F020E030E0621B730B0C
:1036F00083E595E00E94AA558AE00E94C38F84E783
:1037000095E00E94F3548091450B9091460BA09157
:10371000470BB091480B8C8F9D8FAE8FBF8FBE0132
:103720006F5F7F4FCE014C960E94C4ACBE016F5FAD
:103730007F4F86E495E00E94D5558091490B90918A
:103740004A0BA0914B0BB0914C0B8C8F9D8FAE8F81
:10375000BF8FBE016F5F7F4FCE014C960E94C4ACFD
:10376000BE016F5F7F4F86E395E00E94D55520E054
:1037700030E04AE754E460914D0B70914E0B80911C
:103780004F0B9091500B0E9464F2AB01BC018EE193
:1037900095E00E94B7558DE60E94C38F8AE00E9493
:1037A000C38F0C9490258091750F83FF02C00C94F9
:1037B00090250E94087D87FF02C00C94902583E528
:1037C0000E948076882359F00E9432740E94D6F2BB
:1037D000CB010E94A08561E080E00E94D7890E9411
:1037E000B7DE0C9490258091750F83FF02C00C9476
:1037F00090250E94087DF82E87FF02C00C9490252A
:1038000083E50E948076182F811107C082E50E940F
:103810008076811102C000E02CC00E9432740E94A8
:10382000D6F2CB010E94A08561E081E00E94D78999
:1038300060917A1070917B10072E000C880B990B09
:103840000E9471EA4B015C01409076105090771015
:103850006090781070907910A30192010E94CAF3D1
:10386000181614F40C946527112311F40C944B27AB
:1038700001E00E94B7DE002311F40C949025612F23
:103880008F2D0E9422860C9490250E94087D182F6F
:1038900087FD0AC08CEF9BE10E94F354812F0E94A8
:1038A000B0858AE00E94C38FF8A9F093B9030C9405
:1038B000812860E080E50E94A076F82E21E028179C
:1038C00010F40C94902581E40E946574882321F003
:1038D00060917C0F062F02C00FEF10E083E50E947D
:1038E0008076882349F00E94FE738B016F3F71053B
:1038F00019F010F00FEF10E0EF2DF0E0E458F04F6A
:1039000000830C94902560E080E50E94A0768230D0
:1039100010F00C949025E82FF0E0E458F04F10825E
:103920000C9490258EE40E948076882311F40C94E8
:1039300090250E94FE73609317157093181580935D
:10394000191590931A150C94902583E50E946574BF
:10395000882331F060E083E50E94A0768093750FA4
:103960000E94EC5585E895E00E94F3548091750F14
:10397000882369F1A7E1EA2EA7E0FA2E00E010E023
:1039800020E08091750F90E0A0E0B0E0002E04C030
:10399000B695A795979587950A94D2F780FF0EC0A4
:1039A000DD24D394D20E222319F08CE20E94C38F1F
:1039B000F701859194910E94F3542D2D0F5F1F4FB5
:1039C00032E0E30EF11C05301105D9F6B0CD81E8E7
:1039D00095E0ABCD83E50E948076882381F00E943C
:1039E0000E74282F30E02D33310524F4809300022B
:1039F0000C9490258CE3809300020C9490250E94F7
:103A0000EC554091000250E060E070E08CE895E0F9
:103A10000E9499558AE00E94C38F0C949025809152
:103A2000750F83FF02C00C94902583E50E94807679
:103A3000882311F40C9490250E9432740E94D6F2CF
:103A40006C3871050CF48B011093870F0093860F6F
:103A50000E94BC8A61E080E00E94D7890C94902586
:103A600083E50E948076882311F40C9490250E94AF
:103A70000E74182F90E0CD970CF01CE31093B40354
:103A80000E94B7BD6B017C01212F30E0A8EEB3E0AE
:103A90000E940CF1C60ED71EE81EF91EC092B0039C
:103AA000D092B103E092B203F092B3030C9490254C
:103AB0008091760F8F7D80618093760F0C94902596
:103AC0008091760F8F7E80628093760F0C94902584
:103AD00083E50E9480768823F1F00E94B7BD609351
:103AE00090137093911380939213909393130E9469
:103AF000327420E030E04AE754E40E94D0EA0E94A9
:103B0000DDF26093010270930202809303029093AE
:103B100004020C94902580918B1484FF02C00C94B5
:103B2000682780918D1487FF02C00C9468278091CC
:103B30008E14837011F00C9468270E94E1910C940C
:103B4000902583E50E946574882311F40C949025D8
:103B50000E94B7BD6093901370939113809392135A
:103B6000909393130E94327420E030E04AE754E4CB
:103B70000E94D0EA0E94DDF26093B5037093B60311
:103B80008093B7039093B803CBC70E94087D87FD4D
:103B9000C7C790918B1494FD04C090918D1497FF2A
:103BA0000AC0EDE8CE2EE2E0DE2EFEEAEF2EFAE0CD
:103BB000FF2E10E009C090918E14937091F7682F3A
:103BC00081E00E946D83ACC7D6018D916D010E948A
:103BD0008076882309F459C0133009F04FC00E9441
:103BE00032744B015C0120E030E040EA51E40E9475
:103BF0006AEA87FF3AC0A50194016091CE0A7091EC
:103C0000CF0A8091D00A9091D10A0E9464F22B01D0
:103C10003C019B01AC016091DE0A7091DF0A80914A
:103C2000E00A9091E10A0E94D0EA6093DE0A709364
:103C3000DF0A8093E00A9093E10A60911C0570917D
:103C40001D0580911E0590911F050E946FEAA3013A
:103C500092010E94D0EA0E94DDF260931C057093ED
:103C60001D0580931E0590931F058092CE0A9092A9
:103C7000CF0AA092D00AB092D10A07C00E94327433
:103C8000F701648B758B868B978B1F5FF4E0EF0ECB
:103C9000F11C143009F098CF0E94964B41C70E9446
:103CA000C4B787EE90E10E9453D63AC70E9409D06C
:103CB00037C78091211690912216009709F402CC03
:103CC000DC012C91222309F4FDCB60E00E947BC82B
:103CD00027C7009121161091221694E0F12C40E0A4
:103CE000915021F1F8018081282F2B7F213421F47C
:103CF00021812133D9F407C08035C1F481818053FB
:103D00008A3048F013C0813421F0853421F441E039
:103D100002C0FF24F39498012E5F3F4F89012F5F6B
:103D20003F4FF80180818032C9F3DACF41110E9400
:103D3000EC55FF2021F083EA95E00E94F354C8017E
:103D40000E94CE90EDC60E941DC6EAC61092520B8C
:103D50001092510B0E945DC6E3C60E94087D182F89
:103D600087FDDEC60091990F84E40E948076882347
:103D700011F40C9494270E9432746B017C0120E0B2
:103D800030E0A9010E946AEA882341F124E012028E
:103D9000F0011124EB56F04FC082D182E282F3820F
:103DA00020E030E0A9016091950F7091960F80910D
:103DB000970F9091980F0E946AEA81110CC080E0E1
:103DC00090E0A0EEBFE38093950F9093960FA093A1
:103DD000970FB093980F01E00C94942780E08093A4
:103DE000990F0E942A929CC60E94087D87FD98C662
:103DF00086E40E948076882311F10E940E74853635
:103E000008F084E6809310028823C9F0682F880F99
:103E1000770B880B990B0E9471EA9B01AC0160E063
:103E200074E284E799E40E9464F20E94D7F36093FD
:103E30000C0270930D0280930E0290930F0287E4A0
:103E40000E948076882371F10E94327420E030E075
:103E500040E85FE30E946AEA87FD13C00E94327463
:103E600020E030E048EC52E40E94CAF3181674F0E7
:103E70000E94327420E030E048EC52E40E9464F288
:103E800009C06AE077ED83E29CE304C060E070E083
:103E900080E89FE3609308027093090280930A020E
:103EA00090930B027DE8E72E72E0F72E0EEA1AE0FF
:103EB000D7018D917D010E946574882359F00E947D
:103EC00032740E94DDF2F8016083718382839383F0
:103ED0000E941F4B0C5F1F4FFAE00E3B1F0741F77C
:103EE0001FC60E94087D87FD1BC66DE8E62E62E0B6
:103EF000F62E0EEA1AE0D7018D917D010E946574BD
:103F0000882339F00E943274F80164A375A386A354
:103F100097A30C5F1F4FFAE00E3B1F0761F700C627
:103F200080918C1487FF02C00C949A2780918D1485
:103F30008E7011F00C949A274091E20A5091E30A96
:103F40006091E40A7091E50A87EA95E00E94B7550E
:103F50004091E60A5091E70A6091E80A7091E90AF7
:103F600081ED93E20E94B7554091EA0A5091EB0A25
:103F70006091EC0A7091ED0A8AE695E20E94B755CD
:103F80008AE00E94C38FCCC50E94A883C9C588E57A
:103F9000810F0E946574882359F00E943274D70102
:103FA0006D937D938D939C931397812F0E94BD9564
:103FB0001F5FB4E0EB0EF11C133049F70E943EC5C1
:103FC000AFC50E947E82ACC583E50E9480768823BF
:103FD00031F00E94FE737093060260930502809197
:103FE0008B1490918C14A0918D14B0918E14892B08
:103FF0008A2B8B2B09F094C5609105027091060203
:1040000087EB95E00E94C85585E20E94C38F8AE045
:104010000E94C38F85C50E94087DF82E87FD80C54C
:1040200083E50E9480760F2D0F2C000C110B882346
:1040300069F10E94FE73F801EE0FFF1FEC5AFD4F6D
:1040400071836083000F111F000F111FF801EF5ED5
:10405000FD4F7F01072E000C880B990B0E9471EA1F
:104060002AE037ED43E25CE30E94D0EAF801ED5C20
:10407000FB4E20813181428153810E94D0EAD701D9
:104080006D937D938D939C9313974AC50E94EC5535
:1040900085E40E94C38F80E38F0D0E94C38F000FC1
:1040A000111FF801EC5AFD4F608171818BEB95E097
:1040B0000E94C85585E20E94C38F8AE00E94C38F88
:1040C0002FC580E50E946574882309F429C560E046
:1040D00070E080E50E948D76F82E6FEF7FEF83E52C
:1040E0000E948D768C010196039708F019C5F7FCA4
:1040F00017C58F2D0E945CE5882339F00E94E85592
:1041000083EC95E00E94F3540BC50E94D09160E0CF
:104110008F2D0E9478BC0F3FBFEF1B0731F001309D
:10412000110571F000E010E00DC08F2D0E9481E5B7
:1041300031E020E0892B09F030E0032F122F02C07C
:1041400001E010E08F2D0E9481E58017910709F4AE
:10415000E7C480E00E949E6BF5CF8AE50E948076DE
:10416000811106C083E50E948076882309F440C04F
:104170000E94327420E030E040E050EC0E946AEA95
:1041800087FD24C70E94327420E030E040E050E414
:104190000E94CAF318160CF413C70E9432746B0104
:1041A0007C0184E00E941897811122C02091CA0AE4
:1041B0003091CB0A4091CC0A5091CD0AC701B6018B
:1041C0000E94D0EA0E94D6F22091BC033091BD0338
:1041D000260F371F3093BD032093BC032091BA03F1
:1041E0003091BB03620F731F7093BB036093BA03DC
:1041F00080918D1487FDF0C680918E14837009F034
:10420000EBC60E94EC558CC464E071E083E50E942B
:104210006B828C0168EE73E080E50E946B828938C6
:10422000E3E19E0710F088E893E1B8010E940FC80F
:1042300077C460E085E40E94A076811173C080E5B8
:104240000E946574882351F00E94327460937D103F
:1042500070937E1080937F109093801089E40E9469
:104260006574882381F00E9432742CEA35EC47E2B1
:104270005EE30E94D0EA6093811070938210809375
:1042800083109093841084E40E946574882381F0E5
:104290000E9432742CEA35EC47E25EE30E9464F23D
:1042A0006093851070938610809387109093881088
:1042B0000E94EC5540917D1050917E1060917F10CE
:1042C000709180108AED95E00E94B7552CEA35EC8C
:1042D00047E25EE3609181107091821080918310BB
:1042E000909184100E9464F2AB01BC0186ED95E0D0
:1042F0000E94B7552CEA35EC47E25EE360918510E9
:104300007091861080918710909188100E94D0EA59
:10431000AB01BC0182ED95E00E94B7558AE00E9496
:10432000C38FFEC30E94E8558EED95E00E94F354C2
:10433000F7C380E50E946574882351F00E943274AF
:104340006093890F70938A0F80938B0F90938C0FDB
:1043500089E40E946574882381F00E9432742CEAFB
:1043600035EC47E25EE30E94D0EA60938D0F7093D4
:104370008E0F80938F0F9093900F84E40E9465744A
:10438000882381F00E9432742CEA35EC47E25EE328
:104390000E9464F26093910F7093920F8093930F39
:1043A0009093940F0E94EC554091890F50918A0F81
:1043B00060918B0F70918C0F8AED95E00E94B7553C
:1043C0002CEA35EC47E25EE360918D0F70918E0F21
:1043D00080918F0F9091900F0E9464F2AB01BC010D
:1043E00086ED95E00E94B7552CEA35EC47E25EE396
:1043F0006091910F7091920F8091930F9091940F13
:104400000E94D0EAAB01BC0182ED95E00E94B75555
:104410008AE00E94C38F84C383E50E946574182FCD
:10442000882371F00E9432740E94D6F270931602B3
:104430006093150221E0672B09F020E02093740FB0
:1044400080E50E946574882359F02091150230910F
:104450001602232B11F00E9422748093740F60C304
:1044600011115EC30E94EC5589E096E00E94F3545E
:104470008091740F882319F08FED90E202C080EFD5
:1044800095E00E94F354609115027091160288EF36
:1044900095E00E94C85584EF95E00E94F35440C314
:1044A0000E94D0913DC380E00E9469490E943EC5B0
:1044B00037C380918D14867009F094C5AAC50E94F7
:1044C000AE742EC36FEF7FEF89E40E948D76082FC4
:1044D0006FEF7FEF8AE40E948D76182F8AE50E94A5
:1044E0008076811108C081E50E948076D82E8823CD
:1044F00009F49AC501C0D12CC02E81E0800F86300E
:1045000008F04EC0912E81E0810F863008F048C03F
:104510000E9432742B013C01F02E07FDF12C07FFA5
:1045200002C004E0C02E812E17FD812C17FF02C0AF
:1045300014E0912EB5E03B2ECF1408F4F1C2E82C24
:104540003F9C500111249E1448F10E2D10E0DD20F7
:1045500071F0F501E00FF11FEE0FFF1FEE0FFF1FCF
:10456000E453FC4F208131814281538103C020E01C
:1045700030E0A9010A0D1B1D000F111F000F111FB4
:1045800004531C4FC301B2010E946AF1D8016D931C
:104590007D938D939C931397E394D5CFF394CCCFD5
:1045A0000E94E85584E694E00E94F354B9C20E9448
:1045B00029B98111B5C200E219E0EBE3F2E0F9A7F5
:1045C000E8A79E012F5F3F4F19017EE5C72E73E1DB
:1045D000D72E7901F8016591759185919491A8A5DF
:1045E000B9A58D909D90AD90BD90B9A7A8A7A50144
:1045F00094010E9469F12B013C01F70160837183F2
:104600008283938320E030E040EA51EC0E94CAF3B9
:1046100087FD0AC020E030E040EA51E4C301B20166
:104620000E946AEA18162CF4F601849118160CF40C
:1046300002C5D7018D909D90AD90BD907D0120E089
:1046400030E040EA51ECC501B4010E94CAF387FD95
:10465000FDC420E030E040EA51E4C501B4010E940D
:104660006AEA18160CF004C5F1C40E94C44458C28A
:104670000E94D7D655C261E083E50E94AC7691E0F6
:1046800089270E9455D84CC281E0809375160E94FC
:10469000C3BD10927516882309F442C20E94EC55DE
:1046A00089E896E00E94F3543BC28091251182FF75
:1046B00004C080648093251133C283FF31C20E94FD
:1046C000A6B82EC20E9497802BC20E94087D082F98
:1046D00087FD26C285E50E9465748823B1F1E02E2E
:1046E000002E000CFF080E9432744B015C0120E098
:1046F00030E0A9010E94CAF387FF04C0B7FAB09462
:10470000B7F8B094C70153E0880F991F5A95E1F7A5
:104710009C012E57394E7901D9018D929D92AD920F
:10472000BC92139720E030E04FE254E4C501B4019D
:104730000E94CAF318164CF480E090E0AFE2B4E4B3
:10474000F70180839183A283B3838CE40E94657414
:10475000882309F4E5C1002E000C110B0E9432746D
:104760006B017C0120E030E0A9010E94CAF387FFC1
:1047700004C0F7FAF094F7F8F09420E030E04FE24C
:1047800054E4C701B6010E94CAF3980143E0220F26
:10479000331F4A95E1F7F901EE57F94E18162CF040
:1047A000C482D582E682F782BBC180E090E0AFE2AE
:1047B000B4E484839583A683B783B2C18AE50E945B
:1047C0008076882351F00E94327460938B16709328
:1047D0008C1680938D1690938E1680918D1487FD84
:1047E0009FC180918E14837009F09AC176C40E9493
:1047F0007F7F96C10E94087D182F87FD91C18AE5B1
:104800000E948076882381F040E050E0BA018AE57A
:104810000E942EA54B015C0120E030E0A9010E941E
:10482000CAF31816B4F506C0812C912C90EAA92E73
:1048300090E4B92E80E090E0A0EAB0E489839A8306
:10484000AB83BC83209143023091440240914502E6
:1048500050914602C501B4010E946AF16B017C01CE
:1048600020E030E041EE53E40E946AEA87FD06C092
:10487000C12CD12C81EEE82E83E4F82ECC8EDD8E77
:10488000EE8EFF8EBE016F5F7F4FCE014C960E9471
:10489000A69B85E50E946574882329F00E943274E6
:1048A0006B017C010AC028E01202F0011124EE57CE
:1048B000F94EC080D180E280F38020E030E0A90191
:1048C000C701B6010E94CAF387FF04C0F7FAF0944B
:1048D000F7F8F094F7FAF094F7F8F094C982DA82D6
:1048E000EB82FC8280E00E94D456882321F0CE0126
:1048F00001960E94675420E030E0A901C501B4018F
:104900000E94CAF318160CF00BC180E090E0A0EAF8
:10491000B0E489839A83AB83BC83A5019401609141
:1049200043027091440280914502909146020E9498
:1049300069F16B017C0120E030E0A9010E94CAF31B
:1049400018161CF0C12CD12C7601CC8EDD8EEE8E8B
:10495000FF8EBE016F5F7F4FCE014C960E94A69BDB
:10496000DFC00E94B1AEDCC0A0903805B090390520
:10497000C0903A05D0903B058BE40E948076882356
:1049800039F10E9432747B018C0120E030E0A901F2
:104990000E94CAF387FD0AC020E030E040E251E403
:1049A000B701C8010E946AEA1816A4F48FE30E94B6
:1049B000C38F8BE40E94C38F80EC96E00E94F35477
:1049C00088EB96E00E94F35486E090E10E94F35455
:1049D000750186019701A801B501C6010E946AEA26
:1049E000882361F00E94D091C701D80180933805D7
:1049F00090933905A0933A05B0933B0580918B14B1
:104A000090918C14A0918D14B0918E14892B8A2BC7
:104A10008B2B09F085C00E94EC55409138055091D0
:104A2000390560913A0570913B0584ED96E00E944E
:104A3000B7558AE00E94C38F73C081E08093190D3F
:104A40001092D11560E083E50E94AC76811168C0B8
:104A50000E94FCAD65C083E50E946574882339F02F
:104A60000E94227480938A160E94A97B59C00E94DA
:104A7000EC558FED96E00E94F35480918A160E94C7
:104A80008D554EC00E94317D4BC00E9494C66D333F
:104A900071058105910520F083E197E00E94BAD06D
:104AA0008FE097E00E94BAD084EE809375040E9454
:104AB000A17B0E94854E8BEF96E00E94F35484EF19
:104AC00096E090936F0F80936E0F2AC00E94C0B83B
:104AD00027C000912416109125160E94B7BD60933F
:104AE00090137093911380939213909393130023D8
:104AF000B9F00E94EC5584E50E94C38FB801772776
:104B0000072E000C880B990B0E94379080E20E94C0
:104B1000C38F8EED95E00E94F35402C00E94C0B88E
:104B20003CA9311102C00E94ECAD88A98093B90361
:104B3000E8C20E94D09190917B0F9BAB80E00E94D5
:104B4000DA510E94B7BD60939013709391138093D4
:104B50009213909393130E94A49A81E08093520B36
:104B60000E945DC68AE50E946574082F88E50E9450
:104B70006574182F89E50E946574181319C101170F
:104B800011F0312E04C03324339411E001E082E5AA
:104B90000E948076882319F00E94327404C060E07D
:104BA00070E080EA90E46CA37DA38EA39FA320E035
:104BB00030E0A9010E946AEA882349F0111103C07C
:104BC000332009F4E2C0CE0184960E9480B91123FB
:104BD00009F4D6C0332009F4D0C010923B021092E1
:104BE0003C0210923D0210923E0210923F0210923F
:104BF000400210924102109242020E943CC5EEE532
:104C0000F3E134913DABE2E5F3E1C590D590E59059
:104C1000F490E6E5F3E185909590A590B490A70116
:104C20009601C501B4010E946AEA87FF05C0A70189
:104C30009601C501B40104C0A5019401C701B601E4
:104C40000E9464F22B013C01EBE3F3E18591959125
:104C5000A591B49188A799A7AAA7BBA7E7E3F3E119
:104C600085919591A591B4918CA79DA7AEA7BFA75B
:104C70009C01AD0168A579A58AA59BA50E94CAF3F0
:104C800018163CF42CA49DA599ABAEA5AAAB1FA504
:104C900006C028A4B9A5B9ABEAA5EAAB1BA5A30138
:104CA0009201C301B2010E94D0EA20E030E040E866
:104CB0005FE30E946AF10E9418F4222D39A94AA9E3
:104CC000512F0E94D0EA68A379A38AA39BA3EFE5A2
:104CD000F3E1149120E030E040EC5FE3C501B40162
:104CE0000E94D0EA4B015C01612F110F770B880BFA
:104CF000990B0E9471EA9B01AC01C501B4010E94AD
:104D0000D0EA69837A838B839C8320E030E040EC97
:104D10005FE3C701B6010E94D0EA6B017C01FDA9E7
:104D20006F2FFF0F770B880B990B0E9471EA9B0185
:104D3000AC01C701B6010E94D0EA6C8F7D8F8E8FC7
:104D40009F8FAE01405E5F4FBE016F5F7F4FCE0110
:104D50004C960E94849B0E946CC610923B0210925B
:104D60003C0210923D0210923E0210923F021092BD
:104D70004002109241021092420280E00E94DD95B2
:104D8000332019F081E00E94DD95002319F082E0C4
:104D90000E94DD950E943CC58091510B8093520B7F
:104DA0008BA90E94DA510E948B9A0E943EC5B8CE10
:104DB000382EEDCE0E94C176B3CE88E50E94657490
:104DC00081115F9889E50E94657481118A988AE54E
:104DD0000E946574882331F080910801817080936E
:104DE0000601479885E40E946574882309F498CEEB
:104DF000129896CE60E080E994E00E943CC85F98EB
:104E00008A988091080181708093060147981298D2
:104E100087CE0E94FE730E94A3AD82CE8DE40E94D5
:104E200080768823A9F00E940E74813039F020F03A
:104E3000823049F462E003C060E001C061E0802F8D
:104E40000E9478BC05C08CE095E00E94F35468CEC7
:104E500083E50E948076882309F462CE0E940E7456
:104E6000F82EB7E0EB1631F0E9E0EE1206C08093C1
:104E70007C0F56CE80937D0F53CE61E0802F0E9431
:104E800078BC6F2D802F0E9449BC6F2D70E0802F61
:104E90000E94B4BC45CEA3019201C501B4010E9499
:104EA000CAF3181694F080E29CE19F938F938CE7ED
:104EB00095E09F938F931F920E94E2B90F900F90FD
:104EC0000F900F900F900C94381C8DEF9BE0EDCF5E
:104ED0000E94D09188E50E946574882321F05F9A32
:104EE00080E00E94069789E50E946574882321F07E
:104EF0008A9A81E00E9406978AE50E946574882359
:104F000051F0809108018095817080930601479A45
:104F100082E00E94069785E40E946574882309F464
:104F2000FFCD0E94738CFCCD602F83E50E94AC7690
:104F30000C94EF1E83E50E948076882391F00E94F6
:104F400032746093E20A7093E30A8093E40A9093C8
:104F5000E50A6093EA0A7093EB0A8093EC0A909357
:104F6000ED0A80E50E948076882351F00E94327419
:104F70006093E20A7093E30A8093E40A9093E50A4F
:104F800082E50E948076882351F00E9432746093FB
:104F9000E60A7093E70A8093E80A9093E90A84E5A9
:104FA0000E948076882309F4BBCD0E9432746093FE
:104FB000EA0A7093EB0A8093EC0A9093ED0AB0CD65
:104FC000C12CD12CE12C90E4F92EEBC8C12CD12CB2
:104FD000E12C80ECF82EE5C882E50E946574811111
:104FE00010C99ECD82E50E946574082F83E50E945A
:104FF0006574182F011103C0112309F491CD0E948B
:10500000A858112309F48CCD0E9422748093670262
:1050100087CD0E94EC558CE196E00E94F35480917C
:1050200067020E948D557CCD0E94E8558DE296E086
:105030000E94F35475CDB7FAB094B7F8B094D70185
:105040008D929D92AD92BC921397F3CA0E94E8553F
:105050008BE696E00E94F35461E08DE596E00E94B5
:105060003CC868E270E088EC90E00E940FC858CD20
:105070000C5F1F4FBFEFCB1ADB0AE9E00C321E07B3
:1050800009F0A8CA66EAE62E6FE0F62E10E0F101FC
:1050900081919191A191B1911F01F7018193919318
:1050A000A193B1937F01812F0E94BD951F5F1330A3
:1050B00071F70E943EC560E08DE496E00E943CC816
:1050C00063E972E084E690E00E940FC86AEB72E048
:1050D00084E690E00E940FC823CD89E996E00E9403
:1050E000F35440918B1650918C1660918D167091EF
:1050F0008E1684E996E00E94B7558AE00E94C38F1D
:105100000FCDE5960FB6F894DEBF0FBECDBFDF9191
:10511000CF911F910F91FF90EF90DF90CF90BF90B4
:10512000AF909F908F907F906F905F904F903F9047
:105130002F9008954F925F926F927F928F929F92DD
:10514000AF92BF92CF92DF92EF92FF920F931F9395
:10515000CF93DF93CDB7DEB7C054D1090FB6F89423
:10516000DEBF0FBECDBF8091F804909176042091F0
:105170007704921B9F7319F0803408F424C1809344
:10518000F8041CC08093F804108289EB94E00E941C
:1051900065E989300CF036C1843009F472C108F435
:1051A00035C1873009F4E8C108F041C1853009F400
:1051B0007EC1863009F4A6C11092F804C090761022
:1051C000D0907710E0907810F090791020E030E0E7
:1051D00040EA50E4C701B6010E946AEA181654F486
:1051E00020E030E849E853E4C701B6010E94CAF361
:1051F00087FD33C015E0115071F48AE597E00E94F5
:105200005063B701A6018FE397E00E94B7558AE08B
:105210000E94C38F22C064EF71E080E090E00E94A2
:105220001CC9C0907610D0907710E0907810F09064
:10523000791020E030E040EA50E4C701B6010E9456
:105240006AEA1816C4F620E030E849E853E4C701DA
:10525000B6010E94CAF387FFCECFC090820FD090D4
:10526000830FE090840FF090850F20E030E040EA5B
:1052700050E4C701B6010E946AEA181654F420E00F
:1052800030E046E153E4C701B6010E94CAF387FD4E
:1052900033C015E0115071F48AE597E00E94506325
:1052A000B701A60180E893E00E94B7558AE00E940A
:1052B000C38F22C064EF71E080E090E00E941CC9BF
:1052C000C0907610D0907710E0907810F090791020
:1052D00020E030E040EA50E4C701B6010E946AEAEB
:1052E0001816C4F620E030E046E153E4C701B601E9
:1052F0000E94CAF387FFCECF8091710F823059F19F
:1053000060917A1070917B10072E000C880B990B1E
:105310000E9471EA9B01AC01609176107091771048
:1053200080917810909179100E9469F16B017C0155
:1053300020E030E040E85FEB0E94CAF387FD0BC03D
:1053400020E030E040E85FE3C701B6010E946AEA6E
:1053500018160CF011C78091700F823009F414C731
:105360006091860F7091870F072E000C880B990BA8
:105370000E9471EA9B01AC016091820F7091830FD2
:105380008091840F9091850F0E9469F16B017C01DF
:1053900020E030E040E05FEB0E94CAF387FDF4C6F6
:1053A00020E030E040E05FE3C701B6010E946AEA16
:1053B00018160CF4E9C687E397E00E94506382E078
:1053C0008093700FE1C6082F10E020917604909131
:1053D0007704291759F0E92FF0E0EA58FB4F2281B2
:1053E0009F5F9F7390937704922F01C09FEFF80106
:1053F000E854FB4F908321E0280F9A3009F4C2CE85
:10540000822FB3CE813209F010C108C1813019F169
:10541000A8F0823049F1833009F0CECE82E598E0E1
:105420000E9441636091860F7091870FF0C28830AF
:1054300009F4E3C0813209F4F1C0BECE81E698E000
:105440000E9441636091761070917710809178107E
:105450009091791067C48CE598E00E944163609157
:105460007A1070917B10D3C287E598E00E94416367
:105470006091820F7091830F8091840F9091850FBE
:1054800051C48DE498E00E94416380917C0F24E632
:10549000829FC001112481589F4F6FEF70E00E94DE
:1054A0003BF170E080E090E00E946FEA3BC485E44D
:1054B00098E00E94416360913B0270913C028091B0
:1054C0003D0290913E0242E00E94348E82E397E0DA
:1054D0000E94416360913F027091400280914102BD
:1054E0009091420242E00E94348E8DE297E00E9449
:1054F0004163609143027091440280914502909112
:10550000460210C40E94F9C8882399F180E498E00B
:105510000E944163109175041F7739F50E94D38C66
:10552000882319F180911D1190911E11A0911F11D6
:10553000B09120110097A105B105B9F0BC01CD01D2
:105540006D597F4F8F4F9F4F24E630E040E050E091
:105550000E94C0F06091211170912211809123115D
:10556000909124110E94C0F0122F812F0E94E3C657
:1055700026C388E398E013C20E9494C66B017C01A5
:105580002CE330E040E050E00E94C0F049015A01B5
:1055900083E398E00E944163C701B60120E13EE049
:1055A00040E050E00E94C0F0822F0E94E3C68C01D0
:1055B000F80181918F01882319F00E94778DF8CF2F
:1055C0008FE298E00E944163C501B4012CE330E012
:1055D00040E050E00E94C0F0862F0E94E3C68C019C
:1055E000F80181918F01882319F00E94778DF8CFFF
:1055F0008CE298E00E944163DFCD8091090180FD3B
:105600006DC58091251183FF69C58091090180FDD9
:105610006CC58091251183FF68C56AC587E298E053
:105620000E94416381E298E0BAC18D310CF0CAC298
:1056300090E0FC013997E431F10508F0BDCD8827F1
:10564000EE58FF4F8F4F0C944FF10E94F9C88823FA
:1056500099F08DE198E00E94506360E085ED9BE059
:105660000E943CC889EB97E090936F0F80936E0F78
:1056700083E08093730FA0CD88E09CE090C180917F
:10568000720F823021F08091730F863089F40E946E
:1056900073DD10923404109207020E94D38C882389
:1056A00021F08091251182FF2DC50E94DB4984CD18
:1056B0001092340481CD0E94F9C88823A1F085E0BE
:1056C0008093730F10923404109207028091251179
:1056D0008064809325110E944A4A60E08CE09CE03F
:1056E0000E943CC869CD8091730F863031F484E10B
:1056F00098E090936F0F80936E0F88E09CE00E947B
:1057000050631092730F58CD40E060E070E080E08D
:1057100090E00E946A6BA801445051096CEB74E060
:1057200085E394E00E94D8F4F801E05DFB4F10821D
:10573000809135048F3219F08C3321F026C085EB2F
:1057400097E02DC10E9470B08FEF9FEF90931411DE
:10575000809313118091C51681508093C5161092C5
:10576000C4161092C316811105C01092C6160E946D
:10577000A7DB08C06FE270E086EC96E10E94B8F407
:10578000FC01118281EB97E068C08091C5168430DE
:1057900008F061C065E374E086EC96E10E94ADF428
:1057A0006EE773E086EC96E10E94ADF419821C82EC
:1057B00080915F11882319F06CE571E102C061E40A
:1057C00071E121E045E354E0CE0101960E941862A8
:1057D000882319F18BE1FE013196ACE5B1E101902E
:1057E0000D928A95E1F7809125118F7D8093251187
:1057F000A0911B11AA30E0F481E08A0F80931B1165
:105800008BE18A9FD0011124A958BE4EECE5F1E14D
:1058100001900D928A95E1F70BC00E94EC5565E36B
:1058200074E08BE997E00E94D5558AE00E94C38F0F
:10583000CE0101960E94BB7B8FEF9FEF90931411D6
:10584000809313118091C5168F5F8093C5161092B7
:10585000C4161092C31681EB97E00E94506380E05B
:105860000E9443DCA9CC8091730F863041F484E11F
:1058700098E090936F0F80936E0F1092730F8FE2EA
:10588000898365E374E0CE0102960E94C3F4CE01E1
:1058900001960E9403B185E297E081C08DE098E017
:1058A00040C18DEB94E00E9461E96B017C0111E045
:1058B00020E030E0A9010E946AEA811101C010E0F5
:1058C0001093710F8091BC04833419F0833509F073
:1058D00073CCC701B6010E9410DC6ECC8DEB94E056
:1058E0000E9461E96B017C0111E020E030E0A90138
:1058F0000E946AEA811101C010E01093700F80913C
:10590000BC04833509F058CCC701B6010E94CBDB3B
:1059100053CC8091BC04833509F04ECC8DEB94E0E0
:105920000E9461E96B017C0120E030E0A9010E9446
:105930006AEA87FD11C020E030E048EC52E4C7017C
:10594000B6010E94CAF318165CF0C701B6010E94A6
:10595000D6F29B01AC0108C020E030E0A90104C0F0
:1059600024E630E040E050E0AFEFB0E00E9401F10B
:1059700024E630E040E050E00E94E2F02F3F3105A5
:1059800019F010F02FEF30E020937C0F15CC0E941F
:105990000CC9811111CC0E94566B81E297E00E94E4
:1059A00050630ACC8091BC04833549F58DEB94E0BB
:1059B0000E9465E98C01BC01990F880B990B0E942C
:1059C00071EA6B017C0120E030E040E251E40E948A
:1059D0006AEA87FD0DC020E030E04AEF53E4C701DA
:1059E000B6010E94CAF318162CF404EF11E002C0AD
:1059F0000AE010E01093060200930502DDCB87E079
:105A000098E00E9441636091050270910602072EA2
:105A1000000C880B990B0E9471EA84C10E940CC98A
:105A20008111CACB8091BC04883579F034F4833479
:105A300009F0C2CB8DEE97E074C0893549F08A3504
:105A400009F0BACB82EF97E06CC080E098E069C0C3
:105A500089EF97E066C00E940CC98111ADCB81E04F
:105A6000809368028EEB94E00E9461E96B017C01F7
:105A70008091BC04883591F01CF4853459F19CCB9D
:105A80008935D1F08A3509F097CB209143023091C6
:105A90004402409145025091460218C320913B02B6
:105AA00030913C0240913D0250913E02C701B60147
:105AB0000E946AF140E00FC320913F023091400202
:105AC0004091410250914202C701B6010E946AF121
:105AD00041E001C360917610709177108091781049
